:1000000010C02AC029C028C027C026C025C024C0CF
:1000100023C022C021C020C01FC029C01DC01CC0D9
:100020001BC011241FBECFE5D1E0DEBFCDBF10E065
:10003000A0E6B0E0EAE1F7E002C005900D92A2363A
:10004000B107D9F710E0A2E6B0E001C01D92AB36CF
:10005000B107E1F742D05FC3D3CF2AEF30E004C04D
:10006000F9013197F1F701970097D1F708951F92A1
:100070000F920FB60F9211242F933F938F939F935C
:10008000EF93FF9380916200813039F484B195B190
:1000900090936800809367000AC08091620082306C
:1000A00031F484B195B190936A0080936900109205
:1000B000620084E690E02AEF30E0F9013197F1F731
:1000C0000197D9F7FF91EF919F918F913F912F91D8
:1000D0000F900FBE0F901F901895FF920F931F93D4
:1000E000CF93DF938AE090E02AEF30E0F901319777
:1000F000F1F70197D9F7F8944AD18CE08ABB85E0F3
:1001000087BB8BB38C608BBBC09A80E991E02AEFF0
:1001100030E0F9013197F1F70197D9F78BB3837F7D
:100120008BBBC29A88EC90E02AEF30E0F90131975E
:10013000F1F70197D9F7C29888EC90E02AEF30E008
:10014000F9013197F1F70197D9F7C098C29ADA9A75
:1001500088EC90E02AEF30E0F9013197F1F7019750
:10016000D9F7C29888EC90E02AEF30E0F901319796
:10017000F1F70197D9F7DA98DB9AC29A88EC90E008
:100180002AEF30E0F9013197F1F70197D9F7C298DA
:1001900088EC90E02AEF30E0F9013197F1F7019710
:1001A000D9F7DB98C09A789482E390E02AEF30E0A8
:1001B000F9013197F1F70197D9F781E08093620057
:1001C00080E015D1809162008823E1F782E080937E
:1001D000620081E00CD1809162008823E1F781E028
:1001E0008093630082E390E02AEF30E0F9013197D9
:1001F000F1F70197D9F711E0CAEFD0E088E0F82EC7
:1002000002E080916300882309F491C08091670027
:1002100090916800C6D080936000809169009091B1
:100220006A00D2D0809361001092660080916000D5
:100230008C37A0F5C298DA9880E197E2FE013197F9
:10024000F1F70197D9F71093620080E0D0D0809148
:1002500062008823E1F78091670090916800A1D047
:1002600080936000809160008C3708F056C0DB9A64
:1002700088EE93E0FE013197F1F70197D9F71BBAA9
:1002800018BAF8948AD01ABA17BA85B7877E8061EF
:1002900085BF85B7806285BF88953FC0809161002A
:1002A000843628F410936600C298DA9836C080919C
:1002B000600090916100282F30E0291B310937FF41
:1002C00003C0309521953F4F2B30310544F0DB9A28
:1002D000C298DA9810926500109264001EC0809156
:1002E0006100813850F08091640090916500019622
:1002F00090936500809364000EC0809161008C37FC
:1003000060F4809160008D3740F0C29ADA9A1092C2
:10031000650010926400109266008091610087FD74
:1003200004C01092650010926400109263008091E6
:100330006400909165008955924030F0C298DA9837
:10034000109265001092640084EF91E0FE013197F5
:10035000F1F70197D9F780916600882321F08BB3DC
:100360008F258BBB01C0DB981093620080E03FD0EB
:10037000809162008823E1F70093620081E037D02A
:10038000809162008823E1F7109363003ACF17B899
:1003900083E081B98BE886B9089586B1877786B9FD
:1003A0000895A0E0B0E0BC01CD01BCD02DE53CED4E
:1003B00046E35FE345D123EA33E249EC5FE322D031
:1003C00085D0DC01CB010895A0E0B0E0BC01CD01F7
:1003D000A9D02DE53CED46E35FE332D123EA33E2D9
:1003E00049EC5FE30FD072D0DC01CB01089597B1E7
:1003F000907E97B997B18F71892B87B9369B369AC2
:1004000008955058BB27AA270ED0E0C0D1D030F0B5
:10041000D6D020F031F49F3F11F41EF4C6C00EF484
:10042000E095E7FBBCC0E92FE2D080F3BA17620782
:1004300073078407950718F071F49EF5FAC00EF45F
:10044000E0950B2EBA2FA02D0B01B90190010C01E4
:10045000CA01A0011124FF27591B99F0593F50F4FC
:10046000503E68F11A16F040A22F232F342F442754
:10047000585FF3CF469537952795A795F04053954C
:10048000C9F77EF41F16BA0B620B730B840BBAF01C
:100490009150A1F0FF0FBB1F661F771F881FC2F787
:1004A0000EC0BA0F621F731F841F48F4879577959B
:1004B0006795B795F7959E3F08F0B3CF9395880F52
:1004C00008F09927EE0F97958795089598D088F0B2
:1004D0009F5790F0B92F9927B751A0F0D1F0660F30
:1004E000771F881F991F1AF0BA95C9F712C0B1304B
:1004F00081F09FD0B1E008959CC0672F782F8827A6
:10050000B85F39F0B93FCCF3869577956795B39589
:10051000D9F73EF490958095709561957F4F8F4FF8
:100520009F4F0895E89409C097FB3EF490958095FD
:10053000709561957F4F8F4F9F4F9923A9F0F92FA9
:1005400096E9BB279395F695879577956795B79527
:10055000F111F8CFFAF4BB0F11F460FF1BC06F5F0D
:100560007F4F8F4F9F4F16C0882311F096E911C01F
:10057000772321F09EE8872F762F05C0662371F040
:1005800096E8862F70E060E02AF09A95660F771F54
:10059000881FDAF7880F9695879597F9089597F948
:1005A0009F6780E870E060E008959FEF80EC089519
:1005B00000240A9416161706180609060895002442
:1005C0000A9412161306140605060895092E0394BC
:1005D000000C11F4882352F0BB0F40F4BF2B11F430
:1005E00060FF04C06F5F7F4F8F4F9F4F089557FD8F
:1005F0009058440F551F59F05F3F71F04795880F91
:1006000097FB991F61F09F3F79F087950895121627
:1006100013061406551FF2CF4695F1DF08C01616D3
:1006200017061806991FF1CF869571056105089484
:100630000895E894BB2766277727CB0197F908959B
:100640000AD0C4CFB5DF28F0BADF18F0952309F03F
:10065000A6CFABCFEFCFCBDFA8F39923D9F35523A8
:10066000C9F3950F50E0551FAA27EE27FF27BB2798
:1006700000240894679520F4E20FF31FB41F0A1EAC
:10068000220F331F441FAA1F6695A9F7779530F4F0
:10069000F30FB41F0A1E121E08F46395330F441F94
:1006A000AA1F221F769599F7879520F4B40F0A1E8A
:1006B000121E631F440FAA1F221F331F8695A9F71E
:1006C000862F712D602D11249F5750408AF0E1F044
:1006D00088234AF0EE0FFF1FBB1F661F771F881F7E
:1006E00091505040A9F79E3F510570F058CFA2CFCE
:1006F0005F3FECF3983EDCF3869577956795B79569
:10070000F795E7959F5FC1F7FE2B880F911D969592
:0A071000879597F90895F894FFCF3C
:02071A009090BD
:00000001FF
