:020000040000FA
:1000000068020010650100006D0100006F01000032
:100010007101000073010000750100000000000084
:100020000000000000000000000000007701000058
:1000300079010000000000007B0100007D0100004C
:100040007F0100007F0100007F0100007F010000B0
:100050007F0100007F0100007F0100007F010000A0
:100060007F0100007F0100007F0100007F01000090
:100070007F0100007F0100007F0100007F01000080
:100080007F0100007F0100007F0100007F01000070
:100090007F0100007F0100007F0100007F01000060
:1000A0007F0100007F0100007F0100007F01000050
:1000B0007F0100007F0100007F0100007F01000040
:1000C0007F01000000F002F800F03CF80AA090E880
:1000D000000C82448344AAF10107DA4501D100F003
:1000E00031F8AFF2090EBAE80F0013F0010F18BF94
:1000F000FB1A43F00103184794010000B40100000B
:10010000103A24BF78C878C1FAD8520724BF30C843
:1001100030C144BF04680C60704700000023002415
:1001200000250026103A28BF78C1FBD8520728BF07
:1001300030C148BF0B6070471FB500F0A0F81FBD6D
:1001400010B510BD00F05FF81146FFF7F5FF00F0A5
:1001500036F800F07DF803B4FFF7F2FF03BC00F0BF
:1001600087F800000948804709480047FEE7FEE796
:10017000FEE7FEE7FEE7FEE7FEE7FEE7FEE7FEE757
:1001800004480549034A054B70470000410400003C
:10019000C500000068000010680200106800001030
:1001A0000146002006E0002000E0401C41F28832B9
:1001B0009042FAD30A00A1F10101F4D1704700F096
:1001C0003FF900F07CFA09E005A000F0D6FA0A2019
:1001D00000F0AFFA40F6B830FFF7E2FFF4E70000B6
:1001E000C2B7BBA2A3A84C616E645469676572A3D1
:1001F000A95253343835B2E2CAD4B3CCD0F20A0093
:10020000704770477047754600F028F8AE46050005
:100210006946534620F00700854618B020B5FFF721
:10022000AFFFBDE820404FF000064FF000074FF051
:1002300000084FF0000B21F00701AC46ACE8C00904
:10024000ACE8C009ACE8C009ACE8C0098D4670470D
:100250000446AFF300802046FFF77DFF004870475B
:100260000400001001487047704700BF08000010EC
:1002700001491820ABBEFEE726000200704710B50A
:10028000FFF7F0FF4FF00001016010BD28080000EB
:100290000000001004000000000100002C08000015
:1002A00004000010640200001C01000000000000B7
:1002B000000000000000000000000000000000003E
:1002C000000000000000000000000000000000002E
:1002D000000000000000000000000000000000001E
:1002E000000000000000000000000000000000000E
:1002F000000000000000000000000000FFFFFFFF02
:1003000091480068C0F30160032868D18F480068F5
:1003100010F0030006D0012823D002283FD0032884
:100320005CD100E000BF88480068C0F30E0000F117
:1003300001004FEA4000864900FB01F08549D1F8F1
:100340008810C1F3074101F10101B0FBF1F18248CE
:100350000068C0B200F10100B1FBF0F07F49086015
:100360003CE079480068C0F30E0000F101004FEA5C
:1003700040007B4900FB01F07649D1F88810C1F3B9
:10038000074101F10101B0FBF1F173480068C0B20F
:1003900000F10100B1FBF0F0704908601EE06A480E
:1003A0000068C0F30E0000F101004FEA40004FF476
:1003B000FA4100FB01F06749D1F88810C1F3074109
:1003C00001F10101B0FBF1F163480068C0B200F136
:1003D0000100B1FBF0F06149086000BF2FE05B480D
:1003E000006810F0030006D0012810D0022819D0B0
:1003F000032823D100E000BF57480068C0B200F1D5
:1004000001005349B1FBF0F05449086016E052482E
:100410000068C0B200F101005149B1FBF0F04F4952
:1004200008600BE04C480068C0B200F101004FF4D6
:10043000FA41B1FBF0F04949086000BF00BF7047C6
:1004400020204849086000BF4648006810F0400F6F
:10045000FAD00320404908604FF001003D49C1F83F
:100460000C014148414908604FF0AA00404908602A
:100470004FF0550008604FF001003E4908604FF012
:10048000AA003B4908604FF055003249C1F88C0082
:1004900000BF2D48006810F0806FFAD00320354966
:1004A00008604FF0AA002B49C1F88C004FF05500AE
:1004B0002F49086000BF2448006810F0407FFAD040
:1004C00023202D4908604FF0AA002249C1F8AC0052
:1004D0004FF05500294908604FF001002849086095
:1004E0004FF0AA00254908604FF055001949C1F89E
:1004F000AC0000BF2348006810F4806FFAD00320DE
:100500001F4908604FF0AA001249C1F8AC004FF033
:1005100055001A49086000BF1A48006810F4407F6F
:10052000FAD00020184908600A49C1F8AC01174800
:10053000174908604FF000001649086043F23A007E
:10054000044908607047000088C00F400CC10F408C
:1005500000093D0000C00F4004C10F400000001022
:10056000001BB700A0C10F406300050084C00F400E
:100570008CC00F4080C00F40A4C00F40ACC00F40E3
:10058000A0C00F40A8C00F40A8C10F40DE872804BC
:10059000C4C00F40C8C10F409C49096841F0100118
:1005A0009A4A11601146096841F0400111608321A7
:1005B000974A11730D200146C21700EB1262121206
:1005C000934B1A71C21700EB12621212A0EB0222B7
:1005D0001A7003211A4611730621117270470146E1
:1005E00000BF8B48007D10F0200FFAD0C8B2884AB7
:1005F0001070704700BF8648007D10F0010FFAD0E0
:1006000083480078704700B5034603E013F8010BF8
:10061000FFF7E5FF18780028F8D100BD7B4909688D
:1006200041F48011794A11601146096841F4800152
:1006300011607849096841F08071774AC2F8C410A6
:100640004FF08301754A11734FF00D0001464FEAD8
:10065000E07200EB12624FEA2222704B1A714FEAED
:10066000E07200EB12624FEA2222A0EB02221A7023
:100670004FF003011A4611734FF0060111727047D3
:10068000014600BF6548007D10F0200FFAD0C8B2C7
:10069000624A1070704700BF6048007D10F0010F83
:1006A000FAD05E480078704700B5034603E013F8BF
:1006B000010BFFF7E5FF18780028F8D100BD53497A
:1006C000496A41F04071514A51621146496A41F00C
:1006D000406151629115524A11641146496D21F4ED
:1006E000807151654B49096841F000714A4AC2F86E
:1006F000C4104FF083014B4A11734FF00D000146B7
:100700004FEAE07200EB12624FEA2222454B1A7167
:100710004FEAE07200EB12624FEA2222A0EB0222C3
:100720001A704FF003011A4611734FF0060111724F
:10073000704700BF3B49097D11F0200FFAD03849BE
:10074000496D41F48071364A5165364A107000BFD8
:100750003449097D11F0200FFAD03149496D21F457
:1007600080712F4A5165704700BF2E48007D10F000
:10077000010FFAD02B480078704700B5034603E01C
:1007800013F8010BFFF7D5FF18780028F8D100BD4A
:100790001CB503460A2093FBF0F100FB113030300A
:1007A00080B2ADF806000A2093FBF0F00A2190FB1E
:1007B000F1F201FB1200303080B2ADF804000A20E3
:1007C00093FBF0F090FBF1F090FBF1F201FB1200D3
:1007D000303080B2ADF802000A2093FBF0F090FBBD
:1007E000F1F090FBF1F090FBF1F201FB12003030E0
:1007F00080B2ADF80000002405E03DF81400FFF7DA
:10080000EEFE601CC4B2042CF7DB1CBD00C002402D
:1008100000C00040C4C00F4000C00F40008009402D
:0C08200000C0092000C0094000E1F505FF
:04000005000000C532
:00000001FF
