:1000000012C02CC02BC02AC029C028C027C026C0BF
:1000100025C024C023C022C021C020C01FC01EC0D4
:100020001DC01CC01BC011241FBECFE5D4E0DEBF25
:10003000CDBF11E0A0E6B0E0E8E9FDE002C0059028
:100040000D92A237B107D9F711E0A2E7B1E001C0E4
:100050001D92A237B107E1F76CD09CC6D1CF20E842
:1000600037E004C0F9013197F1F781508823D1F7C7
:1000700008958F9ABE9ABF9A81B38F6781BB12BAD7
:100080000895CF93DF939C016AE070E038D6FC01BD
:10009000E05AFF4F808182BB979AC0E8D7E0CE013B
:1000A0000197F1F7CE010197F1F7CE010197F1F732
:1000B000CE010197F1F7C9016AE070E020D69B01FB
:1000C00097986115710509F431C0CB016AE070E0C1
:1000D00016D6FC01E05AFF4F808182BBC69ACE0142
:1000E0000197F1F7CE010197F1F7CE010197F1F7F2
:1000F000CE010197F1F7C9016AE070E000D6FB017B
:10010000C6986115710591F0E05AFF4F808182BB5E
:10011000C79ACE010197F1F7CE010197F1F7CE0111
:100120000197F1F7CE010197F1F7C798DF91CF91D1
:1001300008951F93CF93DF938F9ABE9ABF9A81B38E
:100140008F6781BB12BA10E0C0E0D0E01F5F1130B2
:10015000E1F480E02ED01DD09C01C817D90718F417
:100160008C1B9D0B06C08C179D0748F4CE01821B8B
:10017000930B459720F0C901880F991F03C0CE014A
:10018000820F931FEC01D695C7951F71CE0179DFC1
:10019000DDCFA0E0B0E0BC01CD014ED39B01AC01AE
:1001A000B3D120E030E040E85EE3D5D113D0CB01FD
:1001B00008958F70806C87B987E886B9369A36992A
:1001C000FECF24B145B1942F80E030E0282B392BAD
:1001D000C9010895EF92FF920F931F937B018C0149
:1001E00020E030E040E05FE4ABD288237CF0C8013F
:1001F000B70120E030E040E05FE45BD1CCD29B016E
:10020000AC01205030404040504805C0C801B70103
:10021000C2D29B01AC01B901CA011F910F91FF909D
:10022000EF900895A0E0B0E0E7E1F1E07CC5DC01EB
:100230002B01FA019C91923008F436C1EB018881C0
:10024000823008F430C1943061F4843009F02CC15C
:10025000FD0191818981981709F426C1AAE6B0E0D1
:1002600023C1843009F41FC18230A9F4923009F00F
:100270001BC19A01AD0188E0EA010990AE01E901D4
:1002800009929E018150C1F7E2018981ED019981B6
:100290008923818306C1923009F405C1ED012A80CA
:1002A0003B80EB018A819B81ED01AC80BD80CE80DB
:1002B000DF80EB01EC80FD800E811F819101281B06
:1002C000390BB90137FF04C066277727621B730B10
:1002D000603271050CF061C0121613066CF537011F
:1002E0004801062E04C096948794779467940A94E4
:1002F000D2F721E030E040E050E004C0220F331F8D
:10030000441F551F6A95D2F721503040404050405D
:100310002E213F214023512321153105410551054F
:1003200021F021E030E040E050E079018A01E62848
:10033000F728082919293CC0232BD1F1260E371E96
:1003400035014601062E04C09694879477946794ED
:100350000A94D2F721E030E040E050E004C0220FE0
:10036000331F441F551F6A95D2F72150304040403B
:1003700050402A213B214C215D21211531054105A9
:10038000510521F021E030E040E050E059016A01E0
:10039000A628B728C828D9280BC0821593052CF0A9
:1003A0001C01AA24BB24650103C0EE24FF2487019D
:1003B000ED019981E2018981981709F445C09923DB
:1003C00039F0A80197012A193B094C095D0906C0BB
:1003D000A60195012E193F09400B510B57FD08C08E
:1003E00011823382228224833583468357831DC042
:1003F00081E081833382228288279927DC01821B56
:10040000930BA40BB50B84839583A683B7830DC090
:10041000220F331F441F551F248335834683578380
:1004200082819381019793838283248135814681E0
:100430005781DA01C9010197A109B1098F5F9F4F67
:10044000AF4FBF4328F30BC0918333822282EA0C63
:10045000FB1C0C1D1D1DE482F5820683178383E0BF
:100460008083248135814681578157FF1AC0C90195
:10047000AA2797FDA095BA2F81709070A070B070D8
:100480005695479537952795822B932BA42BB52B03
:1004900084839583A683B783828193810196938316
:1004A0008283DF0101C0D201CD01CDB7DEB7E2E129
:1004B00056C4A0E2B0E0EEE5F2E041C469837A837D
:1004C0008B839C832D833E834F835887E9E0EE2EF8
:1004D000F12CEC0EFD1ECE010196B70146D38E0124
:1004E0000F5E1F4FCE010596B8013FD38A8991E078
:1004F00089278A8BC701B801AE01475E5F4F92DE44
:100500005FD2A096E6E037C4A0E2B0E0E9E8F2E00E
:1005100016C469837A838B839C832D833E834F83A8
:100520005887F9E0EF2EF12CEC0EFD1ECE0101965E
:10053000B7011BD38E010F5E1F4FCE010596B80188
:1005400014D3C701B801AE01475E5F4F6BDE38D2EE
:10055000A096E6E010C4A0E2B0E0E0EBF2E0E3C376
:1005600069837A838B839C832D833E834F83588753
:10057000CE010196BE01675F7F4FF7D2CE0105968F
:10058000BE016F5E7F4FF1D29985923088F08989E4
:100590008230C8F0943019F4823051F404C08430B1
:1005A00029F4923081F48AE690E0C6C0923049F492
:1005B00020E09A858A89981321E02A87CE0109963E
:1005C000BBC0823049F420E09A858A89981321E0E3
:1005D0002A8BCE014196B0C02D843E844F8458882A
:1005E0006D887E888F88988CEE24FF248701AA244A
:1005F000BB24650140E050E060E070E0E0E0F0E046
:10060000C10181709070892BE9F0E60CF71C081D80
:10061000191D9A01AB012A0D3B1D4C1D5D1D80E08B
:1006200090E0A0E0B0E0E614F7040805190520F416
:1006300081E090E0A0E0B0E0BA01A901480F591FA5
:100640006A1F7B1FAA0CBB1CCC1CDD1C97FE08C0BC
:1006500081E090E0A0E0B0E0A82AB92ACA2ADB2A0B
:100660003196E032F10549F0660C771C881C991C24
:100670005694479437942794C3CFFA85EA892B89F7
:100680003C898B859C85280F391F2E5F3F4F17C0F3
:10069000CA0181709070892B61F016950795F794C7
:1006A000E79480E090E0A0E0B0E8E82AF92A0A2B7D
:1006B0001B2B76956795579547952F5F3F4F77FD95
:1006C000E7CF0CC0440F551F661F771F17FD416011
:1006D000EE0CFF1C001F111F21503040403090E0F5
:1006E000590790E0690790E4790760F32B8F3C8FFE
:1006F000DB01CA018F779070A070B07080349105D3
:10070000A105B10561F447FD0AC0E114F10401053A
:10071000110529F0405C5F4F6F4F7F4F40781A8E74
:10072000FE1711F081E08A8F4D8F5E8F6F8F78A357
:1007300083E0898FCE01499643D1A096E2E10FC3B1
:10074000A8E1B0E0E5EAF3E0FAC269837A838B833B
:100750009C832D833E834F83588789E0E82EF12CBC
:10076000EC0EFD1ECE010196B701FFD18E010F5E8A
:100770001F4FCE010596B801F8D18985823038F037
:100780008989823020F0C701B8015FD201C08FEFA4
:100790006896E6E0F0C2ACE0B0E0E0EDF3E0D3C292
:1007A00069837A838B839C83CE010196BE016B5F44
:1007B0007F4FDBD18D81823061F1823050F1843006
:1007C00021F48E81882351F12EC02F81388537FD89
:1007D00020C06E812F3131051CF06623F9F023C053
:1007E0008EE190E0821B930B29853A854B855C85D1
:1007F00004C056954795379527958A95D2F7662375
:10080000B1F050954095309521953F4F4F4F5F4F38
:100810000EC020E030E040E050E009C02FEF3FEF95
:100820004FEF5FE704C020E030E040E050E8B9015E
:10083000CA012C96E2E0A3C2A8E0B0E0E1E2F4E055
:100840007AC27B018C01611571058105910519F44E
:1008500082E089835FC083E089838EE1C82ED12C3A
:10086000DC82CB82ED82FE820F831887C801B7013C
:1008700058D0FC013197F7FF3BC0222733272E1BAE
:100880003F0B57016801022E04C0D694C794B79459
:10089000A7940A94D2F740E050E060E070E081E075
:1008A00090E0A0E0B0E004C0880F991FAA1FBB1F12
:1008B0002A95D2F70197A109B1098E219F21A02382
:1008C000B1230097A105B10521F041E050E060E0BF
:1008D00070E04A295B296C297D294D835E836F83F3
:1008E00078878EE190E08E1B9F0B9C838B8312C0D8
:1008F000309781F00E2E04C0EE0CFF1C001F111F5C
:100900000A94D2F7ED82FE820F831887CE1ADF0A8F
:10091000DC82CB821A82CE01019652D02896EAE080
:1009200026C2EF92FF920F931F937B018C0180E010
:10093000E81680E0F80681E0080780E0180788F4F0
:100940008FEFE816F1040105110531F028F088E079
:1009500090E0A0E0B0E017C080E090E0A0E0B0E060
:1009600012C080E0E81680E0F80680E0080781E029
:10097000180728F088E190E0A0E0B0E004C080E132
:1009800090E0A0E0B0E020E230E040E050E0281B42
:10099000390B4A0B5B0B04C016950795F794E79447
:1009A0008A95D2F7F701EE58FF4F8081281B310955
:1009B00041095109C9011F910F91FF90EF900895CE
:1009C000DF92EF92FF920F931F93FC01E480F5807A
:1009D00006811781D1808081823048F480E090E0E8
:1009E000A0E1B0E0E82AF92A0A2B1B2BA5C084302D
:1009F00009F49FC0823021F4EE24FF24870105C052
:100A0000E114F1040105110519F4E0E0F0E096C0ED
:100A1000628173819FEF623879070CF05BC022E836
:100A20003FEF261B370B2A3131052CF020E030E058
:100A300040E050E02AC0B801A701022E04C076951C
:100A40006795579547950A94D2F781E090E0A0E02A
:100A5000B0E004C0880F991FAA1FBB1F2A95D2F7C8
:100A60000197A109B1098E219F21A023B1230097ED
:100A7000A105B10521F081E090E0A0E0B0E09A018D
:100A8000AB01282B392B4A2B5B2BDA01C9018F775D
:100A90009070A070B07080349105A105B10539F453
:100AA00027FF09C0205C3F4F4F4F5F4F04C0215CC0
:100AB0003F4F4F4F5F4FE0E0F0E02030A0E03A07BB
:100AC000A0E04A07A0E45A0710F0E1E0F0E0790165
:100AD0008A0127C06038710564F5FB01E158FF4FBA
:100AE000D801C7018F779070A070B07080349105E5
:100AF000A105B10539F4E7FE0DC080E490E0A0E067
:100B0000B0E004C08FE390E0A0E0B0E0E80EF91E92
:100B10000A1F1B1F17FF05C016950795F794E7944A
:100B2000319687E016950795F794E7948A95D1F763
:100B300005C0EE24FF248701EFEFF0E06E2F6795EC
:100B400066276795902F9F77D794DD24D7948E2FB3
:100B50008695492F462B582F5D29B701CA011F9151
:100B60000F91FF90EF90DF900895FC01DB01408131
:100B700051812281622F6F7770E0221F2227221F6E
:100B80009381892F880F822B282F30E0991F992776
:100B9000991FFD0191832115310581F541155105FD
:100BA0006105710511F482E032C082E89FEFFD011A
:100BB000938382839A01AB0167E0220F331F441FA6
:100BC000551F6A95D1F783E08C930AC0220F331F1B
:100BD000441F551FFD018281938101979383828376
:100BE0002030F0E03F07F0E04F07F0E45F0770F3DC
:100BF000FD01248335834683578308952F3F3105B4
:100C000081F4411551056105710519F484E08C9357
:100C1000089564FF03C081E08C9301C01C92FD0124
:100C20000FC02F573040FD013383228383E08C9324
:100C300087E0440F551F661F771F8A95D1F77064B0
:100C4000448355836683778308951F93CF93DF93FF
:100C5000DC01FB019C91923008F444C08081823019
:100C600008F440C0943051F4ED011981843081F5CD
:100C70008181682F70E0611B71093CC0843021F0D4
:100C8000923031F48230A1F18181882371F12AC040
:100C9000ED0119818230E1F081811817C9F4ED016D
:100CA0002A813B8182819381821793078CF02817D8
:100CB0003907B4F0ED018C819D81AE81BF81248123
:100CC000358146815781281739074A075B0718F491
:100CD000112341F00AC082179307A407B50740F417
:100CE000112319F061E070E005C06FEF7FEF02C0E3
:100CF00060E070E0CB01DF91CF911F910895AA1BB6
:100D0000BB1B51E107C0AA1FBB1FA617B70710F0F6
:100D1000A61BB70B881F991F5A95A9F78095909528
:100D2000BC01CD0108952F923F924F925F926F9236
:100D30007F928F929F92AF92BF92CF92DF92EF926B
:100D4000FF920F931F93CF93DF93CDB7DEB7CA1BEC
:100D5000DB0B0FB6F894DEBF0FBECDBF09942A8817
:100D6000398848885F846E847D848C849B84AA84BF
:100D7000B984C884DF80EE80FD800C811B81AA814C
:100D8000B981CE0FD11D0FB6F894DEBF0FBECDBF17
:080D9000ED010895F894FFCF76
:100D98003F0C5B5E6C76771C7F7E000000000000D5
:100DA8000000000102020303030304040404040412
:100DB80004040505050505050505050505050505DD
:100DC80005050606060606060606060606060606BD
:100DD80006060606060606060606060606060606AB
:100DE800060607070707070707070707070707078D
:100DF800070707070707070707070707070707077B
:100E0800070707070707070707070707070707076A
:100E1800070707070707070707070707070707075A
:100E2800070708080808080808080808080808083C
:100E3800080808080808080808080808080808082A
:100E4800080808080808080808080808080808081A
:100E5800080808080808080808080808080808080A
:100E680008080808080808080808080808080808FA
:100E780008080808080808080808080808080808EA
:100E880008080808080808080808080808080808DA
:100E980008080808080808080808080808080808CA
:020EA800080838
:00000001FF
