:1000000026C03FC03DC03CC03BC03AC039C038C02C
:1000100037C036C035C034C033C0E9C031C030C08D
:100020002FC02EC02DC028007D1F0D3D6F477B17B0
:10003000303C570E55151D67F3055B0F1C1C5C37D4
:100040003B6D44007E306D79335B5F707F731124AC
:100050001FBECFEDCDBF10E0A0E6B0E0E0E4F7E0DA
:1000600003C0C89531960D92AA36B107D1F710E0BA
:10007000AAE6B0E001C01D92AA37B107E1F7DCC1E2
:10008000BFCF1F920F920FB60F9211242F933F9361
:100090004F935F936F937F938F939F93AF93BF9390
:1000A000EF93FF931BBE10926D0010926E001092A2
:1000B0006F00109270008091770090917800829983
:1000C00004C08AE0DBD2829BFCCFFF91EF91BF910D
:1000D000AF919F918F917F916F915F914F913F91E0
:1000E0002F910F900FBE0F901F901895E82F8A3018
:1000F00030F4FF27EC5BFF4FC895802D0CC0815674
:100100008A3130F4FF27E953F040C895802D03C0B1
:1001100080E090E00895992740E050E027E030E04B
:1001200080FF02C04F5F5F4F95958795215030400B
:1001300037FFF6CF842F99270895282F332720FFE4
:1001400002C0919A01C0919821FF02C0C69A01C0D5
:10015000C69822FF02C0C39A01C0C39823FF02C001
:10016000C09A01C0C09824FF02C0C29A01C0C298C0
:1001700025FF02C0C49A01C0C49826FF02C0C59AD8
:1001800001C0C59887FF02C0969A08959698089571
:10019000CF93C82FC19A909A949AC79A6A3038F42C
:1001A000E62FFF27EC5BFF4FC895802D0EC0862FF2
:1001B00081568A3138F4E62FFF27E953F040C8957D
:1001C000802D03C0603211F480E0B7DFCC2311F43E
:1001D000C1980BC0C13011F4909807C0C23011F41F
:1001E000949803C0C33009F4C798CF9108951F9223
:1001F0000F920FB60F9211242F933F934F935F935B
:100200006F937F938F939F93AF93BF93CF93EF930E
:10021000FF9380917700909178008F5F9F4F49F016
:100220008091770090917800019690937800809368
:10023000770080916A0090916B008F5F9F4FA1F1D2
:1002400080916A0090916B00019690936B0080936F
:100250006A0080916A0090916B008C52914020F16D
:1002600010926B0010926A0080916C008F5F8093F7
:100270006C0080916C00282F3327E0916800F0918A
:100280006900AE2FBF2F0D900020E9F71197AE1B2C
:10029000BF0B8A2F9B2F03968217930728F4809118
:1002A0006C008A1B80936C00C89B2BC080916D00F2
:1002B00090916E00A0916F00B0917000805E9349A4
:1002C000A440B040A0F480916D0090916E00A09188
:1002D0006F00B09170000196A11DB11D80936D005B
:1002E00090936E00A0936F00B09370000AC063E615
:1002F00089E04EDF85B7806785BF80E48BBF789447
:100300008895C99B2FC08091720090917300885E80
:10031000934040F58091720090917300843691056E
:1003200030F08091720090917300BBD101C080E2E7
:100330008093790080917200909173000A9730F059
:100340008091720090917300B7D101C080E28093D8
:10035000740080917200909173006AE070E0BCD1EB
:100360008093750080917600815080937600909103
:100370007600992309F04EC0809171008F5F8093C1
:10038000710080917100833010F090937100C091E2
:100390007100CC2399F480917900A8DE882329F498
:1003A000C19A81E08093710009C0609179008C2F1F
:1003B000EFDE809179009ADE80937600C091710023
:1003C000C13099F48091740091DE882329F4909AC9
:1003D00082E08093710009C0609174008C2FD8DE98
:1003E0008091740083DE80937600C0917100C230EA
:1003F00089F4809175007ADE882319F4949A81E05B
:1004000007C0609175008C2FC3DE809175006EDE91
:1004100080937600FF91EF91CF91BF91AF919F9123
:100420008F917F916F915F914F913F912F910F909D
:100430000FBE0F901F901895CFEDD0E0DEBFCDBF5F
:10044000EE248FEF87BB81BBEABA8FE08BBBEBBE9C
:100450008A98929AA0E0B0E055D1F0937300E093AF
:10046000720082E080BF83BF8FE386BF81E089BFD7
:1004700078948FEF9FEF9093780080937700C1E09E
:10048000FC2E80B39927282F392F2470307082FDDD
:100490001EC0C130E1F410926D0010926E001092F7
:1004A0006F00109270003093780020937700809155
:1004B0007700909178000A9714F4829BF8CF80918E
:1004C0007700909178000A970CF0C0E0EE24829BB0
:1004D0001EC0CC23E1F410926D0010926E001092B9
:1004E0006F00109270001092780010927700809147
:1004F0007700909178000A9714F48299F8CF809150
:100500007700909178000A9724F0C1E01BC0CC23BB
:10051000C9F4FF248091770090917800885B9B401C
:100520000CF43DC01092730010927200A0E0B0E095
:100530008091720090917300082E192EE8D071E01E
:10054000E72E2DC0FF2059F5EE2049F5FC2E009135
:100550007200109173000F5F1F4F89EE93E090932C
:1005600073008093720084E68093790085E780931E
:10057000740087E6809375008AEF80D08AEF7ED082
:100580008AEF7CD01093730000937200A0E0B0E07B
:100590008091720090917300082E192EB8D080912E
:1005A000720090917300885E934010F4C99969CFEE
:1005B0008091720090917300885E934011F41092C4
:1005C0006C0080916C002091680030916900F32FDD
:1005D000E22F01900020E9F73197E21BF30B9927F6
:1005E0006E2F7F2F79D0F92FE82FE20FF31F808134
:1005F0008093790080916C009927F32FE22F01906E
:100600000020E9F73197E21BF30B01966E2F7F2F45
:1006100063D0F92FE82FE20FF31F808180937400DD
:1006200080916C009927F32FE22F01900020E9F7C9
:100630003197E21BF30B02966E2F7F2F4DD0280FC0
:10064000391FF32FE22F8081809375008091720013
:1006500090917300885E934011F484E60FD089EE88
:1006600093E0909373008093720010926D0010924B
:100670006E0010926F001092700003CF2DE730E0F3
:10068000E22FF32F3197F1F7A8958A95C9F70895CE
:100690008436910518F083E090E0089582E090E0C0
:1006A000089520E08436910520F0845690402F5F15
:1006B000F9CF822F9927089520E08436910518F00C
:1006C00084569040FACF8A30910518F00A972F5F30
:1006D000FACF822F99270895AA1BBB1B51E107C0AF
:1006E000AA1FBB1FA617B70710F0A61BB70B881FC2
:1006F000991F5A95A9F780959095682F792F8A2F81
:100700009B2F089509D0E02D07D0F02D08950CD02F
:10071000012C0AD011240895E199FECFBFBBAEBBD6
:10072000E09A11960DB20895E199FECFBFBBAEBB22
:100730000DBA11960FB6F894E29AE19A0FBE089599
:0A0740002020206469676700600054
:00000001FF
