:100000000C9434000C9451000C9451000C94510049
:100010000C9451000C9451000C9451000C9451001C
:100020000C9451000C9451000C9451000C9451000C
:100030000C9451000C9451000C9451000C945100FC
:100040000C9451000C94D6030C9451000C94510064
:100050000C9451000C9451000C9451000C945100DC
:100060000C9451000C94510011241FBECFEFD8E026
:10007000DEBFCDBF11E0A0E0B1E0EEEDF8E002C0E0
:1000800005900D92AA34B107D9F711E0AAE4B1E0C6
:1000900001C01D92A535B107E1F70E94E0030C9461
:1000A0006D040C9400005E9A00C05E9808951F9342
:1000B000CF93DF931F92CDB7DEB7662311F05C9A22
:1000C00001C05C985D989AB19F609AB91BB1107F8E
:1000D000982F92959F70912B9BB989830E94530012
:1000E00089818F70812B8BB90E9453001F601BB9CF
:1000F0000F90DF91CF911F9108955C985D9A8AB11E
:10010000807F8AB95E9A00C089B15E9800C05E9A0D
:1001100000C099B15E989F708295807F892B089569
:100120000E947D0087FDFCCF84E090E00197F1F70D
:100130000C947D00CF93C82F0E94900060E08C2F1C
:10014000CF910C945700CF93C82F0E94900061E08C
:100150008C2FCF910C945700611102C0805801C0C0
:1001600080540C949A000E94900090E0089581E0E1
:100170000C949A0082E00C949A00CF93C82F0E94AE
:100180009000CA3049F4803410F480E401C080E06B
:100190008058CF910C949A0061E08C2FCF910C94F1
:1001A0005700CF93DF93EC0102C00E94BD008991FC
:1001B0008111FBCFDF91CF910895CF93DF93EC01B5
:1001C00002C00E94BD00FE01219684918111F9CFE9
:1001D000DF91CF9108951F93CF93DF93182F9AB19A
:1001E0009F679AB9E0E0FDE73197F1F7599A589A7D
:1001F0000E945300E0E0F7E23197F1F70E945300CC
:10020000C0E8D0E0FE013197F1F70E945300FE01F3
:100210003197F1F758980E9453002197F1F788E23F
:100220000E949A0088E00E949A000E94B70086E02F
:100230000E949A00812FDF91CF911F910C949A0018
:1002400005C022E02A95F1F700C001970097C9F791
:10025000089507C0EFECF7E03197F1F700C0000018
:1002600001970097B9F708950E94B70087E191E0E0
:100270000E94D100229A2A9A209A289884B18862F2
:1002800084B9249882E58CBD88EC90E00E9420011E
:100290002A988FEF8EBD04C085E090E00E94200177
:1002A0000DB407FEF9CF8AE090E00E9420018EB5E0
:1002B00080934A012A9A181654F00E94B70088E2E7
:1002C00091E00E94D10080ED97E00C94290181E03B
:1002D00090E00E9420012A9883E28EBD04C085E050
:1002E00090E00E9420010DB407FEF9CF8AE090E073
:1002F0000E94200183E08EBD04C085E090E00E9452
:1003000020010DB407FEF9CF8AE090E00E942001A1
:100310002A9A81E090E00E9420012A9880E38EBD15
:1003200004C085E090E00E9420010DB407FEF9CFE3
:100330008AE090E00E9420018AEA8EBD04C085E038
:1003400090E00E9420010DB407FEF9CF8AE090E012
:100350000E94200182E28EBD04C085E090E00E94F0
:1003600020010DB407FEF9CF8AE090E00E94200141
:1003700084E48EBD04C085E090E00E9420010DB4AD
:1003800007FEF9CF8AE090E00E9420011EBC04C065
:1003900085E090E00E9420010DB407FEF9CF8AE0CD
:1003A00090E00E94200181E18EBD04C085E090E0D4
:1003B0000E9420010DB407FEF9CF8AE090E00E9470
:1003C00020012A9A81E090E00E9420012A988AE286
:1003D0008EBD04C085E090E00E9420010DB407FEB0
:1003E000F9CF8AE090E00E9420018AEA8EBD04C025
:1003F00085E090E00E9420010DB407FEF9CF8AE06D
:1004000090E00E94200182E28EBD04C085E090E071
:100410000E9420010DB407FEF9CF8AE090E00E940F
:10042000200184E48EBD04C085E090E00E9420019C
:100430000DB407FEF9CF8AE090E00E9420011EBCB7
:1004400004C085E090E00E9420010DB407FEF9CFC2
:100450008AE090E00E94200181E18EBD04C085E029
:1004600090E00E9420010DB407FEF9CF8AE090E0F1
:100470000E9420012A9A81E090E00E9420012A989F
:1004800081E38EBD04C085E090E00E9420010DB4A0
:1004900007FEF9CF8AE090E00E94200182E08EBD45
:1004A00004C085E090E00E9420010DB407FEF9CF62
:1004B0008AE090E00E9420012A9A8AE090E00E945F
:1004C00020012A9882E28EBD04C085E090E00E945F
:1004D00020010DB407FEF9CF8AE090E00E942001D0
:1004E00081E08EBD04C085E090E00E9420010DB443
:1004F00007FEF9CF8AE090E00E9420012A9A81E06D
:1005000090E00E9420012A9885E28EBD04C085E01B
:1005100090E00E9420010DB407FEF9CF8AE090E040
:100520000E94200188E18EBD04C085E090E00E9419
:1005300020010DB407FEF9CF8AE090E00E9420016F
:100540002A9A81E090E00E9420012A9886E28EBDDE
:1005500004C085E090E00E9420010DB407FEF9CFB1
:100560008AE090E00E94200187E08EBD04C085E013
:1005700090E00E9420010DB407FEF9CF8AE090E0E0
:100580000E9420012A9A81E090E00E9420012A988E
:1005900081E28EBD04C085E090E00E9420010DB490
:1005A00007FEF9CF8AE090E00E94200181E08EBD35
:1005B00004C085E090E00E9420010DB407FEF9CF51
:1005C0008AE090E00E9420012A9A81E090E00E9457
:1005D00020012A9880E28EBD04C085E090E00E9450
:1005E00020010DB407FEF9CF8AE090E00E942001BF
:1005F0008BE78EBD04C085E090E00E9420010DB421
:1006000007FEF9CF8AE090E00E9420012A9A81E05B
:1006100090E00E9420012A9881EE8EBD04C085E002
:1006200090E00E9420010DB407FEF9CF8AE090E02F
:100630000E9420012A9A81E090E00E9420012A98DD
:1006400082EE8EBD04C085E090E00E9420010DB4D2
:1006500007FEF9CF8AE090E00E9420012A9A8AE002
:1006600090E00E9420010E94B70088E391E00C9482
:10067000D1000895CF93DF932A988FEF8EBD04C0E9
:1006800085E090E00E9420010DB407FEF9CF8AE0DA
:1006900090E00E9420018EB580934A012A9A86FF3D
:1006A0007FC081E090E00E9420012A9881E68EBD03
:1006B00004C085E090E00E9420010DB407FEF9CF50
:1006C0008AE090E00E9420011EBC04C085E090E01A
:1006D0000E9420010DB407FEF9CF8AE090E00E944D
:1006E0002001CEB5D0E01EBC04C085E090E00E94A1
:1006F00020010DB407FEF9CF8AE090E00E942001AE
:100700002EB5922F80E0C82BD92B2A9A81E090E059
:100710000E9420012A9887E18EBD04C085E090E008
:100720000E9420010DB407FEF9CF8AE090E00E94FC
:1007300020018EB580934A011EBC04C085E090E084
:100740000E9420010DB407FEF9CF8AE090E00E94DC
:1007500020012A9A0EB400FE25C081E090E00E949C
:1007600020012A9887E28EBD04C085E090E00E94B7
:1007700020010DB407FEF9CF8AE090E00E9420012D
:1007800080E48EBD04C085E090E00E9420010DB49D
:1007900007FEF9CF8AE090E00E9420012A9A02C069
:1007A000C0E0D0E0CE01DF91CF9108951F920F926B
:1007B0000FB60F9211240F900FBE0F901F90189537
:1007C0008FE78AB98CE00E94EB000E94B70080E0BE
:1007D00091E00E94D10084E690E00E9429010E94ED
:1007E0003401289A88EE93E00E942901C0E0D0E00D
:1007F00000E010E00E943A03009711F4219603C034
:100800008C01C0E0D0E00E94B70083E191E00E943B
:10081000D10040E150E06EE471E0C8010E9428047C
:100820008EE491E00E94D10081E191E00E94D1002C
:100830004AE050E06EE471E0CE010E9428048EE4AC
:1008400091E00E94D10084EF91E00E942901D2CF73
:10085000FB019F01E8944230C4F04532B4F44A30C1
:1008600029F497FB1EF4909581959F4F642F77276D
:100870000E945904805D8A330CF0895D8193CB011D
:100880000097A1F716F45DE251931082C9010C9410
:100890004904DC01FC01672F71917723E1F732975E
:1008A00004C07C916D9370836291AE17BF07C8F34B
:1008B0000895AA1BBB1B51E107C0AA1FBB1FA617A7
:1008C000B70710F0A61BB70B881F991F5A95A9F7F9
:0E08D00080959095BC01CD010895F894FFCF5E
:1008DE00424F4F54494E470A574952454C45535380
:1008EE00000A4D503A200053657475702072756E73
:1008FE006E696E672E2E2E006E6F206E524620642D
:10090E006574656374656400536574757020636FF8
:0A091E006D706C6574652E200000FA
:00000001FF
