:100000009BC00000B4C00000B2C00000B0C000003F
:10001000AEC00000ACC00000AAC00000A8C0000034
:10002000A6C00000A4C0000008C20000A0C00000DC
:100030009EC000009CC000009AC0000098C0000054
:1000400096C0000094C0000092C0000090C0000064
:100050008EC000008CC000008AC0000088C0000074
:1000600086C0000084C0000082C0000080C0000084
:100070007EC000007CC000007AC0000078C0000094
:1000800076C0000074C0000072C0000070C00000A4
:100090006EC000006CC000006AC0000068C00000B4
:1000A00066C0000064C0000062C000001C034C0079
:1000B000550046004100200043004400430020005A
:1000C000440065006D006F000000180344006500E7
:1000D00061006E002000430061006D006500720049
:1000E000610000000403090409023E00020100C08F
:1000F000320904000001020201000524001001047D
:100100002402060524060001070582030800FF09F2
:10011000040100020A0000000705040210000107A4
:100120000583021000011201100102000008EB0318
:10013000442001000102DC0111241FBECFEFDAE0F0
:10014000DEBFCDBF11E0A0E0B1E0E8E5FEE002C017
:1001500005900D92AE31B107D9F711E0AEE1B1E0F3
:1001600001C01D92AA33B107E1F734D073C648CF5E
:100170009BB19F70982B9BB9089584B7877F84BFEC
:1001800088E10FB6F89480936000109260000FBE73
:1001900090E080E80FB6F89480936100909361003E
:1001A0000FBE84B18F7184B98DB18F7C8DB985B14B
:1001B000806E85B98EB180638EB98AB1806F8AB93D
:1001C0008BB18F708BB921C183B18CB181E08093E9
:1001D0002C010895D2DF86E091E06EE171E0E8D570
:1001E00080E1C6DF7894F0DF86E091E09AD586E082
:1001F00091E087D513D480E091E06EE171E0ECD519
:10020000F2CF80EAB5CF80E1B3CF86E091E0C0D4F1
:10021000882311F080E601C080E9AACF86E091E052
:1002200010C4923029F0933041F09130E9F417C0B6
:100230008EE390E0E8EEF0E01BC0813041F08130C9
:1002400018F0823089F406C0E4EEF0E005C0EAEC74
:10025000F0E002C0ECEAF0E0849190E009C082E1B5
:1002600090E0E6E2F1E004C080E090E0E0E0F0E061
:10027000DA011196FC93EE930895982F2AC090937B
:10028000E900981739F07091EC002091ED00509141
:10029000F00003C0242F762F50E021FF19C03091C9
:1002A000EB003E7F3093EB003091ED003D7F3093CB
:1002B000ED003091EB0031603093EB007093EC0077
:1002C0002093ED005093F0002091EE0027FF07C02F
:1002D0009F5F9730A0F28093E90081E0089580E06D
:1002E00008958091320187FF13C004C080913101CD
:1002F0008823B9F08091E80082FFF8CF8091E80070
:100300008B778093E800089580913101882349F02C
:100310008091E80080FFF8CF8091E8008E7780938D
:10032000E80008958091E4009091E50045E601C061
:10033000C9012091EC0020FF23C02091E80020FD9E
:1003400015C020913101222399F0253099F0209198
:10035000EB0025FD11C02091E4003091E500281745
:10036000390739F3415021F784E0089580E008957A
:1003700082E0089583E0089581E0089580E0089583
:100380002091E80022FFDDCFF9CF0F931F93CF9389
:10039000DF9346D04DD0C8EDD0E088818F77888339
:1003A00088818068888388818F7D888319BC1092BA
:1003B000310110922D0110922F0110922E0100EEAA
:1003C00010E0F80180818B7F808388818160888341
:1003D00080E060E042E051DFE1EEF0E080818E7F7E
:1003E0008083E2EEF0E0808181608083808188609C
:1003F0008083F80180818E7F8083888180618883FB
:10040000DF91CF911F910F910895E7EDF0E080818A
:100410008160808384E082BF81E080933001B5CF2A
:10042000E8EDF0E080818E7F80831092E2000895F5
:100430001092DA001092E10008951F920F920FB609
:100440000F9211242F933F934F935F936F937F935A
:100450008F939F93AF93BF93EF93FF938091E100AE
:1004600082FF0AC08091E20082FF06C08091E10015
:100470008B7F8093E100D1D28091DA0080FF1DC094
:100480008091D80080FF19C08091DA008E7F809320
:10049000DA008091D90080FF0CC080E189BD82E143
:1004A00089BD09B400FEFDCF81E080933101A9DE52
:1004B00004C019BC10923101A6DE8091E10080FFDA
:1004C00018C08091E20080FF14C08091E2008E7F0E
:1004D0008093E2008091E20080618093E20080914D
:1004E000D80080628093D80019BC85E080933101E8
:1004F00094D28091E10084FF2DC08091E20084FFBE
:1005000029C080E189BD82E189BD09B400FEFDCF2B
:100510008091D8008F7D8093D8008091E1008F7EFC
:100520008093E1008091E2008F7E8093E2008091D1
:10053000E20081608093E20080912D01882321F404
:100540008091E30087FF02C084E001C081E08093D6
:10055000310163D28091E10083FF22C08091E200EB
:1005600083FF1EC08091E100877F8093E10082E0DD
:100570008093310110922D018091E1008E7F809354
:10058000E1008091E2008E7F8093E2008091E200A2
:1005900080618093E20080E060E042E06EDE3DD268
:1005A000FF91EF91BF91AF919F918F917F916F914B
:1005B0005F914F913F912F910F900FBE0F901F9021
:1005C000189540913801509139014617570720F48A
:1005D000BA01FC0140E03CC061157105D1F74091C2
:1005E000E8004E774093E800F4CF809131018823F2
:1005F00009F444C08530F1F18091E80083FD3CC0EE
:100600008091E80082FD30C08091E80080FF20C02A
:100610009091F3008091F200392F20E090E0822B3E
:10062000932B06C041914093F100615070400196B8
:100630006115710519F088309105A0F341E088300B
:10064000910509F040E08091E8008E778093E80002
:100650006115710551F6442341F606C080913101C0
:10066000882361F0853061F08091E80082FFF6CF49
:1006700080E0089583E0089581E0089582E0089580
:1006800083E008954091380150913901461757078A
:1006900020F4BA01FC0140E03EC061157105D1F7BC
:1006A0004091E8004E774093E800F4CF809131010B
:1006B000882309F446C0853009F43FC08091E800E2
:1006C00083FD3DC08091E80082FD31C08091E8004B
:1006D00080FF21C09091F3008091F200392F20E03B
:1006E00090E0822B932B07C044914093F100319608
:1006F0006150704001966115710519F088309105BF
:1007000098F341E08830910509F040E08091E800DD
:100710008E778093E8006115710541F6442331F628
:1007200006C080913101882361F0853061F08091AD
:10073000E80082FFF6CF80E0089583E0089581E02D
:10074000089582E0089583E008950F931F93CF9357
:10075000DF93CDB7DEB7AC970FB6F894DEBF0FBE10
:10076000CDBF88E0E2E3F1E09091F10091938150F8
:10077000D9F754DD8091E80083FF36C180913201C2
:1007800020913301253009F484C0263040F4213013
:10079000A1F1213070F0233009F026C12EC028309D
:1007A00009F4F4C0293009F403C1263009F01CC152
:1007B00094C0803821F0823809F016C108C08091B9
:1007C0002E0190912F01992371F082600CC08091CD
:1007D00036018F708093E9009091EB0081E095FFE6
:1007E00080E01092E9009091E800977F9093E800F4
:1007F0008093F1001092F100D4C0882319F0823068
:1008000009F0F2C090E08F719070009729F082306B
:10081000910509F0E9C00BC080913401813009F0E5
:10082000E3C0233009F080E080932F012CC0809139
:100830003401882341F5209136012F7009F4D4C08A
:100840002093E9008091EB0080FF1DC0809133016F
:10085000833021F48091EB00806213C08091EB0023
:1008600080618093EB0081E090E002C0880F991FC7
:100870002A95E2F78093EA001092EA008091EB005B
:1008800088608093EB001092E9008091E800877FF8
:100890008BC0882309F0A8C0109134011F770FB7CF
:1008A000F8948091E800877F8093E8001ADD8091BA
:1008B000E80080FFFCCF8091E3008078812B80935B
:1008C000E30080688093E300112311F083E001C00E
:1008D00082E0809331010FBF87C08058823008F0DA
:1008E00083C0809134019091350123E08C3D9207C3
:1008F000A9F583E08C838AE28B835FB7F894DE01ED
:10090000139680E090E04EE061E2E42FF0E0609327
:100910005700E49180FF03C0E295EF704F5FEF70E6
:100920002E2F30E0EA3018F0295C3F4F02C0205DE6
:100930003F4F13963C932E93129701961296843153
:10094000910519F75FBF8091E800877F8093E800E9
:10095000CE0103966AE270E034DE12C06091360187
:10096000AE014F5F5F4F5DDCBC01009709F43CC0F6
:100970008091E800877F8093E80089819A8182DEF8
:100980008091E8008B778093E8002EC0803861F575
:100990008091E800877F8093E80080912D0180930B
:1009A000F1008091E8008E778093E8009ADC1CC00B
:1009B0008823D1F4909134019230B0F48091E80012
:1009C000877F8093E80090932D018BDC80912D012F
:1009D000882321F48091E30087FF02C084E001C0F6
:1009E00081E08093310111DC8091E80083FF0AC02F
:1009F0008091EB0080628093EB008091E800877F1C
:100A00008093E800AC960FB6F894DEBF0FBECDBF62
:100A1000DF91CF911F910F91089508951F938091B9
:100A20003101882361F01091E9001F701092E900F4
:100A30008091E80083FF01C088DE1093E9001F91D8
:100A40000895CF93DF93EC018091E80083FF9DC070
:100A5000888190E0209136013091370128173907BD
:100A600009F093C080913301813269F0823220F421
:100A7000803209F08AC03CC0823209F465C08332FA
:100A800009F083C074C080913201813A09F07DC0C1
:100A90008091E800877F8093E8008091E80080FFE4
:100AA000FCCF89899A89AB89BC898093F100492F51
:100AB0005A2F6B2F77274093F100AD0166277727D8
:100AC0004093F1008B2F9927AA27BB278093F10031
:100AD0008D898093F1008E898093F1008F898093B6
:100AE000F1008091E8008E778093E800FADB4DC03A
:100AF00080913201813209F048C08091E800877FFF
:100B00008093E8008091E80082FFFCCF3091F100F3
:100B10002091F1009091F1008091F100398B2A8BA6
:100B20009B8B8C8B8091F1008D8B8091F1008E8B53
:100B30008091F1008F8B8091E8008B778093E800A3
:100B4000D0DBCE0148D121C0809132018132E9F45D
:100B50008091E800877F8093E800C3DB80913401B7
:100B6000909135019E878D87CE0135D10EC0809141
:100B70003201813251F48091E800877F8093E80050
:100B8000B0DBCE016091340126D1DF91CF91089581
:100B90001F93CF93DF93EC010D96FC018BE0DF01F7
:100BA0001D928A95E9F711E08981181729F4EA81E5
:100BB000FB819C8120E807C08D81181731F4EE81FC
:100BC000FF81988520E082E008C08985181739F5F3
:100BD000EA85FB859C8520E883E0992311F044E0B9
:100BE00001C040E090E066E0880F991F6A95E1F748
:100BF00061E0222309F460E0682B28E030E080E027
:100C000003C08F5F220F331F2E173F07D0F34260C0
:100C10008295807F482B812F30DB882329F01F5F4E
:100C2000173011F681E001C080E0DF91CF911F9174
:100C300008951F93FC01162F809131018430E1F457
:100C4000418952896389748941155105610571058E
:100C500099F081818093E9008091E80085FD08C0CA
:100C60008091E8008E778093E8005CDB882329F48C
:100C70001093F10080E001C082E01F910895282FB9
:100C8000FB0184859585622FD4DF882319F08FEFCF
:100C90009FEF089580E090E00895FC01809131017C
:100CA000843049F541895289638974894115510518
:100CB0006105710501F181818093E9009091F30054
:100CC0008091F200392F20E090E0822B932B009747
:100CD000A1F09091E8008091E8008E778093E80081
:100CE00095FD0DC01FDB882359F49091E8009E7795
:100CF0009093E800089582E0089580E0089580E0F0
:100D0000089520913101243059F4FC014189528920
:100D100063897489411551056105710509F0BDCFDD
:100D20000895FC0180913101843099F541895289FF
:100D300063897489411551056105710551F18581FA
:100D40008093E9008091E80082FF26C09091F30033
:100D50008091F200392F20E090E0822B932B0097B6
:100D600021F08091F10090E002C08FEF9FEF309171
:100D7000F3002091F200532F40E030E0242B352B7C
:100D80002115310559F42091E8002B772093E800D4
:100D900008958FEF9FEF08958FEF9FEF0895FC0167
:100DA00084859585BEDF97FF02C08EEF9FEF089583
:100DB000FB012EE0DB011D922A95E9F723E0238356
:100DC0002FE336E0318720872FEC36E03387228708
:100DD0009587848708950895EF92FF920F931F934C
:100DE000CF93DF937C01EB018B8181FF11C000E089
:100DF00010E008C0E885F985BE010995009711F05B
:100E00000FEF1FEFF70181917F01882399F702C04F
:100E10000FEF1FEFC801CDB7DEB7E6E00CC02A88A0
:100E2000398848885F846E847D848C849B84AA84FE
:100E3000B984C884DF80EE80FD800C811B81AA818B
:100E4000B981CE0FD11D0FB6F894DEBF0FBECDBF56
:080E5000ED010895F894FFCFB5
:100E580054657374200000031000000410000002A1
:0E0E6800080000000000000000000000000074
:00000001FF
