:100000000C942A000C9447000C9447000C94470071
:100010000C9447000C9447000C9447000C94470044
:100020000C9467000C9447000C9447000C94470014
:100030000C9447000C9447000C9453000C94470018
:100040000C9447000C9447000C9447000C94470014
:100050000C94470011241FBECFE5D4E0DEBFCDBF16
:1000600010E0A0E6B0E0ECE1F8E002C005900D92EF
:10007000A236B107D9F710E0A2E6B0E001C01D92A8
:10008000A636B107E1F70E949D000C940C040C9475
:1000900000002AEF30E004C0F9013197F1F7019731
:1000A0000097D1F708951F920F920FB60F92112467
:1000B0008F939F9384B195B1909365008093640072
:1000C0009F918F910F900FBE0F901F9018951F92C8
:1000D0000F920FB60F9211242F933F934F935F937C
:1000E0006F937F938F939F93AF93BF93EF93FF9300
:1000F0000E94880280916200882329F0809162002A
:1001000081508093620080916300882329F0809160
:1001100063008F5F80936300FF91EF91BF91AF9178
:100120009F918F917F916F915F914F913F912F910F
:100130000F900FBE0F901F901895EF92FF920F93A4
:100140001F93CF93DF938AE090E02AEF30E0F9012C
:100150003197F1F70197D9F7F89482E088BB0E94B4
:1001600068028FE18ABB8BBB84EF91E02AEF30E01D
:10017000F9013197F1F70197D9F780E18BBB8BE457
:1001800090E02AEF30E0F9013197F1F70197D9F7C4
:1001900088E08BBB8BE490E02AEF30E0F9013197E7
:1001A000F1F70197D9F784E08BBB8BE490E02AEF5D
:1001B00030E0F9013197F1F70197D9F782E08BBB75
:1001C0008BE490E02AEF30E0F9013197F1F70197E5
:1001D000D9F781E08BBB8BE490E02AEF30E0F901A6
:1001E0003197F1F70197D9F784E08EBD89B7846024
:1001F00089BF78940E9488028AEF90E0FC013197D1
:10020000F1F7FC013197F1F7FC013197F1F7FC01AF
:100210003197F1F70197F1F7CAEFD0E011E001E073
:1002200091EEF92E80E1E82EA7C08AE090E0FE0171
:100230003197F1F70197D9F78091640090916500AB
:100240000E94710280936000809160008E3638F4C5
:1002500080916300882329F40093630002C0109208
:100260006300809160008E3608F085C08091630045
:10027000853008F480C080916200882309F07BC03B
:1002800075C01BBB82E390E0FE013197F1F7019747
:10029000D9F71BBA84E690E0FE013197F1F7019798
:1002A000D9F7B19B65C084E690E0FE013197F1F784
:1002B0000197D9F7B19B5CC084E690E0FE013197CD
:1002C000F1F70197D9F7B19B53C084E690E0FE01A6
:1002D0003197F1F70197D9F7B19B4AC084E690E0D6
:1002E000FE013197F1F70197D9F7B19B41C084E640
:1002F00090E0FE013197F1F70197D9F7B19B38C033
:1003000084E690E0FE013197F1F70197D9F7B19BB0
:100310002FC084E690E0FE013197F1F70197D9F7FD
:10032000B19B26C084E690E0FE013197F1F701977A
:10033000D9F7B19B1DC084E690E0FE013197F1F73B
:100340000197D9F7B19B14C084E690E0FE01319784
:10035000F1F70197D9F7B19B0BC084E690E0FE015D
:100360003197F1F70197D9F7B19B02C0B19989CFC5
:10037000F092620001C01BBAB19957CF0E94880267
:100380001BBA03C0CE010197F1F73699FBCF84E188
:1003900090E0FE013197F1F70197D9F78091640061
:1003A000909165000E94710280936000EBBA8BE42B
:1003B00090E0FE013197F1F70197D9F78091600045
:1003C000883708F0DB9A8BE490E0FE013197F1F773
:1003D0000197D9F7809160008B3708F0DA9A8BE4A7
:1003E00090E0FE013197F1F70197D9F78091600015
:1003F0008D3708F0D99A8BE490E0FE013197F1F740
:100400000197D9F78091600087FDD89A84EF91E039
:10041000FE013197F1F70197D9F7B19930C080917A
:1004200060008C3608F0DB9A8BE490E0FE01319797
:10043000F1F70197D9F780916000813708F0DA9AD7
:100440008BE490E0FE013197F1F70197D9F78091A5
:100450006000863708F0D99A8BE490E0FE0131976E
:10046000F1F70197D9F780916000893708F0D89AA1
:1004700084EF91E0FE013197F1F70197D9F78CED08
:1004800095E0FE013197F1F70197D9F7D8988BE401
:1004900090E0FE013197F1F70197D9F7D9988BE4F5
:1004A00090E0FE013197F1F70197D9F7DA988BE4E4
:1004B00090E0FE013197F1F70197D9F7DB988BE4D3
:1004C00090E0FE013197F1F70197D9F7DC9854CF0E
:1004D00087EC87B98BE886B9089586B1877786B9A6
:1004E0000895A0E0B0E0BC01CD010E941B032BE702
:1004F00034E14EE25EE30E94A9032EEA37E449EAC2
:1005000050E40E948A020E94EF02DC01CB010895B0
:10051000369A08955058BB27AA270ED0E0C0D1D0F4
:1005200030F0D6D020F031F49F3F11F41EF4C6C055
:100530000EF4E095E7FBBCC0E92FE2D080F3BA17D8
:10054000620773078407950718F071F49EF5FAC0E7
:100550000EF4E0950B2EBA2FA02D0B01B9019001DE
:100560000C01CA01A0011124FF27591B99F0593F22
:1005700050F4503E68F11A16F040A22F232F342F6A
:100580004427585FF3CF469537952795A795F040B8
:100590005395C9F77EF41F16BA0B620B730B840BCD
:1005A000BAF09150A1F0FF0FBB1F661F771F881F85
:1005B000C2F70EC0BA0F621F731F841F48F48795DD
:1005C00077956795B795F7959E3F08F0B3CF9395CC
:1005D000880F08F09927EE0F97958795089598D082
:1005E00088F09F5790F0B92F9927B751A0F0D1F01C
:1005F000660F771F881F991F1AF0BA95C9F712C0A6
:10060000B13081F09FD0B1E008959CC0672F782F62
:100610008827B85F39F0B93FCCF386957795679511
:10062000B395D9F73EF490958095709561957F4F7D
:100630008F4F9F4F0895E89409C097FB3EF4909523
:100640008095709561957F4F8F4F9F4F9923A9F0AB
:10065000F92F96E9BB279395F6958795779567953A
:10066000B795F111F8CFFAF4BB0F11F460FF1BC07E
:100670006F5F7F4F8F4F9F4F16C0882311F096E911
:1006800011C0772321F09EE8872F762F05C06623BF
:1006900071F096E8862F70E060E02AF09A95660F78
:1006A000771F881FDAF7880F9695879597F9089531
:1006B00097F99F6780E870E060E008959FEF80EC15
:1006C000089500240A9416161706180609060895B8
:1006D00000240A9412161306140605060895092E1E
:1006E0000394000C11F4882352F0BB0F40F4BF2B8D
:1006F00011F460FF04C06F5F7F4F8F4F9F4F0895CD
:1007000057FD9058440F551F59F05F3F71F04795C2
:10071000880F97FB991F61F09F3F79F087950895A7
:10072000121613061406551FF2CF4695F1DF08C0C6
:10073000161617061806991FF1CF869571056105E3
:1007400008940895E894BB2766277727CB0197F98B
:1007500008950BD0C4CFB5DF28F0BADF18F0952389
:1007600009F0A6CFABCF1124EECFCADFA0F3959F3F
:10077000D1F3950F50E0551F629FF001729FBB2788
:10078000F00DB11D639FAA27F00DB11DAA1F649F34
:100790006627B00DA11D661F829F2227B00DA11DE7
:1007A000621F739FB00DA11D621F839FA00D611D6D
:1007B000221F749F3327A00D611D231F849F600D8E
:1007C000211D822F762F6A2F11249F5750408AF0C7
:1007D000E1F088234AF0EE0FFF1FBB1F661F771F53
:1007E000881F91505040A9F79E3F510570F060CF8F
:1007F000AACF5F3FECF3983EDCF38695779567953B
:10080000B795F795E7959F5FC1F7FE2B880F911D70
:0C0810009695879597F90895F894FFCF0E
:02081C0090004A
:00000001FF
