:020000040000FA
:10000000C8020010650100006D0100006F010000D2
:100010007101000073010000750100000000000084
:100020000000000000000000000000007701000058
:1000300079010000000000007B0100007D0100004C
:100040007F0100007F0100007F0100007F010000B0
:100050007F0100007F0100007F0100007F010000A0
:100060007F0100007F010000990500007F01000072
:100070007F0100007F0100007F0100007F01000080
:100080007F0100007F0100007F0100007F01000070
:100090007F0100007F0100007F0100007F01000060
:1000A0007F0100007F0100007F0100007F01000050
:1000B0007F0100007F0100007F0100007F01000040
:1000C0007F01000000F002F800F03CF80AA090E880
:1000D000000C82448344AAF10107DA4501D100F003
:1000E00031F8AFF2090EBAE80F0013F0010F18BF94
:1000F000FB1A43F001031847C0010000E0010000B3
:10010000103A24BF78C878C1FAD8520724BF30C843
:1001100030C144BF04680C60704700000023002415
:1001200000250026103A28BF78C1FBD8520728BF07
:1001300030C148BF0B6070471FB500F0B6F81FBD57
:1001400010B510BD00F075F81146FFF7F5FF00F08F
:1001500027F800F093F803B4FFF7F2FF03BC00F0B8
:100160009DF800000948804709480047FEE7FEE780
:10017000FEE7FEE7FEE7FEE7FEE7FEE7FEE7FEE757
:1001800004480549034A054B70470000410400003C
:10019000C5000000C8000010C8020010C800001010
:1001A00000F04EF9012000F0D2FA08B900BFFEE7D6
:1001B000002403E0002019490855641C202CF9D3C1
:1001C000022017490860002016490860A020134942
:1001D000087001204870552088700120124908607D
:1001E00000F0E5FA002403E000200C490855641CE7
:1001F000202CF9D301200A4908600220094908602F
:10020000A0200649087000204870A12088700020B6
:100210000549086000F0CBFA00BFFEE72800001097
:1002200024000010200000101800001070477047D4
:100230007047754600F028F8AE46050069465346FB
:1002400020F00700854618B020B5FFF799FFBDE8FC
:1002500020404FF000064FF000074FF000084FF02D
:10026000000B21F00701AC46ACE8C009ACE8C009BE
:10027000ACE8C009ACE8C0098D4670470446AFF34E
:1002800000802046FFF767FF0048704768000010B5
:1002900001487047704700BF6C00001001491820EA
:1002A000ABBEFEE726000200704710B5FFF7F0FF77
:1002B0004FF00001016010BD1408000000000010A4
:1002C00028000000000100003C0800002800001089
:1002D000A00200001C01000000000000000000005F
:1002E000000000000000000000000000000000000E
:1002F000000000000000000000000000FFFFFFFF02
:1003000091480068C0F30160032868D18F480068F5
:1003100010F0030006D0012823D002283FD0032884
:100320005CD100E000BF88480068C0F30E0000F117
:1003300001004FEA4000864900FB01F08549D1F8F1
:100340008810C1F3074101F10101B0FBF1F18248CE
:100350000068C0B200F10100B1FBF0F07F49086015
:100360003CE079480068C0F30E0000F101004FEA5C
:1003700040007B4900FB01F07649D1F88810C1F3B9
:10038000074101F10101B0FBF1F173480068C0B20F
:1003900000F10100B1FBF0F0704908601EE06A480E
:1003A0000068C0F30E0000F101004FEA40004FF476
:1003B000FA4100FB01F06749D1F88810C1F3074109
:1003C00001F10101B0FBF1F163480068C0B200F136
:1003D0000100B1FBF0F06149086000BF2FE05B480D
:1003E000006810F0030006D0012810D0022819D0B0
:1003F000032823D100E000BF57480068C0B200F1D5
:1004000001005349B1FBF0F05449086016E052482E
:100410000068C0B200F101005149B1FBF0F04F4952
:1004200008600BE04C480068C0B200F101004FF4D6
:10043000FA41B1FBF0F04949086000BF00BF7047C6
:1004400020204849086000BF4648006810F0400F6F
:10045000FAD00320404908604FF001003D49C1F83F
:100460000C014148414908604FF0AA00404908602A
:100470004FF0550008604FF001003E4908604FF012
:10048000AA003B4908604FF055003249C1F88C0082
:1004900000BF2D48006810F0806FFAD00320354966
:1004A00008604FF0AA002B49C1F88C004FF05500AE
:1004B0002F49086000BF2448006810F0407FFAD040
:1004C00023202D4908604FF0AA002249C1F8AC0052
:1004D0004FF05500294908604FF001002849086095
:1004E0004FF0AA00254908604FF055001949C1F89E
:1004F000AC0000BF2348006810F4806FFAD00320DE
:100500001F4908604FF0AA001249C1F8AC004FF033
:1005100055001A49086000BF1A48006810F4407F6F
:10052000FAD00020184908600A49C1F8AC01174800
:10053000174908604FF000001649086043F23A007E
:10054000044908607047000088C00F400CC10F408C
:1005500000093D0000C00F4004C10F400000001022
:10056000001BB700A0C10F406300050084C00F400E
:100570008CC00F4080C00F40A4C00F40ACC00F40E3
:10058000A0C00F40A8C00F40A8C10F40DE872804BC
:10059000C4C00F40C8C10F4093494968C8B210F0A9
:1005A000070F77D1C1100C2974D2DFE801F0A6063D
:1005B000101E9E3536A7749F7A7B8C4909788A4A2B
:1005C0009160282191610121894A11609AE089494D
:1005D000096819B985498978834A91602821824A36
:1005E00091610221824A11608CE0814909680129E8
:1005F0000ED181490968491C7C4A515C7A4A916054
:100600007D490968491C7C4A11600421784A1160BF
:100610000821754A916175E000BF77490968774AFA
:100620001268914222D074490968491C6F4A515C92
:100630006D4A916070490968491C6F4A1160114602
:1006400009686E4A1268914203D00421684A116019
:100650001CE00521664A116069490968B1B1202191
:10066000614A11600321624A11600FE06449096820
:1006700031B120215C4A116003215D4A116005E01F
:1006800005215B4A11601021574A11600821564A22
:10069000916137E031E00421534A116008219161F2
:1006A00030E000BF50498968CAB256490968C91C80
:1006B0004E4B5A5453490968491C524A116011461D
:1006C00009684F4A1268914203D00421484A1160D8
:1006D00005E000214B4A11600521454A11600421C3
:1006E000414A1160082191610CE000BF08213E4A97
:1006F000916105213E4A116004E000BF08213A4A99
:10070000916100BF00BF7047002100202022364BBE
:100710001A600CE0364A1268012A01D1012007E074
:100720006FF07F42914201D3002001E0491CF1E7C4
:1007300000BF704710202C4908600820886100BF66
:100740002948006810F0100FFAD1012070470146C7
:100750002D48006840F400202C4AC2F8C4002C4800
:10076000406820F070702A4A50601046406840F09F
:10077000A07050604FF06C001B4A90614FF08000F9
:1007800050611061022901D1A020D06000BF0A2071
:100790000122824040094FF0E02303EB8000C0F8C3
:1007A000002100BF4020104A10600120704700B5B2
:1007B00000200F490860134908600F490860FFF7DF
:1007C000A3FF012803D0FFF7B5FF002000BD06E01E
:1007D00007480068052802D1FFF7ACFF00E0F7E703
:1007E00000BF0120F2E7000000C001402800001017
:1007F0000400001018000010140000102400001065
:100800002000001010000010C4C00F4000C00F40B6
:1008100000C0024000E1F5050000000000000000FB
:1008200000000000000000000000000000000000C8
:0C083000000000000000000000000000BC
:04000005000000C532
:00000001FF
