:020000040000FA
:1000000070020010650100006D0100006F0100002A
:100010007101000073010000750100000000000084
:100020000000000000000000000000007701000058
:1000300079010000000000007B0100007D0100004C
:100040007F0100007F0100007F0100007F010000B0
:100050007F0100007F0100007F0100007F010000A0
:100060007F0100007F0100007F0100007F01000090
:100070007F0100007F0100007F0100007F01000080
:100080007F0100007F0100007F0100007F01000070
:100090007F0100007F0100007F0100007F01000060
:1000A0007F0100007F010000150200007F010000B9
:1000B0007F0100007F0100007F0100007F01000040
:1000C0007F01000000F002F800F03CF80AA090E880
:1000D000000C82448344AAF10107DA4501D100F003
:1000E00031F8AFF2090EBAE80F0013F0010F18BF94
:1000F000FB1A43F001031847140500003405000003
:10010000103A24BF78C878C1FAD8520724BF30C843
:1001100030C144BF04680C60704700000023002415
:1001200000250026103A28BF78C1FBD8520728BF07
:1001300030C148BF0B6070471FB500F05FFA1FBDAC
:1001400010B510BD00F028FA1146FFF7F5FF00F0DA
:1001500027F800F0C4F803B4FFF7F2FF03BC00F087
:1001600047FA00000948804709480047FEE7FEE7D4
:10017000FEE7FEE7FEE7FEE7FEE7FEE7FEE7FEE757
:1001800004480549034A054B70470000410400003C
:10019000C500000070000010700200107000001018
:1001A00070B500F04DF9164E164D002403E010C650
:1001B000002001C5641CB4F5806FF8D3002000F066
:1001C00044F81148006848F2010140EA01000F4973
:1001D000C1F8100100BF0E4800680028FBD0084E8F
:1001E000084D002406E002CE04CD914201D000BFAC
:1001F000FEE7641CB4F5806FF5D3002070BD0000ED
:1002000000C00720000008201041005000400050AE
:10021000040000102649486848B126490968491C6D
:10022000244A1160224989680143214A916020498A
:10023000C86848B120490968491C1F4A11601C4917
:10024000096901431A4A1161704701461B48006859
:1002500040F000501A4AC2F8C4004FF00100144A9E
:100260009060106151B91748174A10601748104A3A
:10027000C2F804011648174A106001E000207047D8
:1002800001200B4A106300BF0948006B10F0010FFA
:10029000FAD000BF1A200122824040094FF0E0232B
:1002A00003EB8000C0F8002100BF0120E7E7000059
:1002B000004000500400001008000010C4C00F40AF
:1002C00000C00F4000C0072000410050000008207F
:1002D00000444A8C0C4100507047704770470446F8
:1002E000AFF300802046FFF736FF0000004870475C
:1002F0000C0000107047000000000000FFFFFFFF2F
:1003000091480068C0F30160032868D18F480068F5
:1003100010F0030006D0012823D002283FD0032884
:100320005CD100E000BF88480068C0F30E0000F117
:1003300001004FEA4000864900FB01F08549D1F8F1
:100340008810C1F3074101F10101B0FBF1F18248CE
:100350000068C0B200F10100B1FBF0F07F49086015
:100360003CE079480068C0F30E0000F101004FEA5C
:1003700040007B4900FB01F07649D1F88810C1F3B9
:10038000074101F10101B0FBF1F173480068C0B20F
:1003900000F10100B1FBF0F0704908601EE06A480E
:1003A0000068C0F30E0000F101004FEA40004FF476
:1003B000FA4100FB01F06749D1F88810C1F3074109
:1003C00001F10101B0FBF1F163480068C0B200F136
:1003D0000100B1FBF0F06149086000BF2FE05B480D
:1003E000006810F0030006D0012810D0022819D0B0
:1003F000032823D100E000BF57480068C0B200F1D5
:1004000001005349B1FBF0F05449086016E052482E
:100410000068C0B200F101005149B1FBF0F04F4952
:1004200008600BE04C480068C0B200F101004FF4D6
:10043000FA41B1FBF0F04949086000BF00BF7047C6
:1004400020204849086000BF4648006810F0400F6F
:10045000FAD00320404908604FF001003D49C1F83F
:100460000C014148414908604FF0AA00404908602A
:100470004FF0550008604FF001003E4908604FF012
:10048000AA003B4908604FF055003249C1F88C0082
:1004900000BF2D48006810F0806FFAD00320354966
:1004A00008604FF0AA002B49C1F88C004FF05500AE
:1004B0002F49086000BF2448006810F0407FFAD040
:1004C00023202D4908604FF0AA002249C1F8AC0052
:1004D0004FF05500294908604FF001002849086095
:1004E0004FF0AA00254908604FF055001949C1F89E
:1004F000AC0000BF2348006810F4806FFAD00320DE
:100500001F4908604FF0AA001249C1F8AC004FF033
:1005100055001A49086000BF1A48006810F4407F6F
:10052000FAD00020184908600A49C1F8AC01174800
:10053000174908604FF000001649086043F23A007E
:10054000044908607047000088C00F400CC10F408C
:1005500000093D0000C00F4004C10F400000001022
:10056000001BB700A0C10F406300050084C00F400E
:100570008CC00F4080C00F40A4C00F40ACC00F40E3
:10058000A0C00F40A8C00F40A8C10F40DE872804BC
:10059000C4C00F40C8C10F407546FFF7A7FEAE4666
:1005A00005006946534620F00700854618B020B57F
:1005B000FFF7E6FDBDE820404FF000064FF00007D2
:1005C0004FF000084FF0000B21F00701AC46ACE8FB
:1005D000C009ACE8C009ACE8C009ACE8C0098D4668
:1005E0007047000001487047704700BF10000010BE
:1005F00001491820ABBEFEE72600020010B5FFF748
:10060000F1FF4FF00001016010BD00002C0600005A
:10061000000000100C00000000010000380600007F
:100620000C000010640200001C01000000E1F50550
:080630000000000000000000C2
:04000005000000C532
:00000001FF
