:100000000C94B1000C94CE000C94CE000C94CE0055
:100010000C94CE000C94CE000C94CE000C94CE0028
:100020000C94CE000C94CE000C94CE000C94CE0018
:100030000C94CE000C94CE000C94CE000C94CE0008
:100040000C94CE000C94CE000C94CE000C94CE00F8
:100050000C94CE000C94CE000C94CE000C94CE00E8
:100060000C9474020C94CE0000407A10F35A00A055
:10007000724E18090010A5D4E80000E87648170071
:1000800000E40B54020000CA9A3B000000E1F505B1
:10009000000080969800000040420F000000A086FB
:1000A00001000000102700000000E803000000002D
:1000B0006400000000000A000000000001000000D1
:1000C00000002C76D888DC674F0823DFC1DFAE59EB
:1000D000E1B1B796E5E3E453C63AE651997696E87E
:1000E000E6C28426EB898C9B62ED407C6FFCEFBC02
:1000F0009C9F40F2BAA56FA5F490055A2AF75C932D
:100100006B6CF9676DC11BFCE0E40D47FEF520E662
:10011000B500D0ED902E0300943577050080841E45
:10012000080000204E0A000000C80C333333330FA0
:10013000986E12831141EF8D2114893BE65516CF3D
:10014000FEE6DB18D1844B381BF77C1D901DA4BB49
:10015000E424203284725E228100C9F124ECA1E5FE
:100160003D2711241FBECFEFD8E0DEBFCDBF11E089
:10017000A0E0B1E0EEE5F5E102C005900D92AA34F1
:10018000B107D9F711E0AAE4B1E001C01D92AC3685
:10019000B107E1F70E9467050C94AD0A0C940000CA
:1001A000009711F400C008950197F1F708952B9A74
:1001B00000C02B9808951F93CF93DF930F92CDB774
:1001C000DEB7662311F0299A01C029982A9897B1C1
:1001D0009F6097B918B1107F982F92959F70912BBF
:1001E00098B989830E94D70089818F70812B88B943
:1001F0000E94D7001F6018B90F90DF91CF911F9117
:10020000089529982A9A87B1807F87B92B9A00C0D0
:1002100086B12B9800C02B9A00C096B19F70829532
:10022000807F2B98892B08950E94010187FDFCCFC8
:1002300084E090E00E94D0000E94010108951F9385
:10024000182F0E941401812F60E00E94DB001F9193
:1002500008951F93182F0E941401812F61E00E94BE
:10026000DB001F910895662311F4805801C080546B
:100270000E941F0108950E94140190E0089581E0FA
:100280000E941F01089582E00E941F0108951F939C
:10029000182F0E9414011A3049F4803410F480E4BD
:1002A00001C080E080580E941F0104C0812F61E0DE
:1002B0000E94DB001F910895CF93DF93EC0102C0F1
:1002C0000E94470189918823D9F7DF91CF91089542
:1002D000CF93DF93EC0102C00E944701FE012196FB
:1002E00084918823C9F7DF91CF9108951F93182F28
:1002F00087B18F6087B9219A229A239A80E09DE77F
:100300000E94D000419A409A0E94D70080E097E274
:100310000E94D0000E94D70080E890E00E94D000A8
:100320000E94D70080E890E00E94D00040980E9490
:10033000D70080E890E00E94D00088E20E941F0170
:1003400088E00E941F010E943F0186E00E941F0179
:10035000812F0E941F011F91089532E004C0232FB6
:100360002A95F1F701970097D1F7089520ED37E02E
:1003700004C0F9013197F1F701970097D1F708957B
:10038000EF92FF920F931F93CF93DF938C01EB01BA
:10039000EE24EA942FE7F22E9AC0003811058CF073
:1003A000F0925E0104C088E290E00E94AD0180916D
:1003B00064018823C1F787E10E9453050F5710405D
:1003C00038C02FEF013812078CF4E0925E0104C0B0
:1003D00088E290E00E94AD01809164018823C1F71A
:1003E00087E10E94530501581F4F23C017FF10C01B
:1003F000109501951F4F006800935E0104C088E2CC
:1004000090E00E94AD01809164018823C1F70CC087
:10041000006800935E0104C088E290E00E94AD0194
:10042000809164018823C1F787E10E94530500E0B1
:1004300010E0C038D1058CF0F0925D0104C088E274
:1004400090E00E94AD01809164018823C1F788E1AA
:100450000E945305CF57D0403AC03FEFC138D30771
:100460008CF4E0925D0104C088E290E00E94AD014E
:10047000809164018823C1F788E10E945305C15827
:10048000DF4F25C0D7FF11C0D095C195DF4F9E012A
:10049000206820935D0104C088E290E00E94AD01D5
:1004A000809164018823C1F70DC09E0120682093CC
:1004B0005D0104C088E290E00E94AD01809164017A
:1004C0008823C1F788E10E945305C0E0D0E0011500
:1004D000110519F0209709F060CFDF91CF911F919E
:1004E0000F91FF90EF9008951F920F920FB60F9209
:1004F00011242F933F934F935F936F937F938F9329
:100500009F93AF93BF93EF93FF938091B900887F40
:1005100090916401993109F4EAC09A3160F49731FD
:1005200008F0BAC0953108F098C09130D1F09930F8
:1005300009F09AC23FC0973368F4953308F0ACC015
:100540009A3209F41BC19B3209F480C19D3109F034
:100550008BC2EFC09A3509F418C29F3509F084C2E6
:1005600036C2883069F4809163018823B9F1813003
:1005700011F486E430C0823069F19093600155C275
:10058000803211F0803331F4809163018E5F80936B
:1005900060013AC0883119F49093BB0046C288329A
:1005A00009F065C280916201882309F0DFC0809163
:1005B0005F016CC08830E1F4809161018A35C9F235
:1005C0008B3528F48A32A9F28B3251F403C08F356F
:1005D00039F404C088E48093BB0027C28AE4FBCFCF
:1005E0008CE0809360011092BB00109264011DC2E8
:1005F000803211F0803361F485E080936001809156
:10060000BC008F7D8093BC008091BC00806910C2CB
:10061000883131F489E08093BB001092620197C069
:10062000883209F022C280916201882319F48091F6
:1006300061012CC08091BC0080698093BC00109245
:10064000620188E290E00E94AD0180916101809397
:1006500064018091BC00806AEBC1883009F489CFC5
:10066000803251F2803341F2883109F44BC0883234
:1006700009F0FBC180916201882309F077C09531B0
:1006800019F48091490102C0809148018093BB0018
:1006900081E080936201C9C1883009F49BCF803228
:1006A00069F1803359F1883169F1883209F0DDC18F
:1006B00080916201882351F4973119F480915E0191
:1006C000E5CF983129F780915D01E0CF8091BC00A2
:1006D00080698093BC00109262018091640187312F
:1006E00019F410925E0191C110925D018EC18830A3
:1006F00009F470CF803211F0803311F486E07DCFA1
:10070000883119F49093BB0022C0883209F0ADC142
:1007100080916201882319F480915C01B7CF8091A8
:10072000BC0080698093BC001092620110925C0151
:100730006CC1883009F41DCF803209F45DCF80335D
:1007400009F45ACF883139F48DE18093BB00809150
:10075000BC008F7D68C1883209F087C18091620139
:10076000882321F481E08093BB0093CF8091BC006B
:1007700080698093BC001092620147C1883011F4F7
:1007800087E467C0803409F428C1883411F488E014
:1007900034CF803509F043C080916301823019F174
:1007A000833030F4882351F0813009F0C4C00DC08B
:1007B000833001F1843009F0BEC02AC08091BB00B3
:1007C0001092580180935901A7C02091BB0030E0DE
:1007D0008091580190915901822B932B909359014C
:1007E0008093580199C08091BB001092560180936C
:1007F000570192C02091BB0030E08091560190914A
:100800005701822B932B909357018093560184C0FC
:100810008091BB00109254018093550187C08835A8
:1008200009F025C180916301853071F42091BB00EE
:1008300030E08091540190915501822B932B90933D
:1008400055018093540195C089E091C0883049F4E6
:1008500089E48093BB008091BC0080688093BC00D9
:1008600091C0803409F4B9C0883411F48AE0C5CE4F
:10087000803509F066C080916301833059F184307E
:1008800028F4813091F08230F0F408C08530B9F15D
:10089000853070F1863009F04EC042C08091BB00B7
:1008A000109252018093530137C02091BB0030E079
:1008B0008091520190915301822B932B909353017D
:1008C0008093520129C08091BB0010925001809307
:1008D000510122C02091BB0030E0809150019091E5
:1008E0005101822B932B909351018093500114C09E
:1008F0008091BB0010924E0180934F010DC020915A
:10090000BB0030E080914E0190914F01822B932BE0
:1009100090934F0180934E018091BC00806C09C080
:100920008091BB0010924C0180934D018091BC00DE
:100930008F7B8093BC00809163018F5F8093630104
:1009400074C0883509F093C080916301873071F4D9
:100950002091BB0030E080914C0190914D01822BA1
:10096000932B90934D0180934C0103C08BE08093B7
:1009700060018091BC0080698093BC00109264018A
:10098000109261011092630172C0883011F487E403
:1009900022CE803411F1883459F1803539F48091B8
:1009A000BB0010925A0180935B013AC0883509F070
:1009B0005EC02091BB0030E080915A0190915B01B4
:1009C000822B932B90935B0180935A0143C0883014
:1009D00011F48BE400CE803449F48091BC008F7D0B
:1009E0008093BC008091BC00806C22C0883481F46C
:1009F00087E0809360018091BC008F7D8093BC0074
:100A00008091BC0080698093BC00109264012FC06B
:100A1000803589F48091BB0010924A0180934B018C
:100A20008091BC008F7B8093BC008091BC0080686B
:100A30008093BC001CC08835D1F42091BB0030E00D
:100A400080914A0190914B01822B932B90934B0103
:100A500080934A018091BC0080698093BC00109211
:100A600064011092610103C081E080936001FF91F5
:100A7000EF91BF91AF919F918F917F916F915F9116
:100A80004F913F912F910F900FBE0F901F9018958F
:100A900082E08093B80081E08093B90085E4809380
:100AA000BC00789408951F93182F04C081E090E053
:100AB0000E94B601809164018823C1F710936401FC
:100AC0008091BC00806A8093BC001F910895CF93F1
:100AD000DF9300D0CDB7DEB78EE084B98FE087B961
:100AE000289A8CE00E9476010E943F0180E091E00C
:100AF0000E945C010E94480588EE93E00E94B601C6
:100B000086E9809349010E943F018FE191E00E94B4
:100B10005C0104C081E090E00E94B6011899FACF10
:100B20008AE080935C0189E10E9453058AE5F82EF2
:100B30009FE5E92E0E943F0180916001882381F0AA
:100B40008EE291E00E945C018091600190E065E698
:100B500071E04AE050E00E94010885E691E03EC065
:100B600060915A0170915B0180E090E00E94EF0675
:100B700020E030EC4FE754E40E94870620E030E0AC
:100B800040EA50E40E947D079B01AC010E942306CD
:100B90008C0186E391E069837A830E945C0169811C
:100BA0007A81862F972FA02FB12FBC01CD0144E071
:100BB00022E005E611E00E94E007C8010E945C0106
:100BC00080E491E00E945C0180914A0190914B0188
:100BD000B8014AE050E00E940108C8010E945C018F
:100BE00004C08AE090E00E94B601809161018823F0
:100BF000C1F7809164018823A1F7F092610189E037
:100C00000E94530504C081E090E00E94AD018091F4
:100C100061018823C1F788E290E00E94AD01E09273
:100C2000610189E00E94530504C081E090E00E94C8
:100C3000AD01809164018823C1F784EF91E00E94A7
:100C4000B60178CF5058BB27AA270ED01CC10DD1B2
:100C500030F012D120F031F49F3F11F41EF402C1A4
:100C60000EF4E095E7FBF8C0E92F1ED180F3BA1728
:100C7000620773078407950718F071F49EF536C173
:100C80000EF4E0950B2EBA2FA02D0B01B9019001A7
:100C90000C01CA01A0011124FF27591B99F0593FEB
:100CA00050F4503E68F11A16F040A22F232F342F33
:100CB0004427585FF3CF469537952795A795F04081
:100CC0005395C9F77EF41F16BA0B620B730B840B96
:100CD000BAF09150A1F0FF0FBB1F661F771F881F4E
:100CE000C2F70EC0BA0F621F731F841F48F48795A6
:100CF00077956795B795F7959E3F08F0B3CF939595
:100D0000880F08F09927EE0F9795879508950CD0D6
:100D1000BAC0B2D040F0A9D030F021F45F3F19F052
:100D20009BC05111E4C09EC0BFD098F39923C9F372
:100D30005523B1F3951B550BBB27AA2762177307E1
:100D4000840738F09F5F5F4F220F331F441FAA1F95
:100D5000A9F333D00E2E3AF0E0E830D09150504055
:100D6000E695001CCAF729D0FE2F27D0660F771F03
:100D7000881FBB1F261737074807AB07B0E809F0E5
:100D8000BB0B802DBF01FF2793585F4F2AF09E3F7A
:100D9000510568F061C0ABC05F3FECF3983EDCF3F7
:100DA000869577956795B795F7959F5FC9F7880FF3
:100DB000911D9695879597F90895E1E0660F771F45
:100DC000881FBB1F621773078407BA0720F0621BD6
:100DD000730B840BBA0BEE1F88F7E0950895E89427
:100DE00009C097FB3EF490958095709561957F4F73
:100DF0008F4F9F4F9923A9F0F92F96E9BB27939521
:100E0000F695879577956795B795F111F8CFFAF430
:100E1000BB0F11F460FF1BC06F5F7F4F8F4F9F4F61
:100E200016C0882311F096E911C0772321F09EE8BF
:100E3000872F762F05C0662371F096E8862F70E025
:100E400060E02AF09A95660F771F881FDAF7880FFF
:100E50009695879597F9089597F99F6780E870E0D0
:100E600060E008959FEF80EC089500240A94161620
:100E7000170618060906089500240A941216130688
:100E8000140605060895092E0394000C11F4882316
:100E900052F0BB0F40F4BF2B11F460FF04C06F5F32
:100EA0007F4F8F4F9F4F089557FD9058440F551F08
:100EB00059F05F3F71F04795880F97FB991F61F0DC
:100EC0009F3F79F087950895121613061406551F53
:100ED000F2CF4695F1DF08C0161617061806991FBF
:100EE000F1CF86957105610508940895E894BB27B4
:100EF00066277727CB0197F908950BD0C4CFB5DFCC
:100F000028F0BADF18F0952309F0A6CFABCF112453
:100F1000EECFCADFA0F3959FD1F3950F50E0551F98
:100F2000629FF001729FBB27F00DB11D639FAA273E
:100F3000F00DB11DAA1F649F6627B00DA11D661F8D
:100F4000829F2227B00DA11D621F739FB00DA11DAE
:100F5000621F839FA00D611D221F749F3327A00D68
:100F6000611D231F849F600D211D822F762F6A2F04
:100F700011249F5750408AF0E1F088234AF0EE0F89
:100F8000FF1FBB1F661F771F881F91505040A9F796
:100F90009E3F510570F060CFAACF5F3FECF3983EC3
:100FA000DCF3869577956795B795F795E7959F5FFD
:100FB000C1F7FE2B880F911D9695879597F9089597
:100FC000EF92FF920F931F93E22FF02E47FF02C084
:100FD000F4E101C0F4E0242F332727FD309537FFDB
:100FE00003C0309521953F4F4F2D512F0E2FEF2EDF
:100FF0000E9422088F2D912F1F910F91FF90EF904B
:101000000895FB019F01E8944230C4F04532B4F4E6
:101010004A3029F497FB1EF4909581959F4F642FD9
:1010200077270E94620A805D8A330CF0895D819384
:10103000CB010097A1F716F45DE251931082C9012C
:101040000C94520AA9E0B0E0E8E2F8E00C947A0AC5
:101050006A01122FF02E2BE3201718F0B02EB39454
:1010600002C03CE3B32EAE014F5F5F4F27E00B2D74
:101070000E947A09BC01A981B0E0CD01897090700D
:101080008130910531F0E1FC06C0E0FE06C040E28F
:1010900005C04DE203C04BE201C040E0A3FF36C0F3
:1010A000442311F084E001C083E0811710F4181B81
:1010B00001C010E0E4FC0BC0912FF60180E202C0F9
:1010C000819391509923E1F7C10ED11C10E0442384
:1010D00019F0F60141936F01E2FE05C08EE4F601BE
:1010E000808391E404C08EE6F601808391E69183CB
:1010F000828383E090E0C80ED91E812FF60190E232
:1011000002C0919381508823E1F73AC0A2FF3FC00B
:10111000442311F084E001C083E0811710F4181B10
:1011200001C010E0E4FC0BC0912FF60180E202C088
:10113000819391509923E1F7C10ED11C10E0442313
:1011400019F0F60141936F01E2FE07C089E4F60150
:1011500080838EE4818386E406C089E6F60180837D
:101160008EE6818386E6828383E090E0C80ED91EF6
:10117000812FF60190E202C0919381508823E1F71C
:10118000C10ED11CF60110828EEF9FEFAFC021E09F
:1011900030E0442311F420E030E0161617061CF46A
:1011A000CB01019602C081E090E0280F391FFF209B
:1011B00021F08F2D90E0019602C080E090E0820F38
:1011C000931F212F30E0821793071CF4512F581BD7
:1011D00001C050E08E2D90E09C0120713070E4FC45
:1011E0000DC0E3FC0BC0852FF60190E202C0919385
:1011F00081508823E1F7C50ED11C50E0442319F03B
:10120000F60141936F012115310559F4852FF6013F
:1012100090E302C0919381508823E1F7C50ED11C61
:1012200050E0B60E4A8120E1622E712C6A227B22A8
:10123000A4FF03C0413309F4BA941B142CF48B2D82
:10124000893018F088E001C081E09B0177FF02C07F
:1012500020E030E0A0E0B0E09EE2E92E4B01881AE9
:101260009108CB01821B930B8E010F5F1F4F080F5C
:10127000191F8F2D90E0AA24BB24A81AB90AFFEFEA
:101280002F3F3F0719F4F601E1926F0162177307D0
:1012900044F0821693062CF4F801EA0FFB1F8181BB
:1012A00001C080E32150304011962A153B0524F0FF
:1012B000F60181936F01E3CF2617370741F44633D8
:1012C00028F4453321F46114710409F481E3F60133
:1012D0008193852FDF0190E202C09D938150882386
:1012E000E1F7E50FF11D108280E090E02996EEE035
:1012F0000C94960A283008F027E03327DA01990F7A
:10130000311D87FD916000966105710539F43260E9
:101310002E5F3D9330E32A95E1F708959F3F30F02B
:1013200080387105610509F03C5F3C5F3D93913069
:1013300008F08068911DDF93CF931F930F93FF9266
:10134000EF92192F987F9695E92F96959695E90F2C
:10135000FF27EE53FF4F99273327EE24FF24A701E1
:10136000E70105900894079428F4360FE71EF81E4D
:10137000491F511D660F771F881F991F0694A1F7FB
:101380000590079428F4E70EF81E491F561FC11D4B
:10139000770F881F991F661F0694A1F70590079481
:1013A00028F4F80E491F561FC71FD11D880F991F1B
:1013B000661F771F0694A1F70590079420F4490F44
:1013C000561FC71FD81F990F661F771F881F0694C7
:1013D000A9F784911095177041F0D695C795579548
:1013E0004795F794E7941A95C1F7E8E6F0E068941A
:1013F0001590159135916591959105907FE27395C2
:10140000E118F10A430B560BC90BD009C0F7E10CE8
:10141000F11E431F561FC91FD01D7EF4703311F4F7
:101420008A95E6CFE894015030F0080F0AF40027BF
:10143000021708F4202F2395022F7A3328F079E33E
:101440007D932A95E9F710C07D932A9589F6069435
:1014500097956795379517951794E118F10A430BFF
:10146000560BC90BD00998F023957E9173957A336A
:1014700008F070E37C932013B8F77E9170617D9340
:1014800030F0839571E37D9370E32A95E1F71124A1
:10149000EF90FF900F911F91CF91DF91992787FDDA
:1014A00090950895DC01FC01672F71917723E1F796
:1014B000329704C07C916D9370836291AE17BF0721
:1014C000C8F30895AA1BBB1B51E107C0AA1FBB1F8D
:1014D000A617B70710F0A61BB70B881F991F5A95C0
:1014E000A9F780959095BC01CD0108952F923F9268
:1014F0004F925F926F927F928F929F92AF92BF9224
:10150000CF92DF92EF92FF920F931F93CF93DF93CF
:10151000CDB7DEB7CA1BDB0B0FB6F894DEBF0FBE2C
:10152000CDBF09942A88398848885F846E847D8479
:101530008C849B84AA84B984C884DF80EE80FD807B
:101540000C811B81AA81B981CE0FD11D0FB6F894F1
:0E155000DEBF0FBECDBFED010895F894FFCFB2
:10155E0053595354454D20424F4F54494E470A5705
:10156E00495350204F532056657220302E31005073
:10157E00726573732073746172742E2E2E00455231
:10158E00524F523A2000566F6C746167653A2000D4
:0A159E000A446174613A20006E5F98
:00000001FF
