:020000040000FA
:1000000028030010991F00009D1F00009F1F000083
:10001000A11F0000A31F0000A51F0000000000009A
:10002000000000000000000000000000A71F00000A
:10003000A91F000000000000AB1F0000AD1F000062
:10004000AF1F0000AF1F0000AF1F0000AF1F000078
:10005000AF1F0000AF1F0000AF1F0000AF1F000068
:10006000AF1F0000AF1F0000AF1F0000AF1F000058
:10007000AF1F0000AF1F0000AF1F0000AF1F000048
:10008000AF1F0000AF1F0000AF1F0000AF1F000038
:10009000AF1F0000AF1F0000AF1F0000AF1F000028
:1000A00033170000AF1F0000AF1F0000AF1F00009C
:1000B000AF1F0000AF1F0000AF1F0000AF1F000008
:1000C000AF1F0000AF1F0000AF1F000000F002F8DC
:1000D00000F083F80AA090E8000C82448344AAF15F
:1000E0000107DA4501D100F078F8AFF2090EBAE85D
:1000F0000F0013F0010F18BFFB1A43F0010318475C
:10010000C0350000D0350000103A24BF78C878C14F
:10011000FAD8520724BF30C830C144BF04680C600D
:1001200070476E2901F0F087702902F03981662945
:1001300000F0E280652900F0DF80672900F0DC80B4
:100140006129AFF3008003681B0A28BF41F08001DA
:10015000692901F09F87642901F09C87752901F0C6
:1001600099876F2902F0C480782902F00581E92976
:1001700002F05C80E42902F05980F52902F05680F3
:10018000EF2902F0C180F82902F004810368DB093D
:1001900028BF41F08001632902F08C84732902F0AA
:1001A0009184E32902F09C84F32902F0A1840020C9
:1001B00070471FB503F002FA02F0F4FC04000020BF
:1001C000002103F0E5F9401C60600020002103F0ED
:1001D000C9F9E0601FBD10B510BD02F0B5FC1146B5
:1001E000FFF7E7FF01F0F4FD02F096FD03B4FFF71F
:1001F000F2FF03BC02F0E0FD30B502462E4C24684D
:1002000044F050042C4D2C602C4C2468C4F3811312
:1002100033B1012B08D0022B09D0032B0BD000BF28
:10022000274C2468A0080AE0254C206807E0244CED
:100230002468600803E0224C2468E00800BF00BF87
:100240008324204D2C730409B4FBF2F10C0A2C71A9
:10025000297003242C7307242C7230BD00BF194968
:10026000097D11F0200FFAD016490870704700B5CB
:1002700002460EE010780A2807D112F8010BFFF7AA
:10028000EDFF0D20FFF7EAFF03E012F8010BFFF787
:10029000E5FF10780028EDD100BD0FB408B503A824
:1002A00000900948009A029900F010F80648FFF7FC
:1002B000DEFF01B05DF814FB00C00240A8C10F4092
:1002C0000000001000C00040440000101CB50C46A7
:1002D000064B7B4469460090204601F030FF0446FF
:1002E0000020694601F03EFF20461CBD8F1E000025
:1002F000704770477047704702F09EBAFFFFFFFFDC
:1003000020208449086000BF8248006810F0400F38
:10031000FAD00320804908604FF000007F49C1F8FF
:10032000A8017F4908604FF001007E4908604FF046
:100330000B007D4908604FF00100A1F10401086045
:100340004FF0AA00794908604FF055007349C1F891
:100350008C0000BF7648006810F0806FFAD0032050
:10036000744908604FF0AA006C49C1F88C004FF046
:1003700055006E4908604FF023006F4908604FF048
:100380000100A1F1040108604FF0AA006B49086068
:100390004FF05500086000BF6948006810F4806F96
:1003A000FAD00320674908604FF0AA005B49C1F802
:1003B000AC004FF05500614908606348634908602C
:1003C0004FF000005549C1F8C8010846D0F8880030
:1003D000C0F30160032868D15248006810F00300A0
:1003E00006D0012823D002283FD003285CD100E0AA
:1003F00000BF4F480068C0F30E0000F101004FEA53
:1004000040014648D0F88800C0F3074000F10100E1
:10041000B1FBF0F04E4900FB01F03F490968C9B259
:1004200001F10101B0FBF1F04A4908603CE04048AD
:100430000068C0F30E0000F101004FEA40013748A8
:10044000D0F88800C0F3074000F10100B1FBF0F0E4
:10045000414900FB01F030490968C9B201F10101CD
:10046000B0FBF1F03B4908601EE031480068C0F382
:100470000E0000F101004FEA40012848D0F8880042
:10048000C0F3074000F10100B1FBF0F04FF4FA4176
:1004900000FB01F020490968C9B201F10101B0FB7C
:1004A000F1F02C49086000BF2FE01E48006810F0F2
:1004B000030006D0012810D0022819D0032823D128
:1004C00000E000BF14480068C0B200F101002049FC
:1004D000B1FBF0F01F49086016E00F480068C0B299
:1004E00000F101001C49B1FBF0F01A4908600BE073
:1004F00009480068C0B200F101004FF4FA41B1FBB5
:10050000F0F01449086000BF00BF43F23A0003490D
:1005100008607047A0C10F4004C10F4000C00F40E9
:10052000ACC10F400CC10F4084C00F408CC00F40C5
:1005300088C00F4080C00F40A4C00F40ACC00F4027
:10054000A8C00F40A0C00F40DE872804C4C00F40E1
:1005500000093D0000000010001BB700FF4B5B8A44
:1005600013B1FE4B598A01E0FC4B5969FB4B9B7957
:10057000B1FBF3F240F6F5739A4205D34FF6F573EB
:100580009A4201D2012000E0002070472DE9F0419D
:1005900000270CE007EB4700F14901EBC004002005
:1005A000A080A0602060E060206120757F1C022F89
:1005B000F0DBEC4801210268002000F015FFE9485B
:1005C000006800F5FF7001F0E6F90646A6F52A403E
:1005D000553802D06FF016057FE0E24800680078D9
:1005E000EB2812D0DF4800680078E9280DD0DD48FC
:1005F000006800F5E37001F033FBD8490860086833
:10060000D8490A68012100F0EFFED64800680B3097
:1006100001F0C1F9D1498880D2480068407B8871D7
:10062000D04800680E3001F0B6F9CC49096808449A
:10063000CA498881CB480068007C8873C948006833
:10064000113001F0A8F9C5490882C6480068133086
:1006500001F0A1F9C1494882C2480068203001F088
:10066000FFFABE494861BF480068163001F093F9AF
:10067000BA4908830846808889794843B749886021
:1006800008468089098BB54A927B01FB0200B34979
:10069000086208468088401E098A00EB4110AF4975
:1006A000898890FBF1F0AD49C8610846006AC969C4
:1006B0000844AA494862FFF751FFA84988760846CE
:1006C000807E012801D1002507E06FF014052B463C
:1006D0006322A549A5A0FFF7E0FD2846BDE8F0810B
:1006E00070B506460D469F49E8680A68012100F08A
:1006F0007BFE002416E030782E280BD106E0202067
:1007000029692144974A12685054641C082CF6D376
:10071000761C06E0307829692144924A12685054C8
:10072000761C641C082CE6D3082415E030782E28AB
:100730000AD106E02020296921448A4A12685054CF
:10074000641C0B2CF6D306E0307829692144854AD5
:1007500012685054761C641C0B2CE7D320202969A6
:100760002144804A126850540C2406E00020296974
:1007700021447C4A12685054641C202CF6D37949D9
:10078000E8680A68012100F0B6FE70BD01460878ED
:1007900008B9012070470878E52801D10220F9E75F
:1007A000C87A0F2801D10320F4E70420F2E72DE9ED
:1007B000F04106466948046A24E06A48012102685B
:1007C000204600F011FE6748056813E02846FFF751
:1007D000DDFFC7B2022F07D1F46062480068281A13
:1007E00030610020BDE8F081012F02D16FF01800C8
:1007F000F8E72035594880885A4909680844A842D2
:10080000E4D8641C5548006A5449C9690844A042A8
:10081000D3D86FF01800E5E7024613E010780B78A4
:10082000984209D0137808782030834204D0137896
:1008300008782038834202D1521C491C02E06FF034
:1008400013007047107810B108780028E6D11078AE
:1008500018B9087808B90020F3E76FF01300F0E743
:10086000002201E0401C521C082AFBD3002204E0B5
:1008700003780B70491C401C521C032AF8D3002338
:100880000B70491E02E000230B70491E0B78202BD1
:10089000F9D07047002204E003780B70491C401C1B
:1008A000521C082AF8D300230B70491E02E00023D3
:1008B0000B70491E0B78202BF9D0704778B506468F
:1008C0000C466D4621463046FFF7E4FF2946304688
:1008D000FFF7C6FF00E0641C20780028FBD12878D1
:1008E00010B12E202070641C03E028782070641C56
:1008F0006D1C28780028F8D1207078BD2DE9FF41C3
:1009000080460D461548066A56E0164801210268E1
:10091000304600F069FD1348046845E02046FFF7C3
:1009200035FFC7B2042F37D169462046FFF7C6FF0F
:1009300069464046FFF770FF50BB04F11A0001F012
:100940002AF8A88004F11C0001F08AF92860EE6002
:1009500004480068201A286100201AE07000001086
:10096000980000103C000010CA3500004552524F5C
:10097000523A20496E202573206174204C696E65BF
:10098000202575202D207263203D2025640A00005B
:1009900002E004B0BDE8F081012F04D16FF0130034
:1009A00004B0BDE8F0812034FF488088FF49096821
:1009B0000844A042B2D8761CFB48006AFA49C969CB
:1009C0000844B042A1D86FF01300E9E770B50646BD
:1009D0000D4629463046FFF791FF04460CB92046E4
:1009E00070BD2846FFF7E3FE04460CB12046F7E74A
:1009F00029463046FFF774FE2046F1E72DE9F04125
:100A000080460F4600256E1E00BF701C064600EB98
:100A10004000E74901EBC000007D18B906EB460035
:100A200001EBC0050DB9012EEFDB1DB96FF015000C
:100A3000BDE8F081012F09D129464046FFF75EFF4E
:100A4000044664B901202875741C08E02946404614
:100A5000FFF7BCFF044614B901202875741C20461A
:100A6000E6E72DE9FF4F83B0884616461C464FF057
:100A7000000ACD48416A0398801ECB4A927900FB58
:100A800002100290C8488088B8FBF0F10298084430
:100A90000190C5488088B4FBF0F087B2C2488088D6
:100AA000B8FBF0F100FB1189B9F1000F25D0BF4868
:100AB00001210268019800F097FCBB488088A0EBF8
:100AC0000900A04204D8B8488088A0EB090000E0E3
:100AD000204683464D4605E0B4480068405D3070CE
:100AE000761C6D1C09EB0B00A842F5D8DA44D844FB
:100AF000A4EB0B040198401C0190AB488088B4FB28
:100B0000F0F0E0B1A8488088B4FBF0F087B232463C
:100B10003946019800F068FCA348808807FB00660E
:100B2000A148808807FB00AA9F48808807FB0088AF
:100B30009D48808807FB104401983844019084B197
:100B40009A4801210268019800F04EFC002505E05A
:100B500096480068405D3070761C6D1CA542F7D346
:100B6000A244504607B0BDE8F08F2DE9F04104469D
:100B700060008D49898890FBF1F08B49898946187E
:100B800060008949898890FBF1F201FB12078748D0
:100B900001210268304600F027FC84490968C81921
:100BA00000F0F9FE05464FF6F870854203DBB5F517
:100BB000803F00DA00252846BDE8F0812DE9F84F96
:100BC000824688469146AAF1010000EB4000784930
:100BD00001EBC0044FF0000B206810B90020BDE805
:100BE000F88F2068484501D94D4600E0256800BFD0
:100BF000A088FFF7BAFF07460FBB6B4920688968DA
:100C0000B0FBF1F201FB1200A168884201D1002083
:100C1000E5E7654920688968B0FBF1F201FB120045
:100C2000A168401AA84208D25F4920688968B0FBD1
:100C3000F1F201FB1200A168451A00950CE05A4838
:100C40008068A168401AA84205D257488068A16808
:100C5000401A009000E00095A088A1684246009BE1
:100C6000FFF7FFFE0646B044B344AD1BA1688819E8
:100C70004D498968884202D10020A06002E0A06846
:100C80003044A060A06828B9002F01DD384600E09C
:100C9000A088A080002DABD15846A0E72DE9F041F7
:100CA00004460D4660004049898890FBF1F03E49BA
:100CB0008989461860003C49898890FBF1F201FB64
:100CC00012073A4801210268304600F08DFB37498F
:100CD0000968C819294600F0FAFD34480121026864
:100CE000304600F008FCBDE8F0812DE9F0412E48C7
:100CF0008589078B1FE02D4801210268284600F0F6
:100D000073FB002412E029490968081900F043FE2A
:100D100058B925488089281A2349898800FB014051
:100D2000C0F34F063046BDE8F081A41C1E48808801
:100D3000A042E8D86D1C1C4880893844A842DAD803
:100D40000020F0E72DE9FF4F83B0884616461C4689
:100D50004FF0000A1448416A0398801E124A9279A3
:100D600000FB0210029010488088B8FBF0F1029856
:100D7000084401900C488088B4FBF0F087B20A4820
:100D80008088B8FBF0F100FB1189B9F1000F32D077
:100D9000064801210268019800F026FB024880887D
:100DA000A0EB0900A04205E0700000103C0000101C
:100DB0009800001004D893488088A0EB090000E058
:100DC000204683464D4605E030788F4909684855EE
:100DD000761C6D1C09EB0B00A842F5D88A4801214E
:100DE0000268019800F087FBDA44D844A4EB0B04B6
:100DF0000198401C019083488088B4FBF0F0E0B17A
:100E000080488088B4FBF0F087B2324639460198BA
:100E100000F071FB7B48808807FB0066794880887A
:100E200007FB00AA7748808807FB00887548808800
:100E300007FB1044019838440190B4B17248012175
:100E40000268019800F0D0FA002505E030786E497C
:100E500009684855761C6D1CA542F7D36A480121E4
:100E60000268019800F047FBA244504607B0BDE875
:100E7000F08F70B505462C4605E02846FFF775FE55
:100E8000044604B12546002CF7D1284670BD2DE953
:100E9000F84F824688469146AAF1010000EB4000D7
:100EA0005A4901EBC0044FF0000B4F46B9F1000F57
:100EB0001FD0206800BBFFF718FF06464FF6FF71F2
:100EC0003046FFF7EBFEA6804F49E0680A68012133
:100ED00000F08AFA21691A314B4A126888183146A3
:100EE00000F0F5FC4849E0680A68012100F003FBC6
:100EF00002E00020BDE8F88FA088FFF7BAFFA080CD
:100F0000404920688968B0FBF1F201FB1200A06043
:100F100000BF3C488068A168401AB84205D23948F1
:100F20008068A168401A009000E00097A088A1683E
:100F30004246009BFFF706FF0546A844AB447F1BD3
:100F4000216848192060A16848192E49896888429B
:100F500002D10020A06002E0A0682844A060A06840
:100F600078B9FFF7C2FE06460EB95846C2E7A08818
:100F70003146FFF793FE4FF6FF713046FFF78EFEC6
:100F8000A680002FC5D15846B4E770B50446E56881
:100F900026691D4801210268284600F025FA1A4AF0
:100FA0002168136806F11C02981800F069FE1648C3
:100FB00001210268284600F09EFA70BD70B5054612
:100FC000681E00EB4000114901EBC0040E49E068C7
:100FD0000A68012100F008FA22691C320A4B2168D4
:100FE0001B68D01800F04CFE0749E0680A68012130
:100FF00000F081FA0020A080A0602060E060206105
:10100000207570BD700000103C00001098000010AA
:101010002DE9F05F8046894616469A46DDE90A5B6F
:10102000002704E00020FF490968C8557F1C1F2FD6
:10103000F8D335B1032D08D0122D08D0252D08D1B5
:1010400001E0002408E0082406E0122404E024243F
:1010500002E009FB06F400BF00BFF349F148006855
:1010600000F00EFEF1480168EE480068001D00F037
:1010700007FE2146EB480068083000F001FEBAF197
:10108000010F01D1002000E05046E64909680873CD
:10109000E448006880F80EB0E2480068C573032D8C
:1010A00001D0122D03D1DF490968CC7405E0414617
:1010B000DC480068113000F001FE3146D948006874
:1010C000163000F014FEBDE8F09F7CB50446062300
:1010D0001222CDE900238023002211461046FFF79B
:1010E00097FF1F23CF484FF400210268D0480068C3
:1010F00000F085FB05465DBB2423CA484FF48011F0
:101100000268CC48006800F07AFB054605BB74B164
:1011100000260AE0C3480068007804F8010BC148C3
:101120000068401CBF490860761C242EF2D30D23B2
:10113000BC484FF480110268BE48006800F05FFBB5
:1011400005462DB9B7480068007B08B16FF0090566
:1011500028467CBD7CB505460E460A232522CDE9EE
:1011600000238023002211461046FFF751FF1F2362
:10117000AC484FF400210268AD48006800F03FFB26
:1011800004463CBB0823A74859040268A9480068E4
:1011900000F035FB0446ECB925B1A248006800F028
:1011A0007DFD28602EB19F480068001D00F076FD8F
:1011B00030600D239B484FF4801102689D48006801
:1011C00000F01DFB04462CB996480068007B08B16E
:1011D0006FF0090420467CBD1CB506230322CDE92F
:1011E00000238023002211461046FFF711FF1F2322
:1011F0008C484FF4002102688D48006800F0FFFA27
:101200000446DCB9122387484FF4801102688948EC
:10121000006800F0F4FA044684B90D2381484FF4C5
:10122000801102688348006800F0E9FA04462CB98E
:101230007C480068007B08B16FF0090420461CBDA3
:101240001CB506230022CDE90023012311461046D8
:10125000FFF7DEFE1F2373484FF400210268744835
:10126000006800F0CCFA044684B90D236D484FF4B1
:10127000801102686F48006800F0C1FA04462CB97A
:1012800068480068007B08B16FF0090420461CBD67
:101290001CB5644801220368CDE9002300231A46E7
:1012A000FE21A12000F082FB044620461CBD2DE952
:1012B000F04105460E461746FFF7EAFF4FF050088B
:1012C0000AE0FFF7BDFF044604B908E0FFF784FF1A
:1012D000A8F1010000F0FF08B8F1000FF1D100BF44
:1012E00044B123464122544954A0FEF7D6FF20467C
:1012F000BDE8F08129463046FFF72CFF04465849E7
:10130000286808603846FFF7E0FE04462046EFE70D
:1013100070B54448046800256078022802D06FF058
:101320000A0070BD2078044448E06078042802D0A8
:1013300005283FD10CE06079082808D1A07906285B
:1013400005D1E079502802D101252078044434E009
:10135000E07800F00300022829D1A07810F0800F77
:1013600012D0201D00F017FBA17801F07F010122AF
:1013700042EAC11141F4805141EA00402D49096817
:1013800008602078044414E0201D00F004FBA178DC
:1013900001F07F01012242EAC11141F4006141EAFA
:1013A00000402349096808602078044401E020785F
:1013B000044402E02078044400BF00BF19480068DC
:1013C000801C00F0E8FA174909680844A042ACD133
:1013D00025B124A0FEF761FF0020A2E729A0FEF7B7
:1013E0005CFF6FF00B009CE72DE9FC4781460D4642
:1013F0001646B046002703E0002008F8010B7F1CCA
:10140000174800686843B842F6D80A232822CDE975
:10141000002380232A46124801684846FFF7F8FD5A
:101420001F233DE0380000105553424304000010D4
:101430002400001020000010D33500004552524F08
:10144000523A20496E202573206174204C696E65E4
:10145000202575202D207263203D2025640A000080
:10146000080000104D6173732053746F72616765DB
:101470002064657669636520636F6E6E656374656D
:10148000640A00004E6F742061204D617373205315
:10149000746F72616765206465766963650A000030
:1014A00033484FF4002102683248006800F0A7F981
:1014B0000446ECB93048006800FB05F332464FF4AF
:1014C00080112E48006800F09AF9044684B90D2373
:1014D00027484FF4801102682848006800F08FF90F
:1014E00004462CB922480068007B08B16FF009045B
:1014F0002046BDE8FC872DE9FC4106460D4617460F
:101500000A232A22CDE9002300232A461A4801682B
:101510003046FFF77DFD1F2315484FF40021026878
:101520001448006800F06BF90446ECB912480068F2
:1015300000FB05F33A464FF400210E48006800F026
:101540005EF9044684B90D2309484FF480110268FE
:101550000A48006800F053F904462CB904480068B2
:10156000007B08B16FF009042046BDE8FC81000053
:1015700038000010240000100800001020000010A7
:10158000002100E0491C82008A42FBD8704710B558
:101590000346002404E04FF47A70FFF7F1FF641C67
:1015A0009C42F8D310BD002107E0002240F8212022
:1015B000C0F88020C0F88420491C2029F5D370474A
:1015C0000021016041608160C160704700210160BD
:1015D00041608160C160704710B5FF48006840F00D
:1015E0000040FE49C1F8C4004FF01F00FC490860EC
:1015F00000BFFC48006800F01F001F28F9D103203D
:10160000F9490860F948C068F94900EA0100F7495A
:10161000C8600846C068F74940EA0100F349C8605D
:101620000846406820F0705048600846406840F026
:10163000A0504860F0A0FEF730FEF64CF64804607B
:1016400004F58070F549086004F58870F449086075
:1016500004F59070F349086004F59870F249086049
:1016600004F5A070F149086004F5A870F04908601D
:1016700004F5E870EF49086004F58050EE49086011
:10168000E8480068FFF7A2FFE7480068FFF79EFF01
:10169000E6480068FFF79AFFE0480068FFF790FF10
:1016A000DF480068FFF78CFFDB480068FFF77BFF2F
:1016B0003220FFF76CFF0020E04948600862886232
:1016C00001208860DE4848630846406820F0C0007A
:1016D00040F0800048604FF480300865CE480068D4
:1016E00088610846C068C9680843D449C860D548BD
:1016F000086100BF18200121814040094FF0E0221D
:1017000002EB8000C0F8001100BF00BF18200028C5
:1017100005DA0020C000CC490422885404E00020EF
:10172000C000CA491822885400BFC9A0FEF7B5FD01
:1017300010BD70B5C148C46805692C4200D170BDA8
:101740002C4014F0400F3FD0BC48406D10F4803F57
:1017500031D0BA48006D10F4004F03D00120C149C8
:10176000086024E0B548406D10F0010F11D0BE486C
:10177000006850B90020BD490870BD4908600120CB
:10178000B8490860B849086011E0BAA0FEF785FDC5
:101790000DE0B548006838B10020A8490861B1499A
:1017A0000860B149086002E0BCA0FEF776FD4FF486
:1017B0008030A2494865A148406D10F4801F03D0D5
:1017C0004FF480109D49486514F0020F0AD00120A3
:1017D000A74908609148006800680F2101EA10706D
:1017E000A24908709548C46000BFA8E700BFA048A0
:1017F00000680028FBD000209D490860704770B544
:1018000004460D46164687480068844206D115B93D
:101810004FF0007203E04FF0407200E0002245F408
:101820008020104340F070407C4909680860002027
:101830007B4909680860794800684660002078495B
:101840000968486076480068744909688860002023
:10185000734909688860581E304470490968C86037
:1018600000206F490968C860A06800F002006B4959
:1018700009680843A0606A48006860600020E06072
:101880006848006884420CD16C480462806840F06B
:1018900002006A4988600846406840F010004860CD
:1018A0000BE066488462806840F004006349886009
:1018B0000846406840F020004860FFF797FF6B48FB
:1018C000007808B9002070BD4FF0FF30FBE703B58A
:1018D0009DF8041001709DF8051041700CBD2DE9B4
:1018E000F04305460E4617469846DDF81C90002446
:1018F00004E000204E4909680855641C4C45F8DB9B
:101900004B48006805704A480068467039464848A8
:101910000068801CFFF7DBFF414645480068001D5A
:10192000FFF7D5FF494642480068801DFFF7CFFF0B
:10193000BDE8F0832DE9F84706460F4690469946E4
:10194000DDE9095A4B464246394630460095FFF7D5
:10195000C6FF082336480021026832480068FFF7B6
:101960004EFF0446A4B94DB12B4631484FF4002137
:1019700002682C480068FFF742FF044644B9002380
:101980001A464FF4801127480068FFF738FF0446D5
:101990002046BDE8F88708B5014608788DF80000B4
:1019A00048788DF80100BDF8000008BD2DE9F84722
:1019B00006460F4690469946DDE9095A4B4642468F
:1019C000394630460095FFF78AFF08231848002162
:1019D00002681448006875E0C4C00F4000C00F40A2
:1019E000F4CF0050F8CF005010C1005000C00240AA
:1019F0000FCF3FFF90208000496E697469616C6968
:101A00007A696E6720486F737420537461636B0A40
:101A10000000000000000820300000102800001026
:101A20002C0000101C0000102000001024000010EA
:101A3000380000103C0000104000001000C00050B2
:101A4000DF2E78274200008018ED00E000E400E07F
:101A5000486F737420496E697469616C697A656452
:101A60000A0000000C000010180000101400001004
:101A70001000001053707572696F75732073746174
:101A8000747573206368616E67652028636F6E6E7E
:101A90006563746564293F0A000000005370757225
:101AA000696F757320737461747573206368616EF8
:101AB00067652028646973636F6E6E65637465641F
:101AC000293F0A00FFF79BFE0446A4B94DB12B46FF
:101AD0008B484FF4801102688A480068FFF78FFE38
:101AE000044644B900231A464FF400218548006893
:101AF000FFF785FE04462046BDE8F8877CB582A046
:101B0000FEF7CBFB00BF884800680028FBD06420AC
:101B1000FFF73DFD10208549486500BF8348406DB3
:101B200010F0100FFAD14FF4801080494865C8209A
:101B3000FFF72DFD4FF400207249096808607048D6
:101B400008220368CDE900230023520106218020EA
:101B5000FFF72CFF044644B123464FF4B372744997
:101B600074A0FEF79AFB20467CBD65480068C079EA
:101B700000046449096808600023009301220521DC
:101B800018460193FFF7D6FE044644B123464FF4AE
:101B9000B672674967A0FEF780FB2046E4E70220A3
:101BA000FFF7F5FC57480068006840F00100554910
:101BB00009680860524809220368CDE90023002320
:101BC0004FF4007206218020FFF7F0FE044644B176
:101BD00023464FF4BA72564956A0FEF75EFB2046E4
:101BE000C2E747480068801CFFF7D5FE0546444819
:101BF0000368CDE9005300234FF4007206218020D2
:101C0000FFF7D4FE044644B123464FF4BD72484961
:101C100048A0FEF742FB2046A6E7FFF779FB044603
:101C200044B1234640F27F12414942A0FEF735FB02
:101C3000204699E7002300930122092118460193C9
:101C4000FFF778FE044634B123464FF4C272384998
:101C500038A0FEF722FB6420FFF799FC204683E7BB
:101C600008B5014608788DF8000048788DF8010025
:101C700088788DF80200C8788DF80300009808BDB8
:101C800003B59DF8041001709DF8051041709DF892
:101C9000061081709DF80710C1700CBD08B5014693
:101CA000C8788DF8000088788DF8010048788DF8A4
:101CB000020008788DF80300009808BD03B59DF870
:101CC000071001709DF8061041709DF80510817095
:101CD0009DF80410C1700CBD08B5014648788DF818
:101CE000000008788DF80100BDF8000008BD03B5BC
:101CF0009DF8051001709DF8041041700CBD0000A6
:101D0000380000101C000010436F6E6E6563742075
:101D100061204D6173732053746F72616765206435
:101D200065766963650A00000C00001000C0005071
:101D3000DB3500004552524F523A20496E20257340
:101D4000206174204C696E65202575202D207263FA
:101D5000203D2025640A000070B5012162A0FEF735
:101D60004DFE0646002E2CDD022162A0FEF746FE47
:101D70000446002C19DD5FA25BA161A0FEF78DFA7D
:101D800000BF4FF47A62654801683046FEF716FFDF
:101D900005462A46614801682046FFF778F8002D7D
:101DA000EFD12046FFF70AF904E052A15CA0FEF74C
:101DB00074FA70BD3046FFF701F95FA0FEF76DFAC7
:101DC00004E049A156A0FEF768FAF2E700BFF0E789
:101DD00010B58CB0FEF794FA4FF46140FEF70CFAA0
:101DE000FFF7FAFBFFF78AFE044694B901AA0BA994
:101DF0000AA8FFF75CFA04464CB9FEF7C7FB044695
:101E000014B9FFF7A9FF06E000200CB010BD0020B8
:101E1000FBE70020F9E700BFFEE770B5012132A023
:101E2000FEF7ECFD0546002D15DD2FA146A0FEF7BF
:101E300034FA00BF4FF47A62384801682846FEF74A
:101E4000BDFE0446002CF5D12846FFF7B7F843A0A5
:101E5000FEF723FA04E024A131A0FEF71EFA70BDBC
:101E600000BFFCE72DE9F04101211FA0FEF7C6FDF0
:101E70000746002F30DD4FF47A6228480168384663
:101E8000FEF79CFE02211BA0FEF7B8FD0446002CC5
:101E900018DD002517A135A0FEF7FFF900BF4FF4AC
:101EA0007A621E4801682046FEF7F1FF0646354477
:101EB00033488542F3D32046FFF780F831A0FEF780
:101EC000ECF905E00BA116A0FEF7E7F9BDE8F081FB
:101ED0003846FFF773F804E003A111A0FEF7DDF91F
:101EE000F4E700BFF2E700004D53524541442E5441
:101EF000585400004D5357524954452E54585400DD
:101F0000436F7079696E672066726F6D202573204C
:101F1000746F2025732E2E2E0A0000004000001042
:101F2000436F756C64206E6F74206F70656E2066F1
:101F3000696C652025730A00436F707920636F6DAB
:101F4000706C657465640A0052656164696E67202F
:101F500066726F6D2025732E2E2E0A005265616405
:101F600020436F6D706C6574650A00005772697468
:101F7000696E6720746F2025732E2E2E0A000000D4
:101F800080969800577269746520636F6D706C65F8
:101F90007465640A0000000008480047FEE7FEE799
:101FA000FEE7FEE7FEE7FEE7FEE7FEE7FEE7FEE709
:101FB00003480449024A044B70470000CD0000006A
:101FC00028010010280300102801001070B50446F5
:101FD000856900683026C10600D42026C00708D0D5
:101FE00070BDD4E9012130469047206A00F101001C
:101FF00020626D1EF5D570BD70B504468569006818
:10200000C00708D170BDD4E9012120209047206A83
:1020100000F1010020626D1EF5D570BD09684A050A
:1020200001D540B27047C905FCD500B270470968B8
:102030004A0501D5C0B27047C905FCD580B27047CA
:1020400070B505460C46012A05D02868800600D5E3
:10205000EA69002302E0012305E05B1C934202D2FF
:10206000E05C0028F9D1A869E618C01AA861286ABE
:10207000184428622846FFF7A9FF04E0D5E90121AA
:1020800014F8010B9047B442F8D32846FFF7B4FF89
:1020900070BD00002DE9F0418046002610687529CA
:1020A000414615A512D0FFF7B9FF002803DAC0F1A9
:1020B000000012A508E0D8F800108A0701D510A585
:1020C00002E0490704D50FA5012601E0FFF7AFFFA5
:1020D000002408F1240704E000F02EFD30313955CA
:1020E000641C0028F8D133462A4621464046BDE804
:1020F000F04100F074BA0000000000002D00000064
:102100002B0000002000000011680268006A5305DF
:1021100001D508700BE0D30501D5088007E0130650
:1021200003D5C217C1E9000201E052060860012090
:102130007047000001694A1C02610878704700B5C9
:102140008FB0CDE901310021059105497944CDE9F0
:1021500003101146684600F02FF90FB000BD0000D3
:10216000E5FFFFFF0A6802F8010B0A6070470000F4
:102170002DE9FF5F04468A461546DFF8AC80F84437
:102180000027D8E900103E46CDE9001011E03AF8EA
:1021900016106A4602A800F0AFFC411C07D0216867
:1021A000890603D5E269391891420ED8074406F131
:1021B00001062068800602D5E069B84205DDAE421E
:1021C000E5DB3AF816000028E1D1A069C01BA06148
:1021D0002046FFF7FBFED8E90010CDE900100020F3
:1021E00016E03AF818106A4602A800F085FC81460D
:1021F000401C0BD000250DF1080B05E0D4E90121AE
:102200001BF8050090476D1C4D45F7D308F1010000
:10221000B0428046E5DB206A384420622046FFF762
:10222000EBFEBDE8FF9F0000661400002DE9F041C1
:102230008046D21D22F007020026D2E90002F529CD
:1022400014A512D0002A06DA0023D0EB030063EBBA
:10225000020211A508E0D8F800108B0701D50FA5E0
:1022600002E0490701D50EA501261146002408F118
:10227000240704E000F06EF930323A55641C50EA4D
:102280000102F7D133462A4621464046BDE8F041D7
:1022900000F0A5B9000000002D0000002B00000098
:1022A0002000000030B4002100F124040CE002F012
:1022B000070505F130054FEAD20242EA4372655440
:1022C00001F101014FEAD30352EA0305EFD104689B
:1022D000002310A2250708D504F020040C4304D0E5
:1022E000C46901230CA2641EC46130BC00F077B93C
:1022F00010B5044621461068FFF799FE02462046B5
:10230000BDE810400023CDE7D21D22F00701D1E93E
:102310000023C7E70000000030000000F0B40F46C3
:102320000168090502D5234C7C4402E0214C7C4421
:102330000E34002100F124050BE002F00F064FEAF5
:102340001212A65D42EA03724FEA13136E5401F1B2
:10235000010152EA0306F0D1224604680023240753
:1023600004D5702F05D009B111320223F0BC00F062
:1023700036B910320123F9E770B504460D462146FF
:102380001068FFF754FE024629462046BDE870401B
:102390000023C3E7D21D22F00703D3E90023BDE7E2
:1023A0000368126843F0200303600823C36100231D
:1023B000B4E70000C41200002DE9F05F4FF0000BFD
:1023C000054689464FF0010AC0F820B02846E96862
:1023D000884798B3252806D0D5E901219047286A77
:1023E000401C2862F2E75A4F00267F442846E968DD
:1023F00088472028044608DB312C06D207EB04006E
:1024000010F8200C08B10643F0E7B00701D526F01C
:102410000406C5F81CB00027C5F818B02A2C0ED049
:102420005246A4F130010A292ED2BAF1000F2BD066
:10243000924605EB8708C8F818101AE084E059F8AE
:10244000041B284605EB87029161E9688847012F44
:1024500004461BD1E869002823DA26F0200620E094
:10246000D8F8180000EB800004EB40003038C8F8C2
:1024700018002846E9688847A0F1300104460A2977
:1024800002D2BAF1000FEBD1012F0AD02E2C08D1C5
:102490002846E96888477F1C0446022F46F020063C
:1024A000BCDBA869002803DA404246F00106A861B7
:1024B000F00701D026F010066C2C0AD0682C08D04A
:1024C0004C2C34D06A2C32D0742C30D07A2C2ED0B4
:1024D00015E0E968274628468847B842044609D1EE
:1024E00080206C2F00D0C000E9680643284688474A
:1024F000044604E040206C2F00D0800006431CB34B
:10250000A4F14100192802D8203446F400664A4656
:10251000214628462E604E46FDF703FE90B1012865
:102520000DD0F61D26F0070000F108094EE74C2CEF
:102530005846D9D080206A2CD6D00020D4E706F1A6
:10254000040943E7204647E7286ABDE8F09F0000FA
:102550002A12000030B5B0F10A024FEA900E71F174
:1025600000034EEA817EB0EB0E0061EB91014FEA71
:10257000101E4EEA017E10EB0E0041EB11114FEAE6
:10258000102E4EEA016E10EB0E0041EB11214FEAC6
:10259000104E4EEA014E10EB0E0041EB1141401877
:1025A00041F100014FEAD00040EA41704FEAD10109
:1025B00010EB80054FEA810444EA907444EB010477
:1025C0006D1944EB0404521BA3414FF0000348BFB4
:1025D0000A3200D530BD401C41F1000130BD2DE96B
:1025E000F0470D4604469246994600F124080168DA
:1025F000880604D5E06921F01001216000E0012087
:102600000027A84201DDA0EB0507A16907EB050241
:1026100002EB0300A1EB0000A0612068C00602D419
:102620002046FFF7D3FC002608E0D4E901211AF880
:1026300006009047206A401C761C20624E45F4DB61
:102640002068C0060AD52046FFF7C0FC06E0D4E9A2
:10265000012130209047206A401C2062381EA7F1DB
:102660000107F4DC07E0D4E9012118F805009047E0
:10267000206A401C2062281EA5F10105F3DC2046DB
:10268000FFF7BAFC21680220090600D40120BDE84A
:10269000F08770472DE9FF4F0C461E464FF0FF377D
:1026A00089B0D2E90001DDF8588006908946C1F36F
:1026B0000A5505B93D46002108464FF00000B9F122
:1026C000000F00F4400005DA00EB80004FF44001F9
:1026D00001EA50004FEA905ABAF1010F00DDBA4604
:1026E000069850EA49002CD044F61050A5F2FF3568
:1026F0004543CAF1000008902F14B8F1000F39D0FB
:102700007542089A291E00DC524600DA694203A885
:1027100000F08CFA0699484600F054FB8DE807005B
:10272000A0F500501F3800900398002D25DD42F2DF
:102730001F015246084403A90390684600F0B3FD08
:1027400024E0B8F1010F4FF0000001D1F24307E09F
:10275000302101E02154401CB042FBDB3046002216
:10276000002121540999C1F80880C1E900200DB069
:10277000BDE8F08FBD1B6D1CC3E7A0F500505246AD
:102780001F3803A90390684600F0A1FD8DE80700FB
:102790000004000C03D04FF0FF30410800E0104669
:1027A000B8F1000F03D00022009215461FE0751EFD
:1027B00006D4FFF7CFFE02F1300262556D1EF8D548
:1027C000B3460122084302D000227F1C04E0207897
:1027D000302801D100227F1E002A07978DD01DE0EE
:1027E000112D07DAFFF7B6FE303262556D1C50EA44
:1027F0000102F5D108430FD10021681E05E0235CDA
:10280000625C6354491C2254401E8142F7DBAB4694
:10281000A81B401E079001E0009848B1002004F872
:102820000B000998079AC0F80880C0E9002B9EE7C2
:1028300011264FF0000860E72DE9F04F8846044666
:10284000D21D22F0070191B0D1E90001CDE90C01C0
:1028500000F073FE02460D98C10F4FF02D0006D117
:1028600021682B208B0702D4202000EAC100032A14
:10287000834601D0072A05DB03464146204600F087
:1028800097F90AE12068800601D5E76900E006278C
:102890001120B8F1650F06D0B8F1660F11D0B8F16C
:1028A000670F67D128E00023112F009300DA781C0E
:1028B00003460CAA01A909A8FFF7ECFE00267D1C1F
:1028C0003FE001234FF000490CAA01A909A8009399
:1028D0003B46FFF7DFFEDDE90A50002620B90999E3
:1028E00007F1010001EB0005781B02D47D1CC0F14B
:1028F000FF36A5EB070A3DE0012F00DA0127002390
:10290000112F009300DC384603460CAA01A909A840
:10291000FFF7C0FE20683D46002600070BD40A984A
:10292000A84200DA054601A8012D04DD411911F87D
:10293000011C302909D00998B84202DA10F1040FBD
:1029400005DA4FF0010A099813E06D1EECE7002844
:1029500002DC2D1A064405E0401CA84202DD099D58
:1029600005F101050998A0EB060000F1010A4FF0FE
:10297000004081462068000703D4AA4501DB4FF0E0
:10298000FF3A0020B9F1004F0DF13F078DF83F00ED
:1029900024D04FF002082B20B9F1000F00900BDA81
:1029A0002D20C9F10009009006E0484600F0C4F867
:1029B0003031814607F8011DB8F10001A8F1010886
:1029C000F3DCB9F1000FF0D1009807F8010D216890
:1029D0004520090500D4652007F8010D0EA8A0EBDD
:1029E000070000F107085FEA0B0000D0012000EBB0
:1029F000050101EBEA7101EB0800A169A1EB000000
:102A0000A0F10100A0612068C00602D42046FFF7B3
:102A1000DDFA5FEA0B0006D0D4E901219047206A75
:102A200000F1010020622068C00621D52046FFF792
:102A3000CDFA1DE0002E05DB0A98B04202DD01A8A8
:102A4000805D00E03020D4E901219047206A761CA7
:102A5000401CBAF1010A20620AD100F0A3F8C06854
:102A60000168405CD4E901219047206A401C206243
:102A7000281EA5F10105DDDC07E0D4E9012117F8E6
:102A8000010B9047206A401C2062B8F10001A8F1B8
:102A90000108F2DC2046FFF7AFFA022011B067E62A
:102AA00010B5436913B1AFF3008001E0FFF7C8FA36
:102AB000012010BD126800F124010A7000224A7042
:102AC0000122EDE711684FF0FF32E9E710B54369E5
:102AD00013B1AFF3008001E0FFF74AFB012010BD06
:102AE000126800F1240182840022C2840122EDE7F1
:102AF00011684FF0FF32E9E770B505460C461646FF
:102B000000F048F8036893F80101012806D0FF2C73
:102B10000FD8185D68B101202C7070BDD3F8070183
:102B20003246214603442846BDE8704003F20713AD
:102B300018474FF0FF3070BD4FF00A01B0FBF1F2C3
:102B400002FB110110467047754600F0EBF8AE46E7
:102B500005006946534620F00700854618B020B5A9
:102B6000FFF726FABDE820404FF000064FF00007BF
:102B70004FF000084FF0000B21F00701AC46ACE825
:102B8000C009ACE8C009ACE8C009ACE8C0098D4692
:102B90007047000010B500F005F8001D10BD00BF23
:102BA000F109000001487047704700BFE8000010BD
:102BB0002DE9F04104461F4603260168072A01F467
:102BC000006003DB15A520B915A502E015A500B925
:102BD00015A521F010002060A069C01EA0610FB1F2
:102BE000401EA0612046FFF7F1F94FB1D4E9012161
:102BF00038469047206A401C2062C01C206206E0D4
:102C0000206AFAE7D4E9012115F8010B9047761EF6
:102C1000F8D22046FFF7F0F9BDE8F0814E414E00B2
:102C20006E616E00494E4600696E66002DE9F04700
:102C3000814616468AB037487844D0E90023806838
:102C40000092CDE90130334878440C38D0E90223B2
:102C500000690392CDE9043041F69B334FF0370011
:102C600001EB0302194492FBF0F591FBF0F2A5F1A0
:102C7000800500FB12141B3C02D56442012000E0D9
:102C80000020DFF890A080460027FA44AAF1CE0A7F
:102C90000DE0E00709D03246684607EB47010AEB32
:102CA000810100F014FB8DE8070064107F1C002CEC
:102CB000EFD1184F7F44BC3F17E0E80713D007EB74
:102CC00004100DF1180A90E80E00AAE80E00C06882
:102CD000F04201D198190890324606A903A800F0E5
:102CE000F6FA03AB07C36D10641C002DE5D1324624
:102CF0006946B8F1000F03A802D000F0D4FA01E051
:102D000000F0E5FAC9E90001C9F808200AB0BDE8F9
:102D1000F08700006C0A00000446AFF300802046F4
:102D2000FDF764FA00487047C80000104FF0013CFE
:102D300050F8042B51F8043B9A4221D1A2EB0C032A
:102D4000934313EACC1317D150F8042B51F8043BEA
:102D50009A4215D1A2EB0C03934313EACC130BD187
:102D600050F8042B51F8043B9A4209D1A2EB0C0312
:102D7000934313EACC13DBD04FF00000704700BF41
:102D8000D01A01BAB1FA81F101F0180122FA01F06A
:102D9000CB40C1F12001DBB2C0B2C01A2CFA01F362
:102DA000D11A914311EAC311E6D170470148704727
:102DB000704700BFCC00001001491820ABBEFEE7F1
:102DC000260002005FEA400C08BF91F0000F4FEAB6
:102DD0008C234FEAC12243EA51514FEA1C5018BFDD
:102DE00000F5F0404FEA300018BF41F000415FEAC3
:102DF0006C5C00F02980BCF1FF3F08BF40F08040D0
:102E00007047130C06BF12044FF0100C4FF0000C6B
:102E1000130E04BF12020CF1080C130F04BF1201B1
:102E20000CF1040C930F04BF92000CF1020CD30FB1
:102E300004BF52000CF1010C11464FF00002A0F14A
:102E40001F00A0EB0C00704711F0004F08BF704747
:102E500031F000413FF4D5AF0B0C06BF09044FF031
:102E6000100C4FF0000C0B0E04BF09020CF1080C03
:102E70000B0F04BF09010CF1040C8B0F04BF890078
:102E80000CF1020CCB0F04BF49000CF1010CCCF18A
:102E90002003A0EB0C0022FA03F302FA0CF241EA41
:102EA000030100F10100704720F07F4C80EA03002D
:102EB00023F07F47ACEB070303F57C5300F00040A1
:102EC00003F1FF032DE980494FEA154B09B44FEA9E
:102ED000144325EA0B4E24EA03480FF2042606EBBE
:102EE000132749083E785FEA320203FB0667C7F5FD
:102EF000000707FB06F64FEA54374FEAD64606F1BD
:102F0000020607FB066CCCF1005C4FEA1C472CEA7A
:102F1000074C07FB06F40CFB06F504EB15464FEADD
:102F2000961634BF00204FF000404FEAD13706FB21
:102F300007FC4FEA1C4C0CFB0BF7D21B03FB0CF7F6
:102F400061EB07010CFB0EF7B0EB074072EB174289
:102F50000CFB08F734BFA2EB0742B2EB074261EB70
:102F600017414FEA0C444FEA910706FB07FC4FEA72
:102F70001C4C0CFB0BF7B0EBC74072EB573203FB5A
:102F80000CF734BFA2EBC742B2EBC74261EB57313B
:102F90000CFB0EF7B0EBC70072EB57720CFB08F797
:102FA00034BFA2EBC702B2EBC70261EB5771039FBC
:102FB0004FEA816141EA921104EBCC044FEAD13728
:102FC0004FEA826206FB07FC42EA90124FEA8060F9
:102FD0004FEA1C4C0CFB0BF7D21B03FB0CF761EB0D
:102FE00007010CFB0EF7B0EB074072EB17420CFB2E
:102FF00008F734BFA2EB0742B2EB074261EB17417F
:103000004FEA8C554FEA910704EB9C2406FB07FC22
:103010004FEA1C4C0CFB0BF7B0EBC74072EB57327E
:1030200003FB0CF734BFA2EBC742B2EBC74261EB24
:1030300057310CFB0EF7B0EBC70072EB57720CFB6D
:1030400008F734BFA2EBC702B2EBC70261EB5771BE
:1030500015EB4C254FEA816141EA92114FEA8262F9
:103060004FEAD13742EA901206FB07FC44F1000414
:103070004FEA80604FEA1C4C0CFB0BF7D21B03FBA2
:103080000CF761EB07010CFB0EF7B0EB074072EB9E
:1030900017420CFB08F734BFA2EB0742B2EB074222
:1030A00061EB174115EB1C154FEA813141EA924162
:1030B0004FEA823242EA90424FEA80304FEA0C7681
:1030C00044F1000448EA03434EEA0B484FF0000E77
:1030D000B2EB080C71EB030724BF624639464EEB96
:1030E0000E0E4FF0000B0018524149414BEB0B0BF9
:1030F000B2EB080C71EB03077BF1000B24BF6246B7
:1031000039464EEB0E0E4FF0000B0018524149416C
:103110004BEB0B0BB2EB080C71EB03077BF1000BD5
:1031200024BF624639464EEB0E0E51EA020718BF25
:1031300046F0010616EB0E7655F1000254F100013F
:1031400003D5BDE88901BDE80088BDE88901BDE877
:103150000048B619524141EB0101A3F10103704748
:1031600080807F7E7D7C7B7A7978777676757473C4
:10317000727171706F6E6E6D6C6C6B6A6A69686883
:10318000676666656464636362616160605F5F5E19
:103190005E5D5D5C5C5B5B5A5A595958585757568F
:1031A00056555555545453535252525151505050F4
:1031B0004F4F4F4E4E4D4D4D4C4C4C4B4B4B4A4A46
:1031C0004A4949494848484747474746464645458A
:1031D00045444444444343434342424242414141C3
:1031E000002B26D4770021D01CB54FEA370703B453
:1031F0004FF010004FF010014FF000000FBCBDE881
:1032000010400BF1010BBBF1010F08BF5FEA17077C
:1032100022BF12F1010211F101014FF0004143F10F
:10322000000300F0004043EA00007047F9D357085C
:10323000DAE746EA064613F1400F4FEA16461FDD6D
:1032400013F1200FDFBF16430A46002120335B42F3
:10325000C8D0C3F1200746EA064602FA07F74FEA4C
:10326000164646EA0706C3F1200722FA03F201FADE
:1032700007F721FA03F14FF0000342EA0702B1E732
:1032800046EA020646EA06464FEA164646EA0106BE
:10329000BCBF46EA0646360C4FF000034FF0000272
:1032A0004FF000019EE72DE9C048934630B491E805
:1032B000380007C831EA400C48BF34EA430C03D554
:1032C000FFF7F2FDFFF78CFFF0BCBDE800882DE9A9
:1032D000C048934630B491E8380007C810F0804FDA
:1032E00008BF13F0804F03D100F005F8FFF778FF17
:1032F000F0BCBDE8008820F07F4780EA030023F09F
:103300007F4C07EB0C03A3F57C5300F00040A3F1C6
:10331000FE0392F0000F00F0B38095F0000F00F074
:1033200077802DE901494FEA11404FEA144621EA1E
:10333000004800FB06FC24EA064708FB06F607FBEC
:1033400008F800FB07F718EB06484CEB164C4FEA61
:10335000124B18EB07484FEA15464CEB174022EA90
:103360000B4E0BFB06FC25EA06470EFB06F607FB99
:103370000EFE0BFB07F71EEB064E4CEB164C4FF008
:1033800000061EEB074E4CEB174B18EB0B0840F1F9
:10339000000018EB0E0B58EB000840F100008F1AEC
:1033A0004FF000013CBFC943661B14BFB5EB040CD2
:1033B00000213CBFC943F61B4FEA17444EEA8E0E6C
:1033C00027EA04454FEA1C4704FB07622CEA074C36
:1033D00005FB07F70CFB05F604FB0CFC16EB074698
:1033E00042EB174216EB0C4642EB1C421BEB060667
:1033F00058EB0202414146EA9E0601D5BDE801892B
:10340000B619524141EB0101A3F10103BDE8018965
:103410004FEA14454FEA114724EA054621EA074CD2
:1034200005FB07F406FB07F70CFB06F105FB0CFC9C
:1034300011EB074144EB17444FEA124711EB0C41E3
:1034400044EB1C4422EA074C05FB07F206FB07F796
:103450000CFB06F605FB0CFC16EB074642EB17428D
:1034600016EB0C4642EB1C456A1854F1000148BFAC
:103470007047B619524141EB0101A3F101037047B6
:1034800095F0000F37D04FEA11424FEA144721EA76
:10349000024624EA074C02FB07F106FB07F70CFB88
:1034A00006F402FB0CFC14EB074441EB17414FEA16
:1034B000154714EB0C4441EB1C4125EA074C02FB79
:1034C00007F506FB07F70CFB06F602FB0CFC16EBF8
:1034D000074645EB174516EB0C4645EB1C42121907
:1034E00051F1000148BF7047B619524141EB01014B
:1034F000A3F1010370474FEA14454FEA114724EA4C
:10350000054621EA074C05FB07F106FB07F70CFB14
:1035100006F24FF0000605FB0CFC12EB074241EBF4
:10352000174112EB0C4251EB1C4148BF70479218F7
:1035300041EB0101A3F101037047490050EAC120AA
:1035400018BF04204A0D18BF40F0010040F2FF727E
:10355000B2EB515F08BF40F00200012808BF052010
:103560007047000010B500290AD00878002807D05D
:1035700005487844FFF7DAFB002801D0002010BD91
:103580000248784410BD00005E01000056010000B2
:1035900010B500290AD00878002807D005487844DB
:1035A000FFF7C4FB002801D0002010BD024878447A
:1035B00010BD00004E0100004601000010B5FFF7ED
:1035C000F5FB4FF00001016010BD4641545F496EAC
:1035D0006974004D535F496E697400486F73745F7E
:1035E000456E756D44657600000000000000000027
:1035F0003031323334353637383941424344454629
:103600004030580030313233343536373839616222
:103610006364656640307800040000080000000024
:103620000000000200010000100000000240000045
:10363000000000A00000000005400000000000C8DD
:10364000000000000C4000000000409C0000000052
:10365000194000000020BCBE000000003440000003
:10366000BFC91B8E00000004B5400000504BCFD0F6
:103670006607E2CF010000006C4100003E8251AAC3
:10368000DFEEA73401000000D9420000DCB5A0E263
:103690003A301F97FFFFFFFFB4450000FD25A0C88B
:1036A000E9A3C14FFFFFFFFFFF3F000000000080C4
:1036B00000000000FF3F000000000080000000004C
:1036C000FC3700000000001044000000080100006A
:1036D0001C00000043000000F8FFFFFF0C0000008A
:1036E0000E0000000F0000002E000000100100007E
:1036F00043000000F8FFFFFF0040404040404040D2
:1037000040404141414141404040404040404040B4
:103710004040404040404040400502020202020258
:1037200002020202020202020220202020202020A7
:1037300020202002020202020202909090909090BB
:103740001010101010101010101010101010101079
:1037500010101010020202020202888888888888ED
:1037600008080808080808080808080808080808D9
:1037700008080808020202024000000000000000E1
:103780000000000000000000000000000000000039
:103790000000000000000000000000000000000029
:1037A0000000000000000000000000000000000019
:1037B0000000000000000000000000000000000009
:1037C00000000000000000000000000000000000F9
:1037D00000000000000000000000000000000000E9
:1037E00000000000000000000000000000000000D9
:1037F00000000000000000000000000000093D0083
:1038000000000000000000000000000000000000B8
:1038100000000000000000000000000000000000A8
:103820000000000000000000000000000000000098
:103830000000000000000000000000000000000088
:04000005000000CD2A
:00000001FF
