:100000000C9434000C9451000C9451000C94510049
:100010000C9451000C9451000C9451000C9451001C
:100020000C9451000C9451000C9451000C9451000C
:100030000C9451000C9451000C9451000C945100FC
:100040000C9451000C9451000C9451000C945100EC
:100050000C9483000C9451000C9451000C945100AA
:100060000C9451000C94510011241FBECFEFD8E026
:10007000DEBFCDBF11E0A0E0B1E0ECE5F5E002C0ED
:1000800005900D92AC30B107D9F711E0ACE0B1E0CA
:1000900001C01D92A235B107E1F70E94F8010C944E
:1000A000AC020C940000CF93DF931F92CDB7DEB764
:1000B0008091C00085FF0CC0BE016F5F7F4F88E458
:1000C00091E00E94E900892B19F489818093C60090
:1000D0000F90DF91CF9108951F93CF93DF93EC01A1
:1000E00010E007C088E491E00E94C7000E9453001E
:1000F0001F5FFE01E10FF11D60816111F3CFDF9100
:10010000CF911F9108951F920F920FB60F92112455
:100110002F933F934F935F936F937F938F939F930F
:10012000AF93BF93EF93FF930E945300FF91EF9122
:10013000BF91AF919F918F917F916F915F914F91FF
:100140003F912F910F900FBE0F901F90189505C0F3
:1001500022E02A95F1F700C001970097C9F70895AA
:1001600007C0EFECF7E03197F1F700C0000001970E
:100170000097B9F70895FC0171836083538342832C
:100180001582148217821682118610860895FC014A
:10019000208531858281938128173907B1F08681C6
:1001A0009781A081B181A80FB91F6C9301966281DC
:1001B00073810E949802978386838085918501963A
:1001C0009187808720E030E002C02FEF3FEFC90128
:1001D0000895FC0180859185892BC1F084819581EA
:1001E000A081B181A80FB91F2C91DB012C9301963E
:1001F000628173810E9498029583848380859185B2
:1002000001979187808720E030E002C02FEF3FEF19
:10021000C90108952B9A00C02B980895CF93DF93BE
:100220001F92CDB7DEB7662311F0299A01C0299835
:100230002A98549A559A569A579A5F985E985D985C
:100240005C9887FD5F9A86FD5E9A85FD5D9A84FDC8
:100250005C9A89830E940A015F985E985D985C9819
:10026000898183FD5F9A82FD5E9A81FD5D9A80FDA2
:100270005C9A0E940A015C9A5D9A5E9A5F9A0F905E
:10028000DF91CF91089529982A9A549855985698B5
:1002900057982B9A00C04C9902C080E001C080E1C1
:1002A0004D9980624E9980644F9980682B9800C068
:1002B0002B9A00C04C9981604D9982604E99846060
:1002C0004F9988602B9808950E94430187FDFCCFC9
:1002D00084E090E00197F1F70C944301CF93C82F8D
:1002E0000E94640160E08C2FCF910C940E01CF939B
:1002F000C82F0E94640161E08C2FCF910C940E01F5
:10030000611102C0805801C080540C946E010E949B
:10031000640190E0089581E00C946E0182E00C94F9
:100320006E01CF93C82F0E946401CA3049F4803413
:1003300010F480E401C080E08058CF910C946E01ED
:1003400061E08C2FCF910C940E01CF93DF93EC01E1
:1003500002C00E94910189918111FBCFDF91CF9161
:100360000895CF93DF93EC0102C00E949101FE013A
:10037000219684918111F9CFDF91CF9108951F9338
:10038000CF93DF93182F219A229A239A549A559A41
:10039000569A579AE0E0FDE73197F1F75D9A5C9A3B
:1003A0000E940A01E0E0F7E23197F1F70E940A01AA
:1003B000C0E8D0E0FE013197F1F70E940A01FE018A
:1003C0003197F1F75C980E940A012197F1F788E2D2
:1003D0000E946E0188E00E946E010E948B0186E0FF
:1003E0000E946E01812FDF91CF911F910C946E01BD
:1003F000CF93DF93CDB7DEB72A970FB6F894DEBF61
:100400000FBECDBF4CE350E06CE071E0CE01019631
:100410000E94BB008AE0FE013196A8E4B1E00190A1
:100420000D928A95E1F788E48093C10086E080937D
:10043000C20083E390E09093C5008093C4008FEFE7
:1004400084B98AB982E390E00E94B00078946EEF9C
:1004500088E491E00E94C7000E94530061E488E4B0
:1004600091E00E94C7000E9453006EEF88E491E083
:100470000E94C7000E94530066E488E491E00E9455
:10048000C7000E9453006EEF88E491E00E94C7000D
:100490000E94530063E588E491E00E94C7000E9437
:1004A000530064E088E491E00E94C7000E9453007A
:1004B00080E091E00E946C008CE00E94BF010E94ED
:1004C0008B0186E091E00E94A50188E893E10E94FB
:1004D000B0006EEF88E491E00E94C7000E945300D4
:1004E00063E588E491E00E94C7000E94530061E048
:1004F00088E491E00E94C7000E94530088E893E1DD
:100500000E94B0006EEF88E491E00E94C7000E9454
:10051000530063E588E491E00E94C7000E94530005
:1005200068E088E491E00E94C7000E945300CDCFAC
:10053000AA1BBB1B51E107C0AA1FBB1FA617B70709
:1005400010F0A61BB70B881F991F5A95A9F7809525
:0C0550009095BC01CD010895F894FFCFF8
:0C055C00746573743100746573743200B0
:00000001FF
