:1000000012C019C018C017C016C015C014C013C044
:1000100012C011C010C00FC00EC00DC00CC00BC06C
:100020000AC009C008C011241FBECFE5D4E0DEBF5E
:10003000CDBF02D077C0E4CF81B3836C81BB84B3E2
:100040008E6384BB8FEF82BB85BB80E197E228EC97
:1000500030E0F9013197F1F70197D9F728EC30E05A
:1000600070E460E851E042E081B382BB80E699E051
:10007000F9013197F1F70197D9F784B385BB80E691
:1000800099E0F9013197F1F70197D9F715BA72BBE9
:1000900080EB94E0F9013197F1F70197D9F762BB52
:1000A00080EB94E0F9013197F1F70197D9F752BB52
:1000B00080EB94E0F9013197F1F70197D9F742BB52
:1000C00080EB94E0F9013197F1F70197D9F712BA73
:1000D000AD9A80E699E0F9013197F1F70197D9F7E8
:1000E000AC9A80E699E0F9013197F1F70197D9F7D9
:1000F000AB9A80E699E0F9013197F1F70197D9F7CA
:10010000AA9A80E699E0F9013197F1F70197D9F7BA
:10011000A99A80E699E0F9013197F1F70197D9F7AB
:0801200015BAA2CFF894FFCF3D
:00000001FF
