:1000000012C02CC02BC02AC0B9C228C027C026C02D
:1000100025C024C023C022C021C020C020C01EC0D3
:100020001DC01CC01BC011241FBECFE5D4E0DEBF25
:10003000CDBF10E0A0E6B0E0EEEAFDE002C0059022
:100040000D92A236B107D9F710E0A2E6B0E001C0E8
:100050001D92A839B107E1F764D0A7C6D1CF1F928E
:100060000F920FB60F9211242F933F934F935F93EC
:100070006F937F938F939F93AF93BF93CF93DF93B0
:10008000EF93FF9380916200C82FD0E064B175B107
:1000900080E090E064D520E030E044E853E4CED442
:1000A0002BE831EF44EF5DE3E8D520E030E048E0B5
:1000B00052E4C5D428D5CA59DF4F688380916200C5
:1000C0008F5F8093620080916200823310F0109203
:1000D000620040E050E020E030E0F901EA59FF4FD3
:1000E0008081480F511D2F5F3F4F22333105A9F703
:1000F000CA0162E370E030D660936300FF91EF9134
:10010000DF91CF91BF91AF919F918F917F916F912F
:100110005F914F913F912F910F900FBE0F901F90C5
:1001200018952F923F924F925F926F927F928F928B
:100130009F92AF92BF92CF92DF92EF92FF920F9376
:100140001F9386E490E0FED384B3806384BB83E096
:1001500088BB52D388B3836088BB81E001D210E8AA
:10016000109364001092600085E090E0EBD3AD9AAC
:1001700084EF91E0E7D3AD98AC9A109264001093AD
:10018000600084EF91E0DED3AC9880E090E0F8D599
:10019000D82E81E090E0F4D5E82E8D2D8A5081355F
:1001A00010F4ED1410F489E1D82E8E2D8A5081358B
:1001B00010F4ED1410F402E3E02E80EC87B98CE823
:1001C00086B9789480E480936400809360001EE593
:1001D000A12EB9EFCB2EA0E5BA2EB19999C184E139
:1001E00090E0B0D310E006C085E090E0ABD31F5F95
:1001F000153611F0B19BF8CF85E0189FC00111248E
:10020000855F91400CF480C1109264001FE310934D
:10021000600088E592E096D31093640013E7109392
:10022000600088E592E08ED31093640018E7109385
:10023000600088E592E086D31093640080E88093A4
:10024000600003C085E090E07DD3B19BFBCF80E8E8
:10025000809364001092600088EC90E073D385B3C3
:100260008F7C85BBFF24F39418E7F8E75F2EE8EB5B
:100270004E2E7CE5372E68EF262E5DE6952E4DEE50
:10028000842E34E5732E24ED622EFF2009F5C092F2
:10029000640070926000B19B09C0B09902C000E098
:1002A00006C085E090E04ED31150A9F701E06092BE
:1002B0006400A09260001FEFB19B09C1B09902C019
:1002C00000E005C185E090E03DD31150A9F7FFC0E3
:1002D00081E0F81659F52092640029E72093600028
:1002E000B19B07C0B09B38D385E090E02BD3115071
:1002F000B9F7C09264009092600018E7B19B07C004
:10030000B09B2AD385E090E01DD31150B9F78092BD
:100310006400509260001FEFB19BD8C0B09B1CD30B
:1003200085E090E00FD31150B9F7D0C082E0F81605
:1003300009F051C040926400309260001FEFB19903
:1003400008C003C085E090E0FDD2B19BFBCF01E087
:100350000FC0B09907C003C085E090E0F3D2B09B16
:10036000FBCF05C08AE090E0EDD2115041F700E0EC
:100370001D2D13C0812F52D180916400806880931D
:100380006400B1990AC003C085E090E0DBD2B19B64
:10039000FBCF1B5F1B3508F01AE0B09B02C00023A7
:1003A00049F31E1538F0C0926400B092600088EEE8
:1003B00093E00AC01D1549F080E090E0612FE8D479
:1003C000D12E03C085E090E0BDD2B09BFBCF01E011
:1003D00093E0F92E56C023E0F21609F054C086EFE0
:1003E0008093640020E1209360001FEFB19908C062
:1003F00003C085E090E0A6D2B19BFBCF01E00FC027
:10040000B09907C003C085E090E09CD2B09BFBCFC1
:1004100005C08AE090E096D2115041F700E01E2D11
:1004200013C0812FFBD080916400806880936400AA
:10043000B1990AC003C085E090E084D2B19BFBCFA4
:100440001B5F1B3508F01AE0B09B02C0002349F384
:10045000D11638F0C0926400B092600088EE93E04C
:100460000AC01E1549F081E090E0612F91D4E12E81
:1004700003C085E090E066D2B09BFBCF01E084E052
:10048000F82E1FEF25C084E0F81611F001E020C01F
:1004900027EF20936400A0926000B19B07C0B09B3F
:1004A0008CD285E090E04ED21150B9F78EED80935A
:1004B000640028E5209360001FEFB19B07C0B09B4C
:1004C0007CD285E090E03ED21150B9F701E018E708
:1004D000B19910C084E190E035D2B1990BC0F3948A
:1004E00084E08F1528F4FF2403C085E090E02AD231
:1004F000B19BFBCF002309F0C8CE03C085E090E09C
:1005000021D2B09BFBCF19C01330B8F081E00EC0F0
:10051000B09913C084E190E015D2B09B04C00DC027
:1005200085E090E00FD2B09BFBCF88E08093640021
:100530001092600088EE93E005D2369A85E090E054
:1005400001D2809163006AD080916300E81608F4BC
:10055000AD9A809163008D1508F03FCEAD983DCEE9
:10056000882339F083E085BD89B7806489BF78949A
:10057000089515BC89B78F7B89BF08951F920F928C
:100580000FB60F9211248F93EF93FF93DF93CF93C6
:100590000F92CDB7DEB780916500882321F0939844
:1005A0008091640003C0929880916000898388B331
:1005B0008C6388BB82B3806F82BBFE0131968981D8
:1005C00080FDC598808181FDC498808182FD9798C7
:1005D000808183FD9698808184FD9598808185FD3A
:1005E000C398808186FDC298808187FD9498809110
:1005F0006500882321F0929A1092650004C0939AB6
:1006000081E0809365000F90CF91DF91FF91EF9192
:100610008F910F900FBE0F901F901895382F64E6A2
:100620008FD3892F6AE08CD3282F832F89D322235D
:1006300011F48FE323C0213011F486E01FC0223073
:1006400011F48BE51BC0233011F48FE417C0243064
:1006500011F486E613C0253011F48DE60FC0263064
:1006600011F48DE70BC0273011F487E207C0283062
:1006700011F48FE703C0293019F48FE680936400EA
:10068000992311F48FE323C0913011F486E01FC049
:10069000923011F48BE51BC0933011F48FE417C036
:1006A000943011F486E613C0953011F48DE60FC036
:1006B000963011F48DE70BC0973011F487E207C034
:1006C000983011F48FE703C0993019F48FE68093C6
:1006D0006000343630F08FE38093640088E38093C9
:1006E00060000895982F92959F70282F2F7099235E
:1006F00011F48FE33BC0913011F486E037C09230A3
:1007000011F48BE533C0933011F48FE42FC0943093
:1007100011F486E62BC0953011F48DE627C0963093
:1007200011F48DE723C0973011F487E21FC0983091
:1007300011F48FE71BC0993011F48FE617C09A307F
:1007400011F487E713C09B3011F48CE70FC09C3085
:1007500011F489E30BC09D3011F48EE507C09E3083
:1007600011F489E703C09F3019F481E78093640096
:10077000222311F48FE337C0213011F486E033C017
:10078000223011F48BE52FC0233011F48FE42BC0FD
:10079000243011F486E627C0253011F48DE623C0FD
:1007A000263011F48DE71FC0273011F487E21BC0FB
:1007B000283011F48FE717C0293011F48FE613C0E9
:1007C0002A3011F487E70FC02B3011F48CE70BC0EF
:1007D0002C3011F489E307C02D3011F48EE503C0ED
:1007E0002E3021F489E78093600008952F3019F4AA
:1007F00081E78093600008958CE387BB8CEF81BB19
:100800008CE082BB83E088BB80E797E129E130E0A0
:10081000F9013197F1F70197D9F788B38C6F88BB4D
:1008200082B3806E82BB929A93989498C39888EA18
:1008300091E6FC013197F1F7C39AC598FC01319715
:10084000F1F7C59AC498FC013197F1F7C49A9798CB
:10085000FC013197F1F7979A9698FC013197F1F7DF
:10086000969A9598FC013197F1F7959AC298FC01F8
:100870003197F1F79298939A9498FC013197F1F798
:10088000C29AC398FC013197F1F7C39AC598FC014D
:100890003197F1F7C59AC498FC013197F1F7C49AE2
:1008A0009798FC013197F1F7979A9698FC01319748
:1008B000F1F7969A95980197F1F782B3837F82BBFF
:1008C00008951F93182F81E04BDE1123C9F131E009
:1008D0003093640010926000123090F123E0209376
:1008E0006400123069F197E090936400133041F195
:1008F0008FE080936400143019F18FE180936400DD
:100900001530F1F08FE3809364001630C9F0309316
:1009100060001730A9F020936000183089F09093A0
:100920006000193069F08FE0809360001A3041F068
:100930008FE1809360001B3019F08FE3809360009B
:100940001F9108952AEF30E004C0F9013197F1F7C3
:1009500001970097D1F7089580E880936400109282
:1009600060008AEF90E0FC013197F1F7FC013197CC
:10097000F1F7FC013197F1F7FC013197F1F701979D
:10098000F1F7AD9A88E893E12AEF30E0F901319769
:10099000F1F70197D9F7AD98AC9A1092640080E80E
:1009A0008093600088E893E12AEF30E0F901319705
:1009B000F1F70197D9F7AC9808951F93CF93DF9380
:1009C000369A10E0CAEFD0E0812F7BDF84E690E01A
:1009D000FE013197F1F70197D9F71F5F1730A1F7A3
:1009E0000EC010E0812F6DDF84E690E0FE013197AC
:1009F000F1F70197D9F71F5F1730A1F702C0CAEFCF
:100A0000D0E03699EECF14B185B16CDE88EE93E07C
:100A10002AEF30E0F9013197F1F70197D9F7812FEB
:100A200061DE88EE93E02AEF30E0F9013197F1F7CB
:100A30000197D9F7DF91CF911F9108955058BB27A7
:100A4000AA270ED0E0C0D1D030F0D6D020F031F4BB
:100A50009F3F11F41EF4C6C00EF4E095E7FBBCC046
:100A6000E92FE2D080F3BA1762077307840795076E
:100A700018F071F49EF5FAC00EF4E0950B2EBA2F23
:100A8000A02D0B01B90190010C01CA01A001112494
:100A9000FF27591B99F0593F50F4503E68F11A1640
:100AA000F040A22F232F342F4427585FF3CF4695D1
:100AB00037952795A795F0405395C9F77EF41F16F3
:100AC000BA0B620B730B840BBAF09150A1F0FF0FBD
:100AD000BB1F661F771F881FC2F70EC0BA0F621FA9
:100AE000731F841F48F4879577956795B795F79599
:100AF0009E3F08F0B3CF9395880F08F09927EE0F2B
:100B000097958795089598D088F09F5790F0B92FC2
:100B10009927B751A0F0D1F0660F771F881F991F52
:100B20001AF0BA95C9F712C0B13081F09FD0B1E088
:100B300008959CC0672F782F8827B85F39F0B93F98
:100B4000CCF3869577956795B395D9F73EF4909554
:100B50008095709561957F4F8F4F9F4F0895E894D2
:100B600009C097FB3EF490958095709561957F4FF5
:100B70008F4F9F4F9923A9F0F92F96E9BB279395A3
:100B8000F695879577956795B795F111F8CFFAF4B3
:100B9000BB0F11F460FF1BC06F5F7F4F8F4F9F4FE4
:100BA00016C0882311F096E911C0772321F09EE842
:100BB000872F762F05C0662371F096E8862F70E0A8
:100BC00060E02AF09A95660F771F881FDAF7880F82
:100BD0009695879597F9089597F99F6780E870E053
:100BE00060E008959FEF80EC089500240A941616A3
:100BF000170618060906089500240A94121613060B
:100C0000140605060895092E0394000C11F4882398
:100C100052F0BB0F40F4BF2B11F460FF04C06F5FB4
:100C20007F4F8F4F9F4F089557FD9058440F551F8A
:100C300059F05F3F71F04795880F97FB991F61F05E
:100C40009F3F79F087950895121613061406551FD5
:100C5000F2CF4695F1DF08C0161617061806991F41
:100C6000F1CF86957105610508940895E894BB2736
:100C700066277727CB0197F908950BD0C4CFB5DF4E
:100C800028F0BADF18F0952309F0A6CFABCF1124D6
:100C9000EECFCADFA0F3959FD1F3950F50E0551F1B
:100CA000629FF001729FBB27F00DB11D639FAA27C1
:100CB000F00DB11DAA1F649F6627B00DA11D661F10
:100CC000829F2227B00DA11D621F739FB00DA11D31
:100CD000621F839FA00D611D221F749F3327A00DEB
:100CE000611D231F849F600D211D822F762F6A2F87
:100CF00011249F5750408AF0E1F088234AF0EE0F0C
:100D0000FF1FBB1F661F771F881F91505040A9F718
:100D10009E3F510570F060CFAACF5F3FECF3983E45
:100D2000DCF3869577956795B795F795E7959F5F7F
:100D3000C1F7FE2B880F911D9695879597F9089519
:100D4000991B79E004C0991F961708F0961B881F1D
:100D50007A95C9F780950895AA1BBB1B51E107C07E
:100D6000AA1FBB1FA617B70710F0A61BB70B881F3B
:100D7000991F5A95A9F780959095BC01CD010895CA
:100D8000E199FECF9FBB8EBBE09A99278DB3089562
:100D9000262FE199FECF9FBB8EBB2DBB0FB6F894DB
:0E0DA000E29AE19A0FBE01960895F894FFCFF3
:020DAE008000C3
:00000001FF
