:020000040000FA
:10000000C8020010650100006D0100006F010000D2
:100010007101000073010000750100000000000084
:100020000000000000000000000000007701000058
:1000300079010000000000007B0100007D0100004C
:100040007F0100007F0100007F0100007F010000B0
:100050007F0100007F0100007F0100007F010000A0
:100060007F0100007F0100007F0100007F01000090
:100070007F0100007F0100007F0100007F01000080
:100080007F0100000D0700007F0100007F010000DC
:100090007F0100007F0100007F0100007F01000060
:1000A0007F0100007F0100007F0100007F01000050
:1000B0007F0100007F0100007F0100007F01000040
:1000C0007F01000000F002F800F03CF80AA090E880
:1000D000000C82448344AAF10107DA4501D100F003
:1000E00031F8AFF2090EBAE80F0013F0010F18BF94
:1000F000FB1A43F00103184798010000B801000003
:10010000103A24BF78C878C1FAD8520724BF30C843
:1001100030C144BF04680C60704700000023002415
:1001200000250026103A28BF78C1FBD8520728BF07
:1001300030C148BF0B6070471FB500F0A2F81FBD6B
:1001400010B510BD00F061F81146FFF7F5FF00F0A3
:1001500032FA00F07FF803B4FFF7F2FF03BC00F0BF
:1001600089F800000948804709480047FEE7FEE794
:10017000FEE7FEE7FEE7FEE7FEE7FEE7FEE7FEE757
:1001800004480549034A054B70470000410400003C
:10019000C5000000C8000010C8020010C800001010
:1001A00010B5203AC0F00B80B1E81850203AA0E812
:1001B0001850B1E81850A0E81850BFF4F5AF5FEA46
:1001C000027C24BFB1E81850A0E8185044BF18C9F9
:1001D00018C0BDE810405FEA827C24BF51F8043BA0
:1001E00040F8043B08BF7047D20728BF31F8023BF4
:1001F00048BF11F8012B28BF20F8023B48BF00F888
:10020000012B7047704770477047754600F028F81B
:10021000AE4605006946534620F00700854618B0F3
:1002200020B5FFF7ADFFBDE820404FF000064FF0CE
:1002300000074FF000084FF0000B21F00701AC461B
:10024000ACE8C009ACE8C009ACE8C009ACE8C0093A
:100250008D4670470446AFF300802046FFF77BFFD2
:10026000004870476800001001487047704700BFA1
:100270006C00001001491820ABBEFEE7260002000A
:10028000704710B5FFF7F0FF4FF00001016010BD9F
:100290002C0A00000000001008000000000100000F
:1002A000340A000008000010C00200001C01000019
:1002B000000000000000000000000000000000003E
:1002C000000000000000000000000000000000002E
:1002D000000000000000000000000000000000001E
:1002E000000000000000000000000000000000000E
:1002F000000000000000000000000000FFFFFFFF02
:1003000091480068C0F30160032868D18F480068F5
:1003100010F0030006D0012823D002283FD0032884
:100320005CD100E000BF88480068C0F30E0000F117
:1003300001004FEA4000864900FB01F08549D1F8F1
:100340008810C1F3074101F10101B0FBF1F18248CE
:100350000068C0B200F10100B1FBF0F07F49086015
:100360003CE079480068C0F30E0000F101004FEA5C
:1003700040007B4900FB01F07649D1F88810C1F3B9
:10038000074101F10101B0FBF1F173480068C0B20F
:1003900000F10100B1FBF0F0704908601EE06A480E
:1003A0000068C0F30E0000F101004FEA40004FF476
:1003B000FA4100FB01F06749D1F88810C1F3074109
:1003C00001F10101B0FBF1F163480068C0B200F136
:1003D0000100B1FBF0F06149086000BF2FE05B480D
:1003E000006810F0030006D0012810D0022819D0B0
:1003F000032823D100E000BF57480068C0B200F1D5
:1004000001005349B1FBF0F05449086016E052482E
:100410000068C0B200F101005149B1FBF0F04F4952
:1004200008600BE04C480068C0B200F101004FF4D6
:10043000FA41B1FBF0F04949086000BF00BF7047C6
:1004400020204849086000BF4648006810F0400F6F
:10045000FAD00320404908604FF001003D49C1F83F
:100460000C014148414908604FF0AA00404908602A
:100470004FF0550008604FF001003E4908604FF012
:10048000AA003B4908604FF055003249C1F88C0082
:1004900000BF2D48006810F0806FFAD00320354966
:1004A00008604FF0AA002B49C1F88C004FF05500AE
:1004B0002F49086000BF2448006810F0407FFAD040
:1004C00023202D4908604FF0AA002249C1F8AC0052
:1004D0004FF05500294908604FF001002849086095
:1004E0004FF0AA00254908604FF055001949C1F89E
:1004F000AC0000BF2348006810F4806FFAD00320DE
:100500001F4908604FF0AA001249C1F8AC004FF033
:1005100055001A49086000BF1A48006810F4407F6F
:10052000FAD00020184908600A49C1F8AC01174800
:10053000174908604FF000001649086043F23A007E
:10054000044908607047000088C00F400CC10F408C
:1005500000093D0000C00F4004C10F400000001022
:10056000001BB700A0C10F406300050084C00F400E
:100570008CC00F4080C00F40A4C00F40ACC00F40E3
:10058000A0C00F40A8C00F40A8C10F40DE872804BC
:10059000C4C00F40C8C10F400146002006E0002043
:1005A00000E0401C41F288329042FAD30A00A1F1E7
:1005B0000101F4D170471FB5FFF742FF00F05AF96F
:1005C00000F0AEF8002048490860486088600820C4
:1005D000C860032088610C20C8610520086140F2D2
:1005E000DA7048610A46D2E905311069D269CDE96D
:1005F0000131039200903C480FC800F0C4F800207D
:100600003A490860486088600120C860002088611D
:100610000120C861086140F2DB7048610B46D3E9F4
:100620000420D3E9061301AC0BC400922F480FC875
:1006300000F0C4F800BF11200121814040094FF0B3
:10064000E02202EB8000C0F8001100BFFF2000F0A4
:10065000F6F882202649087300F07EF842E025482B
:1006600000F0C9F82448006828B100202249086039
:10067000204800F0C0F821A000F033F91D49496975
:1006800088B200F08AF92F2000F017F9194909699A
:1006900088B200F082F92F2000F00FF91549C969DE
:1006A00088B200F07AF92F2000F007F91149896823
:1006B00088B200F072F93A2000F0FFF80D4949685D
:1006C00088B200F06AF93A2000F0F7F809490968A1
:1006D00088B200F062F90A2000F0EFF840F6B83076
:1006E000FFF75AFFBBE700000800001028000010C9
:1006F000004002404800001004000010CFD6D4DAB9
:10070000B5C4CAB1BCE4CAC7A3BA00004D4800785A
:1007100040F001004B49087001204B4908607047C8
:100720000020494908604948006840F40070484981
:10073000C1F8C4004748007810F0100F06D04548B3
:10074000007840F010003F4981F85C0000203D49EE
:1007500008740873087270473A48007A40F0010044
:10076000384908720120087070473648007A20F036
:1007700001003449087270473248007A40F00200A4
:100780003049087270470FB43349009808702D49FA
:10079000019881F82400314902980870294903988A
:1007A00081F82C00069881F8300007988886049814
:1007B00081F838000598888704B070470FB428493D
:1007C000009808701F49019881F864002549029833
:1007D00008701C49039881F86C00069881F8700035
:1007E0000798A1F87400049881F878000598A1F89A
:1007F0007C0004B0704710B588B0044616480078F5
:100800000090104890F8240001901448007802905D
:100810001548007803901548007806900948808EA6
:1008200007901348007804900648808F05904FF099
:10083000200269462046FFF7B3FC08B010BD014A0C
:10084000107470470040024004000010C4C00F4004
:1008500000C00F405C40024020400240284002405F
:1008600060400240684002402C400240304002405C
:10087000384002406849096841F01001664A116039
:100880001146096841F0400111608321634A1173E8
:100890000D200146C21700EB126212125F4B1A7153
:1008A000C21700EB12621212A0EB02221A7003218F
:1008B0001A461173062111727047014600BF57484E
:1008C000007D10F0200FFAD0C8B2544A1070704763
:1008D00000BF5248007D10F0010FFAD04F48007859
:1008E000704700B5034603E013F8010BFFF7E5FF7F
:1008F00018780028F8D100BD4749096841F48011F3
:10090000454A11601146096841F48001116044496B
:10091000096841F08071434AC2F8C4104FF0830166
:10092000414A11734FF00D0001464FEAE07200EBAF
:1009300012624FEA22223C4B1A714FEAE07200EB3E
:1009400012624FEA2222A0EB02221A704FF003013A
:100950001A4611734FF0060111727047014600BF2D
:100960003148007D10F0200FFAD0C8B22E4A107026
:10097000704700BF2C48007D10F0010FFAD02A48C4
:100980000078704700B5034603E013F8010BFFF74A
:10099000E5FF18780028F8D100BD1CB503460A20F1
:1009A00093FBF0F100FB1130303080B2ADF806005F
:1009B0000A2093FBF0F00A2190FBF1F201FB1200F8
:1009C000303080B2ADF804000A2093FBF0F090FBC9
:1009D000F1F090FBF1F201FB1200303080B2ADF883
:1009E00002000A2093FBF0F090FBF1F090FBF1F095
:1009F00090FBF1F201FB1200303080B2ADF8000044
:100A0000002405E03DF81400FFF757FF601CC4B256
:100A1000042CF7DB1CBD000000C0024000C00040F9
:100A2000C4C00F4000C00F400080094000E1F50540
:040A300000000000C2
:04000005000000C532
:00000001FF
