:1000000026C0E3C03DC03CC03BC03AC039C038C088
:1000100037C036C035C034C033C00BC131C030C06A
:100020002FC02EC02DC07E306D79335B5F707F7323
:1000300026007D1F0D3D6F477B17303C570E551531
:100040001D67F3055B0F1C1C5C373B6D32001124F0
:100050001FBECFEDCDBF10E0A0E6B0E0E4E6F7E0D4
:1000600002C005900D92AA37B107D9F710E0AAE7B0
:10007000B0E001C01D92A039B107E1F7CED171C344
:10008000BFCF282F80FF02C0919A01C0919821FF15
:1000900002C0C69A01C0C69822FF02C0C39A01C01E
:1000A000C39823FF02C0C09A01C0C09824FF02C0B9
:1000B000C29A01C0C29825FF02C0C49A01C0C49868
:1000C00026FF02C0C59A01C0C59887FF02C0969A54
:1000D0000895969808951F93182FC19A909A949A0C
:1000E000C79A6A3030F4E62FF0E0EA5DFF4FE49102
:1000F00009C0862F81568A3138F4E62FF0E0EF529E
:10010000F040E4918E2F08C0603419F480916000B3
:1001100003C0603211F480E0B4DF112311F4C19800
:100120000BC0113011F4909807C0123011F494985C
:1001300003C0133009F4C7981F910895E82F8A303F
:1001400028F4F0E0EA5DFF4FE4910FC081568A3158
:1001500028F4F0E0EF52F040E49107C0E03419F0E9
:1001600080E090E00895E091600090E004C08E2F60
:100170008170980FE695EE23D1F7892F90E00895CE
:100180000F931F93CF93DF93EB0168EE73E0B7D229
:100190009C0180E2888389838A8300E010E0FE016D
:1001A000E00FF11DC9016AE070E0A9D28083C901A6
:1001B0006AE070E0A4D29B010F5F1F4F672B79F7B5
:1001C000DF91CF911F910F9108951F920F920FB65B
:1001D0000F9211242F933F934F935F936F937F93CD
:1001E0008F939F93AF93BF93EF93FF931BBE109298
:1001F0007E0010927F00109280001092810080910A
:100200008D0090918E0002C08AE063D2829BFCCF69
:10021000FF91EF91BF91AF919F918F917F916F91DE
:100220005F914F913F912F910F900FBE0F901F90B4
:1002300018951F920F920FB60F9211242F933F9390
:100240004F935F936F937F938F939F93AF93BF93DE
:10025000EF93FF9380918D0090918E008F5F9F4F61
:1002600049F080918D0090918E00019690938E00C0
:1002700080938D0080918300909184008F5F9F4FC9
:10028000B1F1809183009091840001969093840055
:10029000809383008091830090918400845F9140DB
:1002A00030F11092840010928300809182008F5F61
:1002B0008093820080918200A0917800B0917900B3
:1002C000FD0101900020E9F7EA1BFB0B90E032965C
:1002D000E817F90760F480918200FD010190002089
:1002E000E9F73197EA1BFB0B8E1B8093820080910C
:1002F0007E0090917F00A0918000B0918100805C91
:100300009742A940B040A0F480917E0090917F0078
:10031000A0918000B09181000196A11DB11D809334
:100320007E0090937F00A0938000B09381000CC06A
:10033000C89B0AC063E689E0CEDE85B7806785BFCB
:1003400080E48BBF7894889580918C008150809355
:100350008C0080918C00882309F04EC080917D0034
:100360008F5F80937D0080917D00833010F010922C
:100370007D0080917D00882399F480918F00DEDEDE
:10038000882329F4C19A81E080937D0009C060919F
:100390008F0080E0A0DE80918F00D0DE80938C0003
:1003A00080917D00813099F480918A00C7DE882396
:1003B00029F4909A82E080937D0009C060918A00C0
:1003C00081E089DE80918A00B9DE80938C00809183
:1003D0007D00823089F480918B00B0DE882319F48F
:1003E000949A81E007C060918B0082E074DE809176
:1003F0008B00A4DE80938C00FF91EF91BF91AF91B1
:100400009F918F917F916F915F914F913F912F912C
:100410000F900FBE0F901F901895EF92FF920F93C1
:100420001F93CF93DF938FEF87BB81BB1ABA8FE007
:100430008BBB1BBE8A98929A20E030E0D90173D121
:10044000F0938900E0938800809188009091890062
:100450008F5F9F4F59F4109289001092880080910D
:10046000880090918900D9010C0162D180918800A7
:100470009091890065E870E083DE82E080BF83BFF1
:100480008FE386BF81E089BF78948FEF9FEF9093D1
:100490008E0080938D0011E041E000E0C0E0D0E0EC
:1004A00085E8E82E80E0F82E82991FC01130E9F42B
:1004B00010927E0010927F001092800010928100B6
:1004C00010928E0010928D0003C0829907C000E048
:1004D00080918D0090918E000A97BCF380918D00E1
:1004E00090918E000A970CF010E0829B20C011239F
:1004F00009F03CC010927E0010927F0010928000A4
:100500001092810010928E0010928D0002C0829B8A
:1005100006C080918D0090918E000A97C4F380915F
:100520008D0090918E000A970CF0D1C002C011236B
:10053000E9F480918D0090918E00885B9B400CF4D3
:10054000C4C0109289001092880080918800909118
:100550008900DE010C01ECD0809188009091890027
:10056000B7010EDE10927B0001E0AFC0442309F01A
:100570004EC0002309F04BC0809188009091890003
:1005800001969093890080938800809188009091D3
:100590008900DE010C01CCD0809188009091890007
:1005A000B701EEDD82E080937B0080E480938B00D6
:1005B00080918B0080938A0080918A0080938F00C5
:1005C000C99902C080E001C086E080937C0010924F
:1005D0007A0015C066E087D080917C00292F280F13
:1005E000312D311DF901EF59FF4F8081809360005B
:1005F00084E06FD080917A008F5F80937A00809141
:100600007A00823138F381E080937B00412F809122
:100610007B00813059F48091870080938F00809116
:10062000860080938A00809185003CC08823E1F594
:10063000209178003091790080918200F901019039
:100640000020E9F73197E21BF30B90E0BF0157D090
:10065000F901E80FF91F808180938F00809182005B
:10066000F90101900020E9F73197E21BF30B90E0CC
:100670000196BF0144D0F901E80FF91F80818093F2
:100680008A0080918200F90101900020E9F73197FA
:10069000E21BF30B90E00296BF0131D0280F391F07
:1006A000F901808180938B0080917E0090917F0082
:1006B000A0918000B09181008158994AA340B04038
:1006C00008F4F2CE10927B00EFCE40E0A0CF11E014
:1006D0004DCF2AEF30E0E22FF32F3197F1F7A895B5
:1006E0008A95C9F70895991B79E004C0991F961758
:1006F00008F0961B881F7A95C9F780950895AA1B64
:10070000BB1B51E107C0AA1FBB1FA617B70710F0FC
:10071000A61BB70B881F991F5A95A9F7809590952E
:10072000BC01CD01089509D0E02D07D0F02D08952A
:100730000CD0012C0AD011240895E199FECFBFBB43
:10074000AEBBE09A11960DB20895E199FECFBFBB02
:10075000AEBB0DBA11960FB6F894E29AE19A0FBEAD
:040760000895FFCF2A
:100764000240201008040210204002040820202027
:0A0774007A6F6F74626F79006D00F8
:00000001FF
