:020000020000FC
:1000000012C010C00FC00EC00DC00CC00BC00AC083
:1000100009C008C007C006C005C004C003C002C0B4
:1000200001C000C0FFCF0FE507BB02E201BB00E04B
:1000300008BB02BB00E00FBD02BD02E00EBD0FED2C
:100040000DBFF2E061B72FD0E0E063D00FD03CD01D
:10005000062F60E3601728F40A9501BF2FEF55D0F3
:10006000F9CF61BF20D002D06395FBCFEEE051D035
:10007000062F2ED0E8E14DD0052F2AD05F3C59F055
:10008000503D49F0513D39F05F3B51F0503C41F05B
:10009000513C31F019C0E0E23CD0E4E33AD014C066
:1000A000EAE237D0FACFB59BFECF0CB51DB5B599B6
:1000B000FECFB59BFECF5CB5501B0DB5010B069571
:1000C00057950695579508953DE00BD03AE009C045
:1000D000302F329501D0302F3F703A3008F0395F21
:1000E000305D919A49E0252F24500ED00894379521
:1000F00018F00000919A02C0919800C0252F255059
:1001000003D04A9599F70895000000002A95E9F771
:0E01100008953591332311F0E4DFFBCF0895FD
:10020000466163746F72792043616C0D0A004F532D
:100210004343414C3A2000002054696D653A200068
:10022000203D3D20382E30303000203D3D20372EFF
:0A02300033373300204D487A0000F8
:00000001FF
