:020000040000FA
:1000000068020010650100006D0100006F01000032
:100010007101000073010000750100000000000084
:100020000000000000000000000000007701000058
:1000300079010000000000007B0100007D0100004C
:100040007F0100007F0100007F0100007F010000B0
:100050007F0100007F0100007F0100007F010000A0
:100060007F0100007F0100007F0100007F01000090
:100070007F0100007F0100007F0100007F01000080
:100080007F0100007F0100007F0100007F01000070
:100090007F0100007F0100007F0100007F01000060
:1000A0007F0100007F0100007F0100007F01000050
:1000B0007F0100007F0100007F0100007F01000040
:1000C0007F01000000F002F800F03CF80AA090E880
:1000D000000C82448344AAF10107DA4501D100F003
:1000E00031F8AFF2090EBAE80F0013F0010F18BF94
:1000F000FB1A43F0010318478C060000AC06000011
:10010000103A24BF78C878C1FAD8520724BF30C843
:1001100030C144BF04680C60704700000023002415
:1001200000250026103A28BF78C1FBD8520728BF07
:1001300030C148BF0B6070471FB500F01CFB1FBDEE
:1001400010B510BD00F0B1F81146FFF7F5FF00F053
:1001500036F800F0FDFA03B4FFF7F2FF03BC00F03D
:1001600003FB00000948804709480047FEE7FEE717
:10017000FEE7FEE7FEE7FEE7FEE7FEE7FEE7FEE757
:1001800004480549034A054B70470000410400003C
:10019000C500000068000010680200106800001030
:1001A0000146002006E0002000E0401C41F28832B9
:1001B0009042FAD30A00A1F10101F4D1704700F096
:1001C0003FF900F0E9F900F029FA18E00CA000F07E
:1001D0001AFA13A000F017FA18A000F014FA1EA0E3
:1001E00000F011FA27A000F05FFA0DA000F05CFA11
:1001F00012A000F059FA40F6B830FFF7D1FFE5E75A
:10020000C2B7BBA2A3A84C616E645469676572A3B0
:10021000A94C504331375858BFAAB7A2B0E50A00DD
:10022000687474703A2F2F7777772E506F776572D6
:100230004156522E636F6D0A00000000687474709E
:100240003A2F2F7777772E506F7765724D43552E63
:10025000636F6D0A00000000BCBCCAF5D6A7B3D618
:10026000205151A3BA31373339383232343020B5C6
:10027000E7BBB0A3BA313337313133373335383692
:100280000A000000C2B7BBA2A3A84C616E64546907
:10029000676572A3A955415254B2E2CAD4B3CCD017
:1002A000F20A0000704770477047754600F022F868
:1002B000AE4605006946534620F00700854618B053
:1002C00020B5FFF75DFFBDE820404FF000064FF07E
:1002D00000074FF000084FF0000B21F00701AC467B
:1002E000ACE8C009ACE8C009ACE8C009ACE8C0099A
:1002F0008D4670470048704704000010FFFFFFFF65
:1003000091480068C0F30160032868D18F480068F5
:1003100010F0030006D0012823D002283FD0032884
:100320005CD100E000BF88480068C0F30E0000F117
:1003300001004FEA4000864900FB01F08549D1F8F1
:100340008810C1F3074101F10101B0FBF1F18248CE
:100350000068C0B200F10100B1FBF0F07F49086015
:100360003CE079480068C0F30E0000F101004FEA5C
:1003700040007B4900FB01F07649D1F88810C1F3B9
:10038000074101F10101B0FBF1F173480068C0B20F
:1003900000F10100B1FBF0F0704908601EE06A480E
:1003A0000068C0F30E0000F101004FEA40004FF476
:1003B000FA4100FB01F06749D1F88810C1F3074109
:1003C00001F10101B0FBF1F163480068C0B200F136
:1003D0000100B1FBF0F06149086000BF2FE05B480D
:1003E000006810F0030006D0012810D0022819D0B0
:1003F000032823D100E000BF57480068C0B200F1D5
:1004000001005349B1FBF0F05449086016E052482E
:100410000068C0B200F101005149B1FBF0F04F4952
:1004200008600BE04C480068C0B200F101004FF4D6
:10043000FA41B1FBF0F04949086000BF00BF7047C6
:1004400020204849086000BF4648006810F0400F6F
:10045000FAD00320404908604FF001003D49C1F83F
:100460000C014148414908604FF0AA00404908602A
:100470004FF0550008604FF001003E4908604FF012
:10048000AA003B4908604FF055003249C1F88C0082
:1004900000BF2D48006810F0806FFAD00320354966
:1004A00008604FF0AA002B49C1F88C004FF05500AE
:1004B0002F49086000BF2448006810F0407FFAD040
:1004C00023202D4908604FF0AA002249C1F8AC0052
:1004D0004FF05500294908604FF001002849086095
:1004E0004FF0AA00254908604FF055001949C1F89E
:1004F000AC0000BF2348006810F4806FFAD00320DE
:100500001F4908604FF0AA001249C1F8AC004FF033
:1005100055001A49086000BF1A48006810F4407F6F
:10052000FAD00020184908600A49C1F8AC01174800
:10053000174908604FF000001649086043F23A007E
:10054000044908607047000088C00F400CC10F408C
:1005500000093D0000C00F4004C10F400000001022
:10056000001BB700A0C10F406300050084C00F400E
:100570008CC00F4080C00F40A4C00F40ACC00F40E3
:10058000A0C00F40A8C00F40A8C10F40DE872804BC
:10059000C4C00F40C8C10F406849096841F010014C
:1005A000664A11601146096841F0400111608321DB
:1005B000634A11730D200146C21700EB126212123A
:1005C0005F4B1A71C21700EB12621212A0EB0222EB
:1005D0001A7003211A4611730621117270470146E1
:1005E00000BF5748007D10F0200FFAD0C8B2544A1F
:1005F0001070704700BF5248007D10F0010FFAD014
:100600004F480078704700B5034603E013F8010B2C
:10061000FFF7E5FF18780028F8D100BD47490968C1
:1006200041F48011454A11601146096841F4800186
:1006300011604449096841F08071434AC2F8C4100E
:100640004FF08301414A11734FF00D0001464FEA0C
:10065000E07200EB12624FEA22223C4B1A714FEA21
:10066000E07200EB12624FEA2222A0EB02221A7023
:100670004FF003011A4611734FF0060111727047D3
:10068000014600BF3148007D10F0200FFAD0C8B2FB
:100690002E4A1070704700BF2C48007D10F0010FEB
:1006A000FAD02A480078704700B5034603E013F8F3
:1006B000010BFFF7E5FF18780028F8D100BD1CB545
:1006C00003460A2093FBF0F100FB1130303080B27A
:1006D000ADF806000A2093FBF0F00A2190FBF1F23E
:1006E00001FB1200303080B2ADF804000A2093FB09
:1006F000F0F090FBF1F090FBF1F201FB12003030D2
:1007000080B2ADF802000A2093FBF0F090FBF1F00C
:1007100090FBF1F090FBF1F201FB1200303080B25F
:10072000ADF80000002405E03DF81400FFF757FF86
:10073000601CC4B2042CF7DB1CBD000000C00240EA
:1007400000C00040C4C00F4000C00F4000800940FE
:100750000446AFF300802046FFF7FDFC01487047D8
:10076000704700BF0800001001491820ABBEFEE72B
:1007700026000200704710B5FFF7F0FF4FF00001B0
:10078000016010BDA407000000000010040000007C
:1007900000010000A807000004000010640200002F
:0807A0001C01000000E1F50559
:04000005000000C532
:00000001FF
