:020000040000FA
:10000000780300106D010000710100007301000011
:100010007501000077010000790100000000000078
:100020000000000000000000000000007B01000054
:100030007D010000000000007F0100008101000040
:10004000830100006B0900008301000083010000B0
:100050008301000083010000830100008301000090
:100060008301000083010000830100008301000080
:100070008301000083010000830100008301000070
:100080008301000083010000830100008301000060
:100090008301000083010000830100008301000050
:1000A000C7110000830100008301000083010000EC
:1000B0008301000083010000830100008301000030
:1000C00083010000830100008301000000F002F8BA
:1000D00000F03CF80AA090E8000C82448344AAF1A6
:1000E0000107DA4501D100F031F8AFF2090EBAE8A4
:1000F0000F0013F0010F18BFFB1A43F0010318475C
:100100008C1A0000BC1A0000103A24BF78C878C1CD
:10011000FAD8520724BF30C830C144BF04680C600D
:10012000704700000023002400250026103A28BF55
:1001300078C1FBD8520728BF30C148BF0B60704759
:100140001FB501F081FC1FBD10B510BD00F09BF87C
:100150001146FFF7F5FF00F079FC00F0B9F803B4A1
:10016000FFF7F2FF03BC00F0C3F8000008480047A7
:10017000FEE7FEE7FEE7FEE7FEE7FEE7FEE7FEE757
:10018000FEE7FEE703480449024A044B70470000BB
:10019000CD000000780100107803001078010010F5
:1001A00010B500F0DBF910BD7047704770471FB500
:1001B000044614F0080F2AD0032000F0D7FF2B4983
:1001C00009682B4A1288022303FB0211884217D0C8
:1001D0002748008880302649088008460088C0F3F8
:1001E000090008800846008822490988401AC0F39F
:1001F0000900B0F5007F0AD101201F49087006E010
:1002000000201D4908701A4800881A4908800A20F1
:10021000F0B11648006816490988022202FB010065
:1002200000900420ADF804000020ADF8060013484B
:100230000068029000200390039820F00200801CC8
:1002400003906946032000F0DBFE032000F054FF1A
:100250001FBD7047704770477047704770477047C1
:1002600070477047704770477047000030000010BB
:100270003E0000103C000010400000102C00001058
:10028000704770477047754600F028F8AE46050085
:100290006946534620F00700854618B020B5FFF7A1
:1002A00071FFBDE820404FF000064FF000074FF00F
:1002B00000084FF0000B21F00701AC46ACE8C00984
:1002C000ACE8C009ACE8C009ACE8C0098D4670478D
:1002D0000446AFF300802046FFF741FF0048704717
:1002E0001801001001487047704700BF1C01001042
:1002F00001491820ABBEFEE726000200FFFFFFFF0A
:1003000020208449086000BF8248006810F0400F38
:10031000FAD00320804908604FF000007F49C1F8FF
:10032000A8017F4908604FF001007E4908604FF046
:100330000B007D4908604FF00100A1F10401086045
:100340004FF0AA00794908604FF055007349C1F891
:100350008C0000BF7648006810F0806FFAD0032050
:10036000744908604FF0AA006C49C1F88C004FF046
:1003700055006E4908604FF023006F4908604FF048
:100380000100A1F1040108604FF0AA006B49086068
:100390004FF05500086000BF6948006810F4806F96
:1003A000FAD00320674908604FF0AA005B49C1F802
:1003B000AC004FF05500614908606348634908602C
:1003C0004FF000005549C1F8C8010846D0F8880030
:1003D000C0F30160032868D15248006810F00300A0
:1003E00006D0012823D002283FD003285CD100E0AA
:1003F00000BF4F480068C0F30E0000F101004FEA53
:1004000040014648D0F88800C0F3074000F10100E1
:10041000B1FBF0F04E4900FB01F03F490968C9B259
:1004200001F10101B0FBF1F04A4908603CE04048AD
:100430000068C0F30E0000F101004FEA40013748A8
:10044000D0F88800C0F3074000F10100B1FBF0F0E4
:10045000414900FB01F030490968C9B201F10101CD
:10046000B0FBF1F03B4908601EE031480068C0F382
:100470000E0000F101004FEA40012848D0F8880042
:10048000C0F3074000F10100B1FBF0F04FF4FA4176
:1004900000FB01F020490968C9B201F10101B0FB7C
:1004A000F1F02C49086000BF2FE01E48006810F0F2
:1004B000030006D0012810D0022819D0032823D128
:1004C00000E000BF14480068C0B200F101002049FC
:1004D000B1FBF0F01F49086016E00F480068C0B299
:1004E00000F101001C49B1FBF0F01A4908600BE073
:1004F00009480068C0B200F101004FF4FA41B1FBB5
:10050000F0F01449086000BF00BF43F23A0003490D
:1005100008607047A0C10F4004C10F4000C00F40E9
:10052000ACC10F400CC10F4084C00F408CC00F40C5
:1005300088C00F4080C00F40A4C00F40ACC00F4027
:10054000A8C00F40A0C00F40DE872804C4C00F40E1
:1005500000093D0000000010001BB7000020EA4920
:100560000880EA490870EA4908704FF00110E9492B
:1005700008600020E8490860E8490860704710B545
:10058000E749002000F09CFC10BD10B5E5488088CC
:10059000402801DD402401E0E2488488E148224609
:1005A0000168802000F0BBFC0446DE48006820445F
:1005B000DC49086008468088001B888010BD10B5A3
:1005C000D8480168002000F07BFC0446D54800684C
:1005D0002044D449086008468088001B888010BDEC
:1005E00010B500221146802000F099FC10BD10B516
:1005F000CD49002000F064FC10BD10B50446082C65
:100600006FD2DFE804F06E04F2F16E6EF0EFFFF7E8
:10061000B6FFC3490978C80900F009FCC048C08882
:10062000C0498880BE480078C0F3411010B101284D
:1006300079D190E0BA4840780C2875D2DFE800F014
:10064000060D8815881D333A41555C8100F0B4FFD2
:1006500000B9E1E0FFF799FF7BE0002001F00CF822
:1006600000B9D9E0FFF7BCFF73E0012001F004F806
:1006700000B9D1E0FFF7B4FF6BE000BFA8480078F5
:10068000C0F3040030B9A648807840F080009F494C
:10069000087001E0002001E000BF012000B9BBE0CC
:1006A000FFF79EFF55E000F02BFF00B9B4E0FFF725
:1006B0006CFF4EE0002000F0E2FB002099498880AA
:1006C00047E000BF96480078C0F3040018B990488E
:1006D0009449086001E0002001E000BF012008B952
:1006E0009AE00FE1FFF751FF33E001F03BF800B96A
:1006F00092E0FFF775FF2CE000BF89480078C0F357
:100700000400012814D18248007870B1844800792F
:1007100086490978884208DA814800798449084482
:100720008049086003E076E012E0002004E001E088
:10073000002001E000BF012000B96DE0FFF725FFB8
:1007400007E001F0E9F800B966E0FFF749FF00E0D3
:1007500062E000BF67E072480078C0F3040020B197
:10076000012803D0022854D12DE055E06C480079CF
:1007700038B16B480079012803D069480079022814
:1007800020D16748407882280BD004DC012814D09F
:10079000812816D104E0832804D0842811D102E0F6
:1007A00000BF00BF00BF00F035FE28B15E485D49C4
:1007B0000860FFF7EAFE2DE003E05B485949086056
:1007C00028E000BF28E05648407882280FD004DC9B
:1007D000012818D081281AD108E0832808D084285D
:1007E00015D106E08AE085E06CE01EE000BF00BFA6
:1007F00000BF00F077FE28B14B484A490860FFF778
:10080000C4FE07E003E048484649086002E000BF34
:1008100002E001E007E000BF802000F030FB002094
:100820004049888000BF00BF6CE03D480078C009A7
:1008300045D13C48808880B3FFF7C1FE39488088A5
:1008400058BB37480078C0F3411010B1012834D1AB
:1008500000E0E1E732480078C0F3040020B101284D
:1008600003D0022827D119E0D6E72D48007938B106
:100870002B480079012803D02948007902280BD1A0
:1008800027484078012806D100F004FE10B1FFF798
:10089000A7FE11E000BF00BFBEE712E0204840788D
:1008A000012806D100F020FE10B1FFF799FE03E009
:1008B00000BF00BFB0E7AFE700E0ADE701E0FFF742
:1008C00096FE1FE016480078C009012802D1FFF704
:1008D0005CFE0EE00D48007810F0800F09D00B4848
:1008E000007800F07F00094908700846007800F0A1
:1008F00096F907E0002000F0CFFA03E0802000F036
:10090000CBFA00BF00BF10BD0400001006000010AD
:1009100007000010080000100C000010100000106C
:10092000240000101C0000105800001014000010DB
:10093000150000107649096841F08071744A116011
:1009400000BF7349486810F0004FFAD0096821F0E1
:1009500080716F4A1160F82101EA1021082202EA31
:10096000D01211446B4A1180704710B56A48007864
:10097000B0B36A4800686A49098830F9113069489B
:10098000008867490988401AC0F30904B4F5607FFC
:1009900004D163480088401C61490880802C04D938
:1009A0005F480088401C5E4908805D480088C0F3AD
:1009B00009005B490880002B05DA5B480068C01A13
:1009C0005949086004E058480068184456490860CE
:1009D0005648006843431B1403F500439BB202E0F2
:1009E000FFE74FF400435248007808B14FF400434A
:1009F0004FF6C07018404F4908604F4801680068C2
:100A0000401C4D4A10608805800D1AD1FFF792FFF7
:100A10004A480088B0F5004F03D1002043490860E0
:100A200006E0464800883B49098848433F4908603A
:100A30003D480068030D00203B490860072B00DD9E
:100A4000072301204FF04021086010BDFFF758FC3C
:100A50003B48406820F470103949486008464068B7
:100A600040F4101048603748006C40F001003549F0
:100A700008643348C06840F040403149C86032489B
:100A8000006840F480503149C1F8C4003048204922
:100A900008604FF40040274908602E480068C0F302
:100AA000810535B1012D08D0022D09D0032D0BD0C1
:100AB00000BF2948006884080AE02748046807E066
:100AC00025480068440803E023480068C40800BFC4
:100AD00000BF4FF4FA40B4FBF0F0401E4FF040214D
:100AE0008861032048610120486000BF00FA00F1DE
:100AF00040094FF0E02202EB8000C0F8001100BF77
:100B000000F0F7F8012000F03AF900BFFEE700001E
:100B10000040034042000010400000103000001070
:100B20003C0000103E00001044000010380000108F
:100B30003400001000C008404800001054000010AD
:100B400000C0024000C00920C4C00F4000C00F40D8
:100B500020042000A8C10F400000001001460A0731
:100B6000D00E11F0800F00D0401C70471021FE4ABB
:100B70001160FE49C1F8100200BFFD49096811F07B
:100B8000100FFAD070471022F74B1A60F74AC2F8DC
:100B9000100200BFF64A126812F0100FFAD01022AD
:100BA000F14B1A60F14AC2F8101200BFF04A126805
:100BB00012F0100FFAD0704710B504460B46102003
:100BC000E94908602046FFF7C9FF4FF4A06141EAF8
:100BD0000040E649C1F8100200BFE548006810F087
:100BE000100FFAD01020E0490860E048C0F8103239
:100BF00000BFDF48006810F0100FFAD010BD0146AA
:100C00003020D94A1060D948C0F8101200BFD84827
:100C1000006810F0200FFAD0D6480068704710B571
:100C2000044644F080004FF4807242EA0041D2480A
:100C3000FFF7A9FF44F080004FF4807242EA0041C0
:100C4000CD48FFF7A0FF10BD0021CC4A11604FF046
:100C50004001C64AC2F84C124FF00101C74A116068
:100C60004FF04001C14AC2F84C1200BFC0490968A8
:100C700011F4807FFAD04FF0FF31C14A11606FF05C
:100C80004001BA4AC2F834124FF0FF31B64A11603F
:100C90004FF00D01A2F104021160BA49BA4A116085
:100CA0004FF0FF31B94A1160B94A11604FF040016D
:100CB000A2F1040211604FF0FF31B64A1160B64A4A
:100CC0001160B64A11604FF00701B54A11604FF04C
:100CD0000001B44A11605160084607E00021B24AA1
:100CE00042F82010B14A42F82010401C2028F5D3C9
:100CF000704700B5AE48406820F07050AC4948607D
:100D00000846406840F0A05048600846C068A949BD
:100D10000840A749C8600846C068A7490843A449D5
:100D2000C8600846006920F4402008610846006950
:100D300040F480200861A148006840F00040A049CC
:100D4000C1F8C4004FF01A009E49086000BF9E48D9
:100D5000006800F01A001A28F9D100BF18200121FC
:100D6000814040094FF0E02202EB8000C0F8001102
:100D700000BFFFF769FF0020FFF751FF00BD10B56E
:100D800004460CB1012000E000204FF4807242EADA
:100D900000418E48FFF7F7FE10BD7047704700B561
:100DA0008B48008810F0020F03D08A498748FFF76C
:100DB000EAFE00BD704710B504460CB1012000E00A
:100DC00000204FF4807242EA00418348FFF7DBFEC7
:100DD00003208249086000BF6548006810F4807FE6
:100DE000FAD04FF480706049086010BD10B503461A
:100DF0009878FFF7B3FE0446784800684FF0010189
:100E000001FA04F140EA01005849C1F844025B4884
:100E100004609888C1F84C0200BF5548006810F47F
:100E2000807FFAD04FF480704F49086010BD704742
:100E300030B504462046FFF791FE694941EA004576
:100E400089132846FFF79FFE30BD30B50446204683
:100E5000FFF784FE624941EA004562492846FFF7F0
:100E600092FE30BD30B504462046FFF777FE5C4960
:100E700041EA004589132846FFF785FE30BD30B5AD
:100E800004462046FFF76AFE554941EA00455149AC
:100E90002846FFF778FE30BD30B504462046FFF700
:100EA0005DFE4F4941EA004589132846FFF76BFE76
:100EB00030BD10B504464C492046FFF77DFE10BDFD
:100EC000F0B505460F4605F00F00012101EB80004B
:100ED0004649086000BF4648046814F4006FFAD021
:100EE000C4F30904002606E042480068386007F1B0
:100EF000040706F10106E01CB6EB900FF4D30020C6
:100F00003A49086041F2482040FA05F010F0010F1C
:100F100003D135492846FFF74FFE2046F0BDF0B516
:100F200006460D46144606F00F00022101EB800034
:100F30002E4908600D48C0F824424FF0000706E033
:100F400028682D49086005F1040507F10107E01C38
:100F5000B7EB900FF4D300202449086027493046AE
:100F6000FFF72AFE2046F0BD08C2005000C0005026
:100F700000C2005014C200500005D00048C200500A
:100F800038C200500000082080C2005054C20050F7
:100F90008CC20050A4C20050B0C20050BCC200506D
:100FA00094C200504C00001098000010000008206F
:100FB00000C00240CFFFFFCF10000020C4C00F4090
:100FC00000C00F40F4CF0050F8CF00500005FE00E5
:100FD00004000010000101000005D80044C20050C8
:100FE00000054000000120000005F20028C200506A
:100FF00020C2005018C200501CC200500005FA0068
:101000002DE9F04381460C46E068C0F340054846B0
:10101000FFF7A4FD80460027E64850F8283017E087
:101020001F46E068C0F3000088B9E34850F8250087
:10103000381AE24951F82510B0FBF1F6E04850F8B3
:1010400025000121B1408843DD4941F825003B6876
:10105000002BE5D1002608E0D94850F825100120E2
:10106000B040014200D102E0761C202EF4D300BF34
:10107000202E02D10020BDE8F083D14850F8251081
:101080000120B0400143CE4840F82510CA4850F82E
:101090002500CA4951F8251006FB01034FB1E0684D
:1010A000C0F3000028B13B60786840F0040078602D
:1010B00005E0C04840F82830C24840F828300020F9
:1010C00001C3E068C0F38000E168C1F3400140EA79
:1010D0000110E18840EA4110A18840EA014001C3C3
:1010E000206801C3E068C0F30720000201C30DB10E
:1010F000A06818600120BEE700B503461846FFF758
:101100002DFD01218140B048016000BD00B50346BE
:101110001846FFF723FD01218140AC48016000BD66
:1011200030B505462846FFF719FDA64951F820308D
:101130000BB9002030BDDC68C4F343000A2812D28A
:10114000DFE800F00507090B111111110D0F012047
:10115000F0E70220EEE70320ECE70520EAE70420B1
:10116000E8E70620E6E74FF6FF70E3E730B505460F
:101170002846FFF7F3FC934951F8203013B94FF09C
:10118000FF3030BD9C682046FBE730B50546284659
:10119000FFF7E4FC8B4951F8203013B94FF0FF30D2
:1011A00030BDDC68200CFBE700B58948FFF7DEFCAA
:1011B0008848FFF724FD03468648FFF720FD43EAF1
:1011C0000023184600BD2DE9F0478348076817F053
:1011D000080F1CD00820814908608148FFF7C6FC31
:1011E0008048FFF70CFD064616F0100F03D0FFF7FE
:1011F0002BFDFEF7D5FF16F0080F07D016F0040FF1
:1012000002D0FFF7CAFD01E0FFF7C8FDD0E017F0FC
:10121000010F01D0FEF7C8FF17F0040F49D04FF0BF
:1012200000097148D0F8308200243CE0C84500D164
:101230003BE00120A04010EA080F32D00120A0407E
:1012400040EA090965080120A0406849086000BF1C
:101250006148006810F0200FFAD06548066814F065
:10126000010F15D154B916F0040F07D0614800687A
:1012700020B1604801680120884713E05D4850F8BC
:10128000250070B15B4850F825100220884708E01F
:10129000584850F8250020B1564850F82510032032
:1012A000884700BF641C202CC0D300BF04204B49DA
:1012B00008605148006810F0010F24D04F480668BC
:1012C0004FF002041BE00120A040304216D0650818
:1012D00014F0010F09D1474850F8250070B1454876
:1012E00050F825100820884708E0424850F82500AB
:1012F00020B1404850F8251009208847641C202C54
:10130000E1D33F4806603C48006810F0020F24D04B
:101310003C4806684FF002041BE00120A040304228
:1013200016D0650814F0010F09D1324850F8250095
:1013300070B1304850F825100A20884708E02D4841
:1013400050F8250020B12B4850F825100B20884775
:10135000641C202CE1D32C4806602748006810F05C
:10136000040F24D0294806684FF002041BE0012036
:10137000A040304216D0650814F0010F09D11D4875
:1013800050F8250070B11B4850F825100C208847F4
:1013900008E0184850F8250020B1164850F82510EC
:1013A0000D208847641C202CE1D31948066000BF3B
:1013B000BDE8F087980000107C1B0000841B000033
:1013C0004C0000100000082088C200508CC2005061
:1013D0000005F5000002F50000C2005008C20050F0
:1013E0000005FE000002FE0000C0005038C20050A0
:1013F00014C20050581A000090C20050A0C2005001
:10140000A4C20050ACC20050B0C20050B8C20050DC
:10141000BCC2005035488088B0F5007F38D13348D1
:10142000807890BB3148C078012802D002282ED1A4
:101430000AE02E484078812805D12D4800782D49B2
:1014400008700120704722E028484078812806D0A3
:1014500082280AD083280DD0842817D110E026488E
:101460000088244908800120ECE7002021490880F9
:101470000120E7E74FF480701E4908800120E1E772
:1014800004201C4908800120DCE701E000BF00BF08
:101490000020D7E715488088B0F5007F20D1134899
:1014A0008078E8B91148C078012802D0022816D106
:1014B0000AE00E484078012805D10E4800780C4912
:1014C0000870012070470AE008484078012805D1DB
:1014D00008480088084908800120F3E700BF00BFE2
:1014E0000020EFE700207047002070472400001024
:1014F0003400001058000010540000107047000025
:1015000010B528480078C0F3040010B101283ED17E
:101510003AE02448C078012804D0022807D00328E4
:101520002ED118E02048214C206012232AE02049C7
:10153000002204E0087808B148880144521C194888
:1015400080789042F6D1087808B9002010BD17487D
:1015500001604B8816E01749002204E0087808B1C2
:1015600008780144521C0F4880789042F6D10878E0
:1015700008B90020EAE70D4801600068037801E03F
:101580000020E3E700BF04E000BF0020DEE700200A
:10159000DCE700BF05488088984201D9034CA3804E
:1015A0000120D3E724000010981A00001C0000104E
:1015B000AA1A0000181B000027480078C0F3040096
:1015C00020B1012806D0022841D116E02348244B3F
:1015D00018603EE02348007860B11F480079224B34
:1015E0001B78984206DA0020204B188018461C4BC6
:1015F000186001E0002070472BE01748007900F0E8
:101600008F0111F0800F05D001F00F034FF48030EF
:10161000984001E00120884002461248007810B945
:1016200011F00F0F10D11248006810420CD0114871
:101630000068104201D0012000E000200B4B188010
:101640001846074B186001E00020D4E701E00020B5
:10165000D1E700BF0120CEE72400001004000010F5
:101660001C000010070000101400001058000010AB
:10167000080000100C00001070B5064633480078D2
:10168000C0F3040020B101281DD0022858D11CE06D
:101690002E484088012813D146B1FFF78BFB2C4818
:1016A000008840F002002A4908800BE00020FFF784
:1016B00081FB2748008820F002002549088001E0CE
:1016C000002070BD3EE00020FBE72048007900F0DC
:1016D0008F0414F0800F05D004F00F014FF4803018
:1016E000884001E00120A04005461A48007820B358
:1016F00014F00F0F21D01848006828421DD013485D
:101700004088C0B946B12046FFF7B9FB13480068CE
:1017100028431249086012E011480068284201D0AD
:101720000120CEE72046FFF7B7FB0C480068A8432E
:101730000A49086003E00020C3E70020C1E701E098
:101740000020BEE700BF0120BBE70000240000101E
:101750000400001007000010080000100C0000102A
:10176000100000102DE9F041002662480078C0F317
:101770000400F0BB5F488078E0B35F4D7EE068789E
:10178000022804D0042854D0052873D153E0687986
:1017900058498978884248D1564880785749087016
:1017A000287957490870002403E00020554908555E
:1017B000641C042CF9D3012414E00120A0405249F8
:1017C0000968084202D02046FFF73FFB4FF4803003
:1017D000A0404D490968084203D044F08000FFF75B
:1017E00034FB641C102CE8D34FF00110464908600C
:1017F00001E079E047E0002044490860444908607E
:101800000120FFF7D8FAE87910F0400F06D04148E0
:10181000008840F001003F49088009E03D48008809
:1018200020F001003B49088002E06888054425E07B
:1018300020E0EE781EE0E6B9A87800F08F0414F0FE
:10184000800F05D004F00F014FF48030884001E094
:101850000120A04007462C48006838432A49086008
:101860002846FFF7C3FA2046FFF7E2FA2046FFF7C3
:10187000F9FA00BF00BF2878054400BF2878002887
:101880007FF47DAF26E000201C490870012414E09D
:101890000120A0401C490968084202D02046FFF7F9
:1018A000D4FA4FF48030A04017490968084203D0A9
:1018B00044F08000FFF7C9FA641C102CE8D34FF005
:1018C00001101149086000201049086010490860A3
:1018D000FFF771FA0748807808490978884202D0F2
:1018E0000020BDE8F08101E00020FAE700BF012000
:1018F000F7E7000024000010AA1A000007000010FB
:101900001400001015000010080000100C0000105A
:1019100010000010040000102DE9F05F0027B84609
:10192000BB46B94642480078C0F30400012879D18B
:101930004048007810B90020BDE8F09F4FF0000A41
:101940003D4C6AE06078022804D004280BD00528BA
:101950005FD11EE0607937490978884202D06088FB
:1019600004445AE055E0A77894F803804FF000094A
:101970002F480079B8420BD12D488078404507D1D7
:101980004FF0010A2D4810F807B0014601F8078012
:101990003FE027480079B8423AD1A07800F08F069E
:1019A00016F0800F05D006F00F014FF4803088400C
:1019B00001E00120B04005461D488078404515D122
:1019C0001F48006828431E4908601E480068A84355
:1019D0001C4908602046FFF709FA3046FFF728FA4D
:1019E0003046FFF73FFA49EA050911E0D8450FD123
:1019F00019EA050F0CD112480068A8431049086085
:101A000010480068A8430F4908603046FFF71DFAE8
:101A100000BF00BF2078044400BF2078002891D187
:101A200002E0FFE7002087E700BF504684E70000A0
:101A30002400001007000010AA1A00001500001072
:101A4000080000100C00001010B5FEF74BFC4FF022
:101A50000001016010BD0000FB0500000000000057
:101A600000000000AF0100000000000000000000C6
:101A70000000000000000000000000000000000066
:101A80000000000000000000000000000000000056
:101A900000000000000000001201000200000040F1
:101AA000C91F024000010102030109026D00020189
:101AB0000080320904000000010100000924010037
:101AC00001270001010C24020101010001000000B6
:101AD0000009240602010103000009240303010395
:101AE00000020009040100000102000009040101D4
:101AF0000101020000072401010101000B24020181
:101B000001021001007D00090503014000010000F1
:101B10000725010000000000040309041C034E0017
:101B2000580050002000530065006D0069006300FC
:101B30006F006E00640020002A034E005800500021
:101B400020004C005000430031003700780078003E
:101B5000200053007000650061006B00650072009A
:101B600020001A03440045004D004F0030003000B3
:101B7000300030003000300030003000800008209D
:101B8000800108201000000014000000BC1B0000B1
:101B9000000000105800000008010000141C0000A4
:101BA000580000102003000024010000141C000055
:101BB00000000820200200002401000000093D0070
:101BC0000000000000000000000000000000000015
:101BD0000000000000000000000000000000000005
:101BE0000000000000000000200208203002082051
:101BF00000000000000000000000000000000000E5
:101C000000000000000000000000000000000000D4
:041C100000010000CF
:04000005000000CD2A
:00000001FF
